{"contracts/FdcAccountingTrustless.sol":{"FdcAccountingTrustless":{"abi":[{"inputs":[{"internalType":"address","name":"_rootRelayer","type":"address"},{"internalType":"address","name":"_depositAddress","type":"address"}],"stateMutability":"nonpayable","type":"constructor"},{"anonymous":false,"inputs":[{"indexed":true,"internalType":"address","name":"sourceAddress","type":"address"},{"indexed":false,"internalType":"uint256","name":"value","type":"uint256"},{"indexed":false,"internalType":"bytes32","name":"txHash","type":"bytes32"}],"name":"DepositCredited","type":"event"},{"anonymous":false,"inputs":[{"indexed":true,"internalType":"uint64","name":"votingRound","type":"uint64"},{"indexed":false,"internalType":"bytes32","name":"merkleRoot","type":"bytes32"}],"name":"RootSynced","type":"event"},{"inputs":[],"name":"depositAddress","outputs":[{"internalType":"address","name":"","type":"address"}],"stateMutability":"view","type":"function"},{"inputs":[],"name":"getBalance","outputs":[{"internalType":"uint256","name":"","type":"uint256"}],"stateMutability":"view","type":"function"},{"inputs":[{"internalType":"bytes32","name":"","type":"bytes32"}],"name":"processed","outputs":[{"internalType":"bool","name":"","type":"bool"}],"stateMutability":"view","type":"function"},{"inputs":[],"name":"rootRelayer","outputs":[{"internalType":"address","name":"","type":"address"}],"stateMutability":"view","type":"function"},{"inputs":[{"internalType":"uint64","name":"","type":"uint64"}],"name":"roots","outputs":[{"internalType":"bytes32","name":"","type":"bytes32"}],"stateMutability":"view","type":"function"},{"inputs":[{"internalType":"uint64","name":"votingRound","type":"uint64"},{"internalType":"bytes32","name":"merkleRoot","type":"bytes32"}],"name":"syncRoot","outputs":[],"stateMutability":"nonpayable","type":"function"},{"inputs":[{"internalType":"bytes32[]","name":"merkleProof","type":"bytes32[]"},{"components":[{"internalType":"bytes32","name":"attestationType","type":"bytes32"},{"internalType":"bytes32","name":"sourceId","type":"bytes32"},{"internalType":"uint64","name":"votingRound","type":"uint64"},{"internalType":"uint64","name":"lowestUsedTimestamp","type":"uint64"},{"components":[{"internalType":"bytes32","name":"transactionHash","type":"bytes32"},{"internalType":"uint16","name":"requiredConfirmations","type":"uint16"},{"internalType":"bool","name":"provideInput","type":"bool"},{"internalType":"bool","name":"listEvents","type":"bool"},{"internalType":"uint32[]","name":"logIndices","type":"uint32[]"}],"internalType":"struct FdcAccountingTrustless.RequestBody","name":"requestBody","type":"tuple"},{"components":[{"internalType":"uint64","name":"blockNumber","type":"uint64"},{"internalType":"uint64","name":"timestamp","type":"uint64"},{"internalType":"address","name":"sourceAddress","type":"address"},{"internalType":"bool","name":"isDeployment","type":"bool"},{"internalType":"address","name":"receivingAddress","type":"address"},{"internalType":"uint256","name":"value","type":"uint256"},{"internalType":"bytes","name":"input","type":"bytes"},{"internalType":"uint8","name":"status","type":"uint8"},{"components":[{"internalType":"uint32","name":"logIndex","type":"uint32"},{"internalType":"address","name":"emitterAddress","type":"address"},{"internalType":"bytes32[]","name":"topics","type":"bytes32[]"},{"internalType":"bytes","name":"data","type":"bytes"},{"internalType":"bool","name":"removed","type":"bool"}],"internalType":"struct FdcAccountingTrustless.Event[]","name":"events","type":"tuple[]"}],"internalType":"struct FdcAccountingTrustless.ResponseBody","name":"responseBody","type":"tuple"}],"internalType":"struct FdcAccountingTrustless.Response","name":"response","type":"tuple"}],"name":"verifyAndCredit","outputs":[],"stateMutability":"nonpayable","type":"function"}],"evm":{"bytecode":{"linkReferences":{},"object":"60c06040523480156200001157600080fd5b5060405162001eda38038062001eda8339818101604052810190620000379190620001f5565b600073ffffffffffffffffffffffffffffffffffffffff168273ffffffffffffffffffffffffffffffffffffffff1603620000a9576040517f08c379a0000000000000000000000000000000000000000000000000000000008152600401620000a0906200029d565b60405180910390fd5b600073ffffffffffffffffffffffffffffffffffffffff168173ffffffffffffffffffffffffffffffffffffffff16036200011b576040517f08c379a000000000000000000000000000000000000000000000000000000000815260040162000112906200030f565b60405180910390fd5b8173ffffffffffffffffffffffffffffffffffffffff1660808173ffffffffffffffffffffffffffffffffffffffff16815250508073ffffffffffffffffffffffffffffffffffffffff1660a08173ffffffffffffffffffffffffffffffffffffffff1681525050505062000331565b600080fd5b600073ffffffffffffffffffffffffffffffffffffffff82169050919050565b6000620001bd8262000190565b9050919050565b620001cf81620001b0565b8114620001db57600080fd5b50565b600081519050620001ef81620001c4565b92915050565b600080604083850312156200020f576200020e6200018b565b5b60006200021f85828601620001de565b92505060206200023285828601620001de565b9150509250929050565b600082825260208201905092915050565b7f5a65726f2072656c617965720000000000000000000000000000000000000000600082015250565b600062000285600c836200023c565b915062000292826200024d565b602082019050919050565b60006020820190508181036000830152620002b88162000276565b9050919050565b7f5a65726f206465706f7369742061646472000000000000000000000000000000600082015250565b6000620002f76011836200023c565b91506200030482620002bf565b602082019050919050565b600060208201905081810360008301526200032a81620002e8565b9050919050565b60805160a051611b7562000365600039600081816101d501526102d901526000818161063801526107e70152611b756000f3fe608060405234801561001057600080fd5b506004361061007d5760003560e01c80636edc23931161005b5780636edc2393146100ee578063c1f0808a1461010a578063d29e88d21461013a578063d3894f7e146101565761007d565b806312065fe0146100825780631e3f0320146100a057806328f833b7146100d0575b600080fd5b61008a610174565b60405161009791906108d4565b60405180910390f35b6100ba60048036038101906100b59190610939565b6101bb565b6040516100c7919061097f565b60405180910390f35b6100d86101d3565b6040516100e591906109db565b60405180910390f35b61010860048036038101906101039190610a7f565b6101f7565b005b610124600480360381019061011f9190610b27565b610616565b6040516101319190610b6f565b60405180910390f35b610154600480360381019061014f9190610b8a565b610636565b005b61015e6107e5565b60405161016b91906109db565b60405180910390f35b6000600160003373ffffffffffffffffffffffffffffffffffffffff1673ffffffffffffffffffffffffffffffffffffffff16815260200190815260200160002054905090565b60006020528060005260406000206000915090505481565b7f000000000000000000000000000000000000000000000000000000000000000081565b60008180608001906102099190610bcf565b6000013590506002600082815260200190815260200160002060009054906101000a900460ff1615610270576040517f08c379a000000000000000000000000000000000000000000000000000000000815260040161026790610c54565b60405180910390fd5b6001828060a001906102829190610c74565b60e00160208101906102949190610cd6565b60ff16146102d7576040517f08c379a00000000000000000000000000000000000000000000000000000000081526004016102ce90610d4f565b60405180910390fd5b7f000000000000000000000000000000000000000000000000000000000000000073ffffffffffffffffffffffffffffffffffffffff16828060a0019061031e9190610c74565b60800160208101906103309190610d9b565b73ffffffffffffffffffffffffffffffffffffffff1614610386576040517f08c379a000000000000000000000000000000000000000000000000000000000815260040161037d90610e14565b60405180910390fd5b6000828060a001906103989190610c74565b60a00135116103dc576040517f08c379a00000000000000000000000000000000000000000000000000000000081526004016103d390610e80565b60405180910390fd5b60008060008460400160208101906103f49190610939565b67ffffffffffffffff1667ffffffffffffffff1681526020019081526020016000205490506000801b810361045e576040517f08c379a000000000000000000000000000000000000000000000000000000000815260040161045590610eec565b60405180910390fd5b6000836040516020016104719190611865565b60405160208183030381529060405280519060200120905061049586868484610809565b6104d4576040517f08c379a00000000000000000000000000000000000000000000000000000000081526004016104cb906118d3565b60405180910390fd5b60016002600085815260200190815260200160002060006101000a81548160ff021916908315150217905550838060a001906105109190610c74565b60a0013560016000868060a001906105289190610c74565b604001602081019061053a9190610d9b565b73ffffffffffffffffffffffffffffffffffffffff1673ffffffffffffffffffffffffffffffffffffffff16815260200190815260200160002060008282546105839190611922565b92505081905550838060a0019061059a9190610c74565b60400160208101906105ac9190610d9b565b73ffffffffffffffffffffffffffffffffffffffff167f1a688e52f070bf096d28d8dafc3394175ebd19b031c2bb0263cc75fd324f90f1858060a001906105f39190610c74565b60a0013585604051610606929190611956565b60405180910390a2505050505050565b60026020528060005260406000206000915054906101000a900460ff1681565b7f000000000000000000000000000000000000000000000000000000000000000073ffffffffffffffffffffffffffffffffffffffff163373ffffffffffffffffffffffffffffffffffffffff16146106c4576040517f08c379a00000000000000000000000000000000000000000000000000000000081526004016106bb906119cb565b60405180910390fd5b6000801b6000808467ffffffffffffffff1667ffffffffffffffff168152602001908152602001600020541461072f576040517f08c379a000000000000000000000000000000000000000000000000000000000815260040161072690611a37565b60405180910390fd5b6000801b8103610774576040517f08c379a000000000000000000000000000000000000000000000000000000000815260040161076b90611aa3565b60405180910390fd5b806000808467ffffffffffffffff1667ffffffffffffffff168152602001908152602001600020819055508167ffffffffffffffff167fa0fb0d10ef4173852eb78fdb26bb50c4b6252e1dc9b179e3230dd0810979efdf826040516107d9919061097f565b60405180910390a25050565b7f000000000000000000000000000000000000000000000000000000000000000081565b60008082905060005b868690508110156108ac57600087878381811061083257610831611ac3565b5b905060200201359050808311610872578281604051602001610855929190611b13565b60405160208183030381529060405280519060200120925061089e565b8083604051602001610885929190611b13565b6040516020818303038152906040528051906020012092505b508080600101915050610812565b50838114915050949350505050565b6000819050919050565b6108ce816108bb565b82525050565b60006020820190506108e960008301846108c5565b92915050565b600080fd5b600080fd5b600067ffffffffffffffff82169050919050565b610916816108f9565b811461092157600080fd5b50565b6000813590506109338161090d565b92915050565b60006020828403121561094f5761094e6108ef565b5b600061095d84828501610924565b91505092915050565b6000819050919050565b61097981610966565b82525050565b60006020820190506109946000830184610970565b92915050565b600073ffffffffffffffffffffffffffffffffffffffff82169050919050565b60006109c58261099a565b9050919050565b6109d5816109ba565b82525050565b60006020820190506109f060008301846109cc565b92915050565b600080fd5b600080fd5b600080fd5b60008083601f840112610a1b57610a1a6109f6565b5b8235905067ffffffffffffffff811115610a3857610a376109fb565b5b602083019150836020820283011115610a5457610a53610a00565b5b9250929050565b600080fd5b600060c08284031215610a7657610a75610a5b565b5b81905092915050565b600080600060408486031215610a9857610a976108ef565b5b600084013567ffffffffffffffff811115610ab657610ab56108f4565b5b610ac286828701610a05565b9350935050602084013567ffffffffffffffff811115610ae557610ae46108f4565b5b610af186828701610a60565b9150509250925092565b610b0481610966565b8114610b0f57600080fd5b50565b600081359050610b2181610afb565b92915050565b600060208284031215610b3d57610b3c6108ef565b5b6000610b4b84828501610b12565b91505092915050565b60008115159050919050565b610b6981610b54565b82525050565b6000602082019050610b846000830184610b60565b92915050565b60008060408385031215610ba157610ba06108ef565b5b6000610baf85828601610924565b9250506020610bc085828601610b12565b9150509250929050565b600080fd5b60008235600160a003833603038112610beb57610bea610bca565b5b80830191505092915050565b600082825260208201905092915050565b7f416c72656164792070726f636573736564000000000000000000000000000000600082015250565b6000610c3e601183610bf7565b9150610c4982610c08565b602082019050919050565b60006020820190508181036000830152610c6d81610c31565b9050919050565b60008235600161012003833603038112610c9157610c90610bca565b5b80830191505092915050565b600060ff82169050919050565b610cb381610c9d565b8114610cbe57600080fd5b50565b600081359050610cd081610caa565b92915050565b600060208284031215610cec57610ceb6108ef565b5b6000610cfa84828501610cc1565b91505092915050565b7f5478206e6f74207375636365737366756c000000000000000000000000000000600082015250565b6000610d39601183610bf7565b9150610d4482610d03565b602082019050919050565b60006020820190508181036000830152610d6881610d2c565b9050919050565b610d78816109ba565b8114610d8357600080fd5b50565b600081359050610d9581610d6f565b92915050565b600060208284031215610db157610db06108ef565b5b6000610dbf84828501610d86565b91505092915050565b7f57726f6e67207265636569766572000000000000000000000000000000000000600082015250565b6000610dfe600e83610bf7565b9150610e0982610dc8565b602082019050919050565b60006020820190508181036000830152610e2d81610df1565b9050919050565b7f5a65726f2076616c756500000000000000000000000000000000000000000000600082015250565b6000610e6a600a83610bf7565b9150610e7582610e34565b602082019050919050565b60006020820190508181036000830152610e9981610e5d565b9050919050565b7f526f6f74206e6f742073796e63656420666f72207468697320726f756e640000600082015250565b6000610ed6601e83610bf7565b9150610ee182610ea0565b602082019050919050565b60006020820190508181036000830152610f0581610ec9565b9050919050565b6000610f1b6020840184610b12565b905092915050565b610f2c81610966565b82525050565b6000610f416020840184610924565b905092915050565b610f52816108f9565b82525050565b600080fd5b60008235600160a003833603038112610f7957610f78610f58565b5b82810191505092915050565b600061ffff82169050919050565b610f9c81610f85565b8114610fa757600080fd5b50565b600081359050610fb981610f93565b92915050565b6000610fce6020840184610faa565b905092915050565b610fdf81610f85565b82525050565b610fee81610b54565b8114610ff957600080fd5b50565b60008135905061100b81610fe5565b92915050565b60006110206020840184610ffc565b905092915050565b61103181610b54565b82525050565b600080fd5b600080fd5b6000808335600160200384360303811261105e5761105d610f58565b5b83810192508235915060208301925067ffffffffffffffff82111561108657611085611037565b5b60208202360383131561109c5761109b61103c565b5b509250929050565b600082825260208201905092915050565b6000819050919050565b600063ffffffff82169050919050565b6110d8816110bf565b82525050565b60006110ea83836110cf565b60208301905092915050565b6110ff816110bf565b811461110a57600080fd5b50565b60008135905061111c816110f6565b92915050565b6000611131602084018461110d565b905092915050565b6000602082019050919050565b600061115283856110a4565b935061115d826110b5565b8060005b85811015611196576111738284611122565b61117d88826110de565b975061118883611139565b925050600181019050611161565b5085925050509392505050565b600060a083016111b66000840184610f0c565b6111c36000860182610f23565b506111d16020840184610fbf565b6111de6020860182610fd6565b506111ec6040840184611011565b6111f96040860182611028565b506112076060840184611011565b6112146060860182611028565b506112226080840184611041565b8583036080870152611235838284611146565b925050508091505092915050565b600082356001610120038336030381126112605761125f610f58565b5b82810191505092915050565b600061127b6020840184610d86565b905092915050565b61128c816109ba565b82525050565b61129b816108bb565b81146112a657600080fd5b50565b6000813590506112b881611292565b92915050565b60006112cd60208401846112a9565b905092915050565b6112de816108bb565b82525050565b6000808335600160200384360303811261130157611300610f58565b5b83810192508235915060208301925067ffffffffffffffff82111561132957611328611037565b5b60018202360383131561133f5761133e61103c565b5b509250929050565b600082825260208201905092915050565b82818337600083830152505050565b6000601f19601f8301169050919050565b60006113848385611347565b9350611391838584611358565b61139a83611367565b840190509392505050565b60006113b46020840184610cc1565b905092915050565b6113c581610c9d565b82525050565b600080833560016020038436030381126113e8576113e7610f58565b5b83810192508235915060208301925067ffffffffffffffff8211156114105761140f611037565b5b6020820236038313156114265761142561103c565b5b509250929050565b600082825260208201905092915050565b6000819050919050565b6000808335600160200384360303811261146657611465610f58565b5b83810192508235915060208301925067ffffffffffffffff82111561148e5761148d611037565b5b6020820236038313156114a4576114a361103c565b5b509250929050565b600082825260208201905092915050565b600080fd5b82818337505050565b60006114d783856114ac565b93507f07ffffffffffffffffffffffffffffffffffffffffffffffffffffffffffffff83111561150a576115096114bd565b5b60208302925061151b8385846114c2565b82840190509392505050565b600060a0830161153a6000840184611122565b61154760008601826110cf565b50611555602084018461126c565b6115626020860182611283565b506115706040840184611449565b85830360408701526115838382846114cb565b9250505061159460608401846112e4565b85830360608701526115a7838284611378565b925050506115b86080840184611011565b6115c56080860182611028565b508091505092915050565b60006115dc8383611527565b905092915050565b60008235600160a003833603038112611600576115ff610f58565b5b82810191505092915050565b6000602082019050919050565b6000611625838561142e565b9350836020840285016116378461143f565b8060005b8781101561167b57848403895261165282846115e4565b61165c85826115d0565b94506116678361160c565b925060208a0199505060018101905061163b565b50829750879450505050509392505050565b600061012083016116a16000840184610f32565b6116ae6000860182610f49565b506116bc6020840184610f32565b6116c96020860182610f49565b506116d7604084018461126c565b6116e46040860182611283565b506116f26060840184611011565b6116ff6060860182611028565b5061170d608084018461126c565b61171a6080860182611283565b5061172860a08401846112be565b61173560a08601826112d5565b5061174360c08401846112e4565b85830360c0870152611756838284611378565b9250505061176760e08401846113a5565b61177460e08601826113bc565b506117836101008401846113cb565b858303610100870152611797838284611619565b925050508091505092915050565b600060c083016117b86000840184610f0c565b6117c56000860182610f23565b506117d36020840184610f0c565b6117e06020860182610f23565b506117ee6040840184610f32565b6117fb6040860182610f49565b506118096060840184610f32565b6118166060860182610f49565b506118246080840184610f5d565b848203608086015261183682826111a3565b91505061184660a0840184611243565b84820360a0860152611858828261168d565b9150508091505092915050565b6000602082019050818103600083015261187f81846117a5565b905092915050565b7f496e76616c6964204d65726b6c652070726f6f66000000000000000000000000600082015250565b60006118bd601483610bf7565b91506118c882611887565b602082019050919050565b600060208201905081810360008301526118ec816118b0565b9050919050565b7f4e487b7100000000000000000000000000000000000000000000000000000000600052601160045260246000fd5b600061192d826108bb565b9150611938836108bb565b92508282019050808211156119505761194f6118f3565b5b92915050565b600060408201905061196b60008301856108c5565b6119786020830184610970565b9392505050565b7f556e617574686f72697a65640000000000000000000000000000000000000000600082015250565b60006119b5600c83610bf7565b91506119c08261197f565b602082019050919050565b600060208201905081810360008301526119e4816119a8565b9050919050565b7f526f6f7420616c72656164792073657400000000000000000000000000000000600082015250565b6000611a21601083610bf7565b9150611a2c826119eb565b602082019050919050565b60006020820190508181036000830152611a5081611a14565b9050919050565b7f5a65726f20726f6f740000000000000000000000000000000000000000000000600082015250565b6000611a8d600983610bf7565b9150611a9882611a57565b602082019050919050565b60006020820190508181036000830152611abc81611a80565b9050919050565b7f4e487b7100000000000000000000000000000000000000000000000000000000600052603260045260246000fd5b6000819050919050565b611b0d611b0882610966565b611af2565b82525050565b6000611b1f8285611afc565b602082019150611b2f8284611afc565b602082019150819050939250505056fea26469706673582212200ca3ec1c745298401337108a13cdcbdc3a7f3c55ad82ddbb2bf278b6f96bcfee64736f6c63430008180033","opcodes":"PUSH1 0xC0 PUSH1 0x40 MSTORE CALLVALUE DUP1 ISZERO PUSH3 0x11 JUMPI PUSH1 0x0 DUP1 REVERT JUMPDEST POP PUSH1 0x40 MLOAD PUSH3 0x1EDA CODESIZE SUB DUP1 PUSH3 0x1EDA DUP4 CODECOPY DUP2 DUP2 ADD PUSH1 0x40 MSTORE DUP2 ADD SWAP1 PUSH3 0x37 SWAP2 SWAP1 PUSH3 0x1F5 JUMP JUMPDEST PUSH1 0x0 PUSH20 0xFFFFFFFFFFFFFFFFFFFFFFFFFFFFFFFFFFFFFFFF AND DUP3 PUSH20 0xFFFFFFFFFFFFFFFFFFFFFFFFFFFFFFFFFFFFFFFF AND SUB PUSH3 0xA9 JUMPI PUSH1 0x40 MLOAD PUSH32 0x8C379A000000000000000000000000000000000000000000000000000000000 DUP2 MSTORE PUSH1 0x4 ADD PUSH3 0xA0 SWAP1 PUSH3 0x29D JUMP JUMPDEST PUSH1 0x40 MLOAD DUP1 SWAP2 SUB SWAP1 REVERT JUMPDEST PUSH1 0x0 PUSH20 0xFFFFFFFFFFFFFFFFFFFFFFFFFFFFFFFFFFFFFFFF AND DUP2 PUSH20 0xFFFFFFFFFFFFFFFFFFFFFFFFFFFFFFFFFFFFFFFF AND SUB PUSH3 0x11B JUMPI PUSH1 0x40 MLOAD PUSH32 0x8C379A000000000000000000000000000000000000000000000000000000000 DUP2 MSTORE PUSH1 0x4 ADD PUSH3 0x112 SWAP1 PUSH3 0x30F JUMP JUMPDEST PUSH1 0x40 MLOAD DUP1 SWAP2 SUB SWAP1 REVERT JUMPDEST DUP2 PUSH20 0xFFFFFFFFFFFFFFFFFFFFFFFFFFFFFFFFFFFFFFFF AND PUSH1 0x80 DUP2 PUSH20 0xFFFFFFFFFFFFFFFFFFFFFFFFFFFFFFFFFFFFFFFF AND DUP2 MSTORE POP POP DUP1 PUSH20 0xFFFFFFFFFFFFFFFFFFFFFFFFFFFFFFFFFFFFFFFF AND PUSH1 0xA0 DUP2 PUSH20 0xFFFFFFFFFFFFFFFFFFFFFFFFFFFFFFFFFFFFFFFF AND DUP2 MSTORE POP POP POP POP PUSH3 0x331 JUMP JUMPDEST PUSH1 0x0 DUP1 REVERT JUMPDEST PUSH1 0x0 PUSH20 0xFFFFFFFFFFFFFFFFFFFFFFFFFFFFFFFFFFFFFFFF DUP3 AND SWAP1 POP SWAP2 SWAP1 POP JUMP JUMPDEST PUSH1 0x0 PUSH3 0x1BD DUP3 PUSH3 0x190 JUMP JUMPDEST SWAP1 POP SWAP2 SWAP1 POP JUMP JUMPDEST PUSH3 0x1CF DUP2 PUSH3 0x1B0 JUMP JUMPDEST DUP2 EQ PUSH3 0x1DB JUMPI PUSH1 0x0 DUP1 REVERT JUMPDEST POP JUMP JUMPDEST PUSH1 0x0 DUP2 MLOAD SWAP1 POP PUSH3 0x1EF DUP2 PUSH3 0x1C4 JUMP JUMPDEST SWAP3 SWAP2 POP POP JUMP JUMPDEST PUSH1 0x0 DUP1 PUSH1 0x40 DUP4 DUP6 SUB SLT ISZERO PUSH3 0x20F JUMPI PUSH3 0x20E PUSH3 0x18B JUMP JUMPDEST JUMPDEST PUSH1 0x0 PUSH3 0x21F DUP6 DUP3 DUP7 ADD PUSH3 0x1DE JUMP JUMPDEST SWAP3 POP POP PUSH1 0x20 PUSH3 0x232 DUP6 DUP3 DUP7 ADD PUSH3 0x1DE JUMP JUMPDEST SWAP2 POP POP SWAP3 POP SWAP3 SWAP1 POP JUMP JUMPDEST PUSH1 0x0 DUP3 DUP3 MSTORE PUSH1 0x20 DUP3 ADD SWAP1 POP SWAP3 SWAP2 POP POP JUMP JUMPDEST PUSH32 0x5A65726F2072656C617965720000000000000000000000000000000000000000 PUSH1 0x0 DUP3 ADD MSTORE POP JUMP JUMPDEST PUSH1 0x0 PUSH3 0x285 PUSH1 0xC DUP4 PUSH3 0x23C JUMP JUMPDEST SWAP2 POP PUSH3 0x292 DUP3 PUSH3 0x24D JUMP JUMPDEST PUSH1 0x20 DUP3 ADD SWAP1 POP SWAP2 SWAP1 POP JUMP JUMPDEST PUSH1 0x0 PUSH1 0x20 DUP3 ADD SWAP1 POP DUP2 DUP2 SUB PUSH1 0x0 DUP4 ADD MSTORE PUSH3 0x2B8 DUP2 PUSH3 0x276 JUMP JUMPDEST SWAP1 POP SWAP2 SWAP1 POP JUMP JUMPDEST PUSH32 0x5A65726F206465706F7369742061646472000000000000000000000000000000 PUSH1 0x0 DUP3 ADD MSTORE POP JUMP JUMPDEST PUSH1 0x0 PUSH3 0x2F7 PUSH1 0x11 DUP4 PUSH3 0x23C JUMP JUMPDEST SWAP2 POP PUSH3 0x304 DUP3 PUSH3 0x2BF JUMP JUMPDEST PUSH1 0x20 DUP3 ADD SWAP1 POP SWAP2 SWAP1 POP JUMP JUMPDEST PUSH1 0x0 PUSH1 0x20 DUP3 ADD SWAP1 POP DUP2 DUP2 SUB PUSH1 0x0 DUP4 ADD MSTORE PUSH3 0x32A DUP2 PUSH3 0x2E8 JUMP JUMPDEST SWAP1 POP SWAP2 SWAP1 POP JUMP JUMPDEST PUSH1 0x80 MLOAD PUSH1 0xA0 MLOAD PUSH2 0x1B75 PUSH3 0x365 PUSH1 0x0 CODECOPY PUSH1 0x0 DUP2 DUP2 PUSH2 0x1D5 ADD MSTORE PUSH2 0x2D9 ADD MSTORE PUSH1 0x0 DUP2 DUP2 PUSH2 0x638 ADD MSTORE PUSH2 0x7E7 ADD MSTORE PUSH2 0x1B75 PUSH1 0x0 RETURN INVALID PUSH1 0x80 PUSH1 0x40 MSTORE CALLVALUE DUP1 ISZERO PUSH2 0x10 JUMPI PUSH1 0x0 DUP1 REVERT JUMPDEST POP PUSH1 0x4 CALLDATASIZE LT PUSH2 0x7D JUMPI PUSH1 0x0 CALLDATALOAD PUSH1 0xE0 SHR DUP1 PUSH4 0x6EDC2393 GT PUSH2 0x5B JUMPI DUP1 PUSH4 0x6EDC2393 EQ PUSH2 0xEE JUMPI DUP1 PUSH4 0xC1F0808A EQ PUSH2 0x10A JUMPI DUP1 PUSH4 0xD29E88D2 EQ PUSH2 0x13A JUMPI DUP1 PUSH4 0xD3894F7E EQ PUSH2 0x156 JUMPI PUSH2 0x7D JUMP JUMPDEST DUP1 PUSH4 0x12065FE0 EQ PUSH2 0x82 JUMPI DUP1 PUSH4 0x1E3F0320 EQ PUSH2 0xA0 JUMPI DUP1 PUSH4 0x28F833B7 EQ PUSH2 0xD0 JUMPI JUMPDEST PUSH1 0x0 DUP1 REVERT JUMPDEST PUSH2 0x8A PUSH2 0x174 JUMP JUMPDEST PUSH1 0x40 MLOAD PUSH2 0x97 SWAP2 SWAP1 PUSH2 0x8D4 JUMP JUMPDEST PUSH1 0x40 MLOAD DUP1 SWAP2 SUB SWAP1 RETURN JUMPDEST PUSH2 0xBA PUSH1 0x4 DUP1 CALLDATASIZE SUB DUP2 ADD SWAP1 PUSH2 0xB5 SWAP2 SWAP1 PUSH2 0x939 JUMP JUMPDEST PUSH2 0x1BB JUMP JUMPDEST PUSH1 0x40 MLOAD PUSH2 0xC7 SWAP2 SWAP1 PUSH2 0x97F JUMP JUMPDEST PUSH1 0x40 MLOAD DUP1 SWAP2 SUB SWAP1 RETURN JUMPDEST PUSH2 0xD8 PUSH2 0x1D3 JUMP JUMPDEST PUSH1 0x40 MLOAD PUSH2 0xE5 SWAP2 SWAP1 PUSH2 0x9DB JUMP JUMPDEST PUSH1 0x40 MLOAD DUP1 SWAP2 SUB SWAP1 RETURN JUMPDEST PUSH2 0x108 PUSH1 0x4 DUP1 CALLDATASIZE SUB DUP2 ADD SWAP1 PUSH2 0x103 SWAP2 SWAP1 PUSH2 0xA7F JUMP JUMPDEST PUSH2 0x1F7 JUMP JUMPDEST STOP JUMPDEST PUSH2 0x124 PUSH1 0x4 DUP1 CALLDATASIZE SUB DUP2 ADD SWAP1 PUSH2 0x11F SWAP2 SWAP1 PUSH2 0xB27 JUMP JUMPDEST PUSH2 0x616 JUMP JUMPDEST PUSH1 0x40 MLOAD PUSH2 0x131 SWAP2 SWAP1 PUSH2 0xB6F JUMP JUMPDEST PUSH1 0x40 MLOAD DUP1 SWAP2 SUB SWAP1 RETURN JUMPDEST PUSH2 0x154 PUSH1 0x4 DUP1 CALLDATASIZE SUB DUP2 ADD SWAP1 PUSH2 0x14F SWAP2 SWAP1 PUSH2 0xB8A JUMP JUMPDEST PUSH2 0x636 JUMP JUMPDEST STOP JUMPDEST PUSH2 0x15E PUSH2 0x7E5 JUMP JUMPDEST PUSH1 0x40 MLOAD PUSH2 0x16B SWAP2 SWAP1 PUSH2 0x9DB JUMP JUMPDEST PUSH1 0x40 MLOAD DUP1 SWAP2 SUB SWAP1 RETURN JUMPDEST PUSH1 0x0 PUSH1 0x1 PUSH1 0x0 CALLER PUSH20 0xFFFFFFFFFFFFFFFFFFFFFFFFFFFFFFFFFFFFFFFF AND PUSH20 0xFFFFFFFFFFFFFFFFFFFFFFFFFFFFFFFFFFFFFFFF AND DUP2 MSTORE PUSH1 0x20 ADD SWAP1 DUP2 MSTORE PUSH1 0x20 ADD PUSH1 0x0 KECCAK256 SLOAD SWAP1 POP SWAP1 JUMP JUMPDEST PUSH1 0x0 PUSH1 0x20 MSTORE DUP1 PUSH1 0x0 MSTORE PUSH1 0x40 PUSH1 0x0 KECCAK256 PUSH1 0x0 SWAP2 POP SWAP1 POP SLOAD DUP2 JUMP JUMPDEST PUSH32 0x0 DUP2 JUMP JUMPDEST PUSH1 0x0 DUP2 DUP1 PUSH1 0x80 ADD SWAP1 PUSH2 0x209 SWAP2 SWAP1 PUSH2 0xBCF JUMP JUMPDEST PUSH1 0x0 ADD CALLDATALOAD SWAP1 POP PUSH1 0x2 PUSH1 0x0 DUP3 DUP2 MSTORE PUSH1 0x20 ADD SWAP1 DUP2 MSTORE PUSH1 0x20 ADD PUSH1 0x0 KECCAK256 PUSH1 0x0 SWAP1 SLOAD SWAP1 PUSH2 0x100 EXP SWAP1 DIV PUSH1 0xFF AND ISZERO PUSH2 0x270 JUMPI PUSH1 0x40 MLOAD PUSH32 0x8C379A000000000000000000000000000000000000000000000000000000000 DUP2 MSTORE PUSH1 0x4 ADD PUSH2 0x267 SWAP1 PUSH2 0xC54 JUMP JUMPDEST PUSH1 0x40 MLOAD DUP1 SWAP2 SUB SWAP1 REVERT JUMPDEST PUSH1 0x1 DUP3 DUP1 PUSH1 0xA0 ADD SWAP1 PUSH2 0x282 SWAP2 SWAP1 PUSH2 0xC74 JUMP JUMPDEST PUSH1 0xE0 ADD PUSH1 0x20 DUP2 ADD SWAP1 PUSH2 0x294 SWAP2 SWAP1 PUSH2 0xCD6 JUMP JUMPDEST PUSH1 0xFF AND EQ PUSH2 0x2D7 JUMPI PUSH1 0x40 MLOAD PUSH32 0x8C379A000000000000000000000000000000000000000000000000000000000 DUP2 MSTORE PUSH1 0x4 ADD PUSH2 0x2CE SWAP1 PUSH2 0xD4F JUMP JUMPDEST PUSH1 0x40 MLOAD DUP1 SWAP2 SUB SWAP1 REVERT JUMPDEST PUSH32 0x0 PUSH20 0xFFFFFFFFFFFFFFFFFFFFFFFFFFFFFFFFFFFFFFFF AND DUP3 DUP1 PUSH1 0xA0 ADD SWAP1 PUSH2 0x31E SWAP2 SWAP1 PUSH2 0xC74 JUMP JUMPDEST PUSH1 0x80 ADD PUSH1 0x20 DUP2 ADD SWAP1 PUSH2 0x330 SWAP2 SWAP1 PUSH2 0xD9B JUMP JUMPDEST PUSH20 0xFFFFFFFFFFFFFFFFFFFFFFFFFFFFFFFFFFFFFFFF AND EQ PUSH2 0x386 JUMPI PUSH1 0x40 MLOAD PUSH32 0x8C379A000000000000000000000000000000000000000000000000000000000 DUP2 MSTORE PUSH1 0x4 ADD PUSH2 0x37D SWAP1 PUSH2 0xE14 JUMP JUMPDEST PUSH1 0x40 MLOAD DUP1 SWAP2 SUB SWAP1 REVERT JUMPDEST PUSH1 0x0 DUP3 DUP1 PUSH1 0xA0 ADD SWAP1 PUSH2 0x398 SWAP2 SWAP1 PUSH2 0xC74 JUMP JUMPDEST PUSH1 0xA0 ADD CALLDATALOAD GT PUSH2 0x3DC JUMPI PUSH1 0x40 MLOAD PUSH32 0x8C379A000000000000000000000000000000000000000000000000000000000 DUP2 MSTORE PUSH1 0x4 ADD PUSH2 0x3D3 SWAP1 PUSH2 0xE80 JUMP JUMPDEST PUSH1 0x40 MLOAD DUP1 SWAP2 SUB SWAP1 REVERT JUMPDEST PUSH1 0x0 DUP1 PUSH1 0x0 DUP5 PUSH1 0x40 ADD PUSH1 0x20 DUP2 ADD SWAP1 PUSH2 0x3F4 SWAP2 SWAP1 PUSH2 0x939 JUMP JUMPDEST PUSH8 0xFFFFFFFFFFFFFFFF AND PUSH8 0xFFFFFFFFFFFFFFFF AND DUP2 MSTORE PUSH1 0x20 ADD SWAP1 DUP2 MSTORE PUSH1 0x20 ADD PUSH1 0x0 KECCAK256 SLOAD SWAP1 POP PUSH1 0x0 DUP1 SHL DUP2 SUB PUSH2 0x45E JUMPI PUSH1 0x40 MLOAD PUSH32 0x8C379A000000000000000000000000000000000000000000000000000000000 DUP2 MSTORE PUSH1 0x4 ADD PUSH2 0x455 SWAP1 PUSH2 0xEEC JUMP JUMPDEST PUSH1 0x40 MLOAD DUP1 SWAP2 SUB SWAP1 REVERT JUMPDEST PUSH1 0x0 DUP4 PUSH1 0x40 MLOAD PUSH1 0x20 ADD PUSH2 0x471 SWAP2 SWAP1 PUSH2 0x1865 JUMP JUMPDEST PUSH1 0x40 MLOAD PUSH1 0x20 DUP2 DUP4 SUB SUB DUP2 MSTORE SWAP1 PUSH1 0x40 MSTORE DUP1 MLOAD SWAP1 PUSH1 0x20 ADD KECCAK256 SWAP1 POP PUSH2 0x495 DUP7 DUP7 DUP5 DUP5 PUSH2 0x809 JUMP JUMPDEST PUSH2 0x4D4 JUMPI PUSH1 0x40 MLOAD PUSH32 0x8C379A000000000000000000000000000000000000000000000000000000000 DUP2 MSTORE PUSH1 0x4 ADD PUSH2 0x4CB SWAP1 PUSH2 0x18D3 JUMP JUMPDEST PUSH1 0x40 MLOAD DUP1 SWAP2 SUB SWAP1 REVERT JUMPDEST PUSH1 0x1 PUSH1 0x2 PUSH1 0x0 DUP6 DUP2 MSTORE PUSH1 0x20 ADD SWAP1 DUP2 MSTORE PUSH1 0x20 ADD PUSH1 0x0 KECCAK256 PUSH1 0x0 PUSH2 0x100 EXP DUP2 SLOAD DUP2 PUSH1 0xFF MUL NOT AND SWAP1 DUP4 ISZERO ISZERO MUL OR SWAP1 SSTORE POP DUP4 DUP1 PUSH1 0xA0 ADD SWAP1 PUSH2 0x510 SWAP2 SWAP1 PUSH2 0xC74 JUMP JUMPDEST PUSH1 0xA0 ADD CALLDATALOAD PUSH1 0x1 PUSH1 0x0 DUP7 DUP1 PUSH1 0xA0 ADD SWAP1 PUSH2 0x528 SWAP2 SWAP1 PUSH2 0xC74 JUMP JUMPDEST PUSH1 0x40 ADD PUSH1 0x20 DUP2 ADD SWAP1 PUSH2 0x53A SWAP2 SWAP1 PUSH2 0xD9B JUMP JUMPDEST PUSH20 0xFFFFFFFFFFFFFFFFFFFFFFFFFFFFFFFFFFFFFFFF AND PUSH20 0xFFFFFFFFFFFFFFFFFFFFFFFFFFFFFFFFFFFFFFFF AND DUP2 MSTORE PUSH1 0x20 ADD SWAP1 DUP2 MSTORE PUSH1 0x20 ADD PUSH1 0x0 KECCAK256 PUSH1 0x0 DUP3 DUP3 SLOAD PUSH2 0x583 SWAP2 SWAP1 PUSH2 0x1922 JUMP JUMPDEST SWAP3 POP POP DUP2 SWAP1 SSTORE POP DUP4 DUP1 PUSH1 0xA0 ADD SWAP1 PUSH2 0x59A SWAP2 SWAP1 PUSH2 0xC74 JUMP JUMPDEST PUSH1 0x40 ADD PUSH1 0x20 DUP2 ADD SWAP1 PUSH2 0x5AC SWAP2 SWAP1 PUSH2 0xD9B JUMP JUMPDEST PUSH20 0xFFFFFFFFFFFFFFFFFFFFFFFFFFFFFFFFFFFFFFFF AND PUSH32 0x1A688E52F070BF096D28D8DAFC3394175EBD19B031C2BB0263CC75FD324F90F1 DUP6 DUP1 PUSH1 0xA0 ADD SWAP1 PUSH2 0x5F3 SWAP2 SWAP1 PUSH2 0xC74 JUMP JUMPDEST PUSH1 0xA0 ADD CALLDATALOAD DUP6 PUSH1 0x40 MLOAD PUSH2 0x606 SWAP3 SWAP2 SWAP1 PUSH2 0x1956 JUMP JUMPDEST PUSH1 0x40 MLOAD DUP1 SWAP2 SUB SWAP1 LOG2 POP POP POP POP POP POP JUMP JUMPDEST PUSH1 0x2 PUSH1 0x20 MSTORE DUP1 PUSH1 0x0 MSTORE PUSH1 0x40 PUSH1 0x0 KECCAK256 PUSH1 0x0 SWAP2 POP SLOAD SWAP1 PUSH2 0x100 EXP SWAP1 DIV PUSH1 0xFF AND DUP2 JUMP JUMPDEST PUSH32 0x0 PUSH20 0xFFFFFFFFFFFFFFFFFFFFFFFFFFFFFFFFFFFFFFFF AND CALLER PUSH20 0xFFFFFFFFFFFFFFFFFFFFFFFFFFFFFFFFFFFFFFFF AND EQ PUSH2 0x6C4 JUMPI PUSH1 0x40 MLOAD PUSH32 0x8C379A000000000000000000000000000000000000000000000000000000000 DUP2 MSTORE PUSH1 0x4 ADD PUSH2 0x6BB SWAP1 PUSH2 0x19CB JUMP JUMPDEST PUSH1 0x40 MLOAD DUP1 SWAP2 SUB SWAP1 REVERT JUMPDEST PUSH1 0x0 DUP1 SHL PUSH1 0x0 DUP1 DUP5 PUSH8 0xFFFFFFFFFFFFFFFF AND PUSH8 0xFFFFFFFFFFFFFFFF AND DUP2 MSTORE PUSH1 0x20 ADD SWAP1 DUP2 MSTORE PUSH1 0x20 ADD PUSH1 0x0 KECCAK256 SLOAD EQ PUSH2 0x72F JUMPI PUSH1 0x40 MLOAD PUSH32 0x8C379A000000000000000000000000000000000000000000000000000000000 DUP2 MSTORE PUSH1 0x4 ADD PUSH2 0x726 SWAP1 PUSH2 0x1A37 JUMP JUMPDEST PUSH1 0x40 MLOAD DUP1 SWAP2 SUB SWAP1 REVERT JUMPDEST PUSH1 0x0 DUP1 SHL DUP2 SUB PUSH2 0x774 JUMPI PUSH1 0x40 MLOAD PUSH32 0x8C379A000000000000000000000000000000000000000000000000000000000 DUP2 MSTORE PUSH1 0x4 ADD PUSH2 0x76B SWAP1 PUSH2 0x1AA3 JUMP JUMPDEST PUSH1 0x40 MLOAD DUP1 SWAP2 SUB SWAP1 REVERT JUMPDEST DUP1 PUSH1 0x0 DUP1 DUP5 PUSH8 0xFFFFFFFFFFFFFFFF AND PUSH8 0xFFFFFFFFFFFFFFFF AND DUP2 MSTORE PUSH1 0x20 ADD SWAP1 DUP2 MSTORE PUSH1 0x20 ADD PUSH1 0x0 KECCAK256 DUP2 SWAP1 SSTORE POP DUP2 PUSH8 0xFFFFFFFFFFFFFFFF AND PUSH32 0xA0FB0D10EF4173852EB78FDB26BB50C4B6252E1DC9B179E3230DD0810979EFDF DUP3 PUSH1 0x40 MLOAD PUSH2 0x7D9 SWAP2 SWAP1 PUSH2 0x97F JUMP JUMPDEST PUSH1 0x40 MLOAD DUP1 SWAP2 SUB SWAP1 LOG2 POP POP JUMP JUMPDEST PUSH32 0x0 DUP2 JUMP JUMPDEST PUSH1 0x0 DUP1 DUP3 SWAP1 POP PUSH1 0x0 JUMPDEST DUP7 DUP7 SWAP1 POP DUP2 LT ISZERO PUSH2 0x8AC JUMPI PUSH1 0x0 DUP8 DUP8 DUP4 DUP2 DUP2 LT PUSH2 0x832 JUMPI PUSH2 0x831 PUSH2 0x1AC3 JUMP JUMPDEST JUMPDEST SWAP1 POP PUSH1 0x20 MUL ADD CALLDATALOAD SWAP1 POP DUP1 DUP4 GT PUSH2 0x872 JUMPI DUP3 DUP2 PUSH1 0x40 MLOAD PUSH1 0x20 ADD PUSH2 0x855 SWAP3 SWAP2 SWAP1 PUSH2 0x1B13 JUMP JUMPDEST PUSH1 0x40 MLOAD PUSH1 0x20 DUP2 DUP4 SUB SUB DUP2 MSTORE SWAP1 PUSH1 0x40 MSTORE DUP1 MLOAD SWAP1 PUSH1 0x20 ADD KECCAK256 SWAP3 POP PUSH2 0x89E JUMP JUMPDEST DUP1 DUP4 PUSH1 0x40 MLOAD PUSH1 0x20 ADD PUSH2 0x885 SWAP3 SWAP2 SWAP1 PUSH2 0x1B13 JUMP JUMPDEST PUSH1 0x40 MLOAD PUSH1 0x20 DUP2 DUP4 SUB SUB DUP2 MSTORE SWAP1 PUSH1 0x40 MSTORE DUP1 MLOAD SWAP1 PUSH1 0x20 ADD KECCAK256 SWAP3 POP JUMPDEST POP DUP1 DUP1 PUSH1 0x1 ADD SWAP2 POP POP PUSH2 0x812 JUMP JUMPDEST POP DUP4 DUP2 EQ SWAP2 POP POP SWAP5 SWAP4 POP POP POP POP JUMP JUMPDEST PUSH1 0x0 DUP2 SWAP1 POP SWAP2 SWAP1 POP JUMP JUMPDEST PUSH2 0x8CE DUP2 PUSH2 0x8BB JUMP JUMPDEST DUP3 MSTORE POP POP JUMP JUMPDEST PUSH1 0x0 PUSH1 0x20 DUP3 ADD SWAP1 POP PUSH2 0x8E9 PUSH1 0x0 DUP4 ADD DUP5 PUSH2 0x8C5 JUMP JUMPDEST SWAP3 SWAP2 POP POP JUMP JUMPDEST PUSH1 0x0 DUP1 REVERT JUMPDEST PUSH1 0x0 DUP1 REVERT JUMPDEST PUSH1 0x0 PUSH8 0xFFFFFFFFFFFFFFFF DUP3 AND SWAP1 POP SWAP2 SWAP1 POP JUMP JUMPDEST PUSH2 0x916 DUP2 PUSH2 0x8F9 JUMP JUMPDEST DUP2 EQ PUSH2 0x921 JUMPI PUSH1 0x0 DUP1 REVERT JUMPDEST POP JUMP JUMPDEST PUSH1 0x0 DUP2 CALLDATALOAD SWAP1 POP PUSH2 0x933 DUP2 PUSH2 0x90D JUMP JUMPDEST SWAP3 SWAP2 POP POP JUMP JUMPDEST PUSH1 0x0 PUSH1 0x20 DUP3 DUP5 SUB SLT ISZERO PUSH2 0x94F JUMPI PUSH2 0x94E PUSH2 0x8EF JUMP JUMPDEST JUMPDEST PUSH1 0x0 PUSH2 0x95D DUP5 DUP3 DUP6 ADD PUSH2 0x924 JUMP JUMPDEST SWAP2 POP POP SWAP3 SWAP2 POP POP JUMP JUMPDEST PUSH1 0x0 DUP2 SWAP1 POP SWAP2 SWAP1 POP JUMP JUMPDEST PUSH2 0x979 DUP2 PUSH2 0x966 JUMP JUMPDEST DUP3 MSTORE POP POP JUMP JUMPDEST PUSH1 0x0 PUSH1 0x20 DUP3 ADD SWAP1 POP PUSH2 0x994 PUSH1 0x0 DUP4 ADD DUP5 PUSH2 0x970 JUMP JUMPDEST SWAP3 SWAP2 POP POP JUMP JUMPDEST PUSH1 0x0 PUSH20 0xFFFFFFFFFFFFFFFFFFFFFFFFFFFFFFFFFFFFFFFF DUP3 AND SWAP1 POP SWAP2 SWAP1 POP JUMP JUMPDEST PUSH1 0x0 PUSH2 0x9C5 DUP3 PUSH2 0x99A JUMP JUMPDEST SWAP1 POP SWAP2 SWAP1 POP JUMP JUMPDEST PUSH2 0x9D5 DUP2 PUSH2 0x9BA JUMP JUMPDEST DUP3 MSTORE POP POP JUMP JUMPDEST PUSH1 0x0 PUSH1 0x20 DUP3 ADD SWAP1 POP PUSH2 0x9F0 PUSH1 0x0 DUP4 ADD DUP5 PUSH2 0x9CC JUMP JUMPDEST SWAP3 SWAP2 POP POP JUMP JUMPDEST PUSH1 0x0 DUP1 REVERT JUMPDEST PUSH1 0x0 DUP1 REVERT JUMPDEST PUSH1 0x0 DUP1 REVERT JUMPDEST PUSH1 0x0 DUP1 DUP4 PUSH1 0x1F DUP5 ADD SLT PUSH2 0xA1B JUMPI PUSH2 0xA1A PUSH2 0x9F6 JUMP JUMPDEST JUMPDEST DUP3 CALLDATALOAD SWAP1 POP PUSH8 0xFFFFFFFFFFFFFFFF DUP2 GT ISZERO PUSH2 0xA38 JUMPI PUSH2 0xA37 PUSH2 0x9FB JUMP JUMPDEST JUMPDEST PUSH1 0x20 DUP4 ADD SWAP2 POP DUP4 PUSH1 0x20 DUP3 MUL DUP4 ADD GT ISZERO PUSH2 0xA54 JUMPI PUSH2 0xA53 PUSH2 0xA00 JUMP JUMPDEST JUMPDEST SWAP3 POP SWAP3 SWAP1 POP JUMP JUMPDEST PUSH1 0x0 DUP1 REVERT JUMPDEST PUSH1 0x0 PUSH1 0xC0 DUP3 DUP5 SUB SLT ISZERO PUSH2 0xA76 JUMPI PUSH2 0xA75 PUSH2 0xA5B JUMP JUMPDEST JUMPDEST DUP2 SWAP1 POP SWAP3 SWAP2 POP POP JUMP JUMPDEST PUSH1 0x0 DUP1 PUSH1 0x0 PUSH1 0x40 DUP5 DUP7 SUB SLT ISZERO PUSH2 0xA98 JUMPI PUSH2 0xA97 PUSH2 0x8EF JUMP JUMPDEST JUMPDEST PUSH1 0x0 DUP5 ADD CALLDATALOAD PUSH8 0xFFFFFFFFFFFFFFFF DUP2 GT ISZERO PUSH2 0xAB6 JUMPI PUSH2 0xAB5 PUSH2 0x8F4 JUMP JUMPDEST JUMPDEST PUSH2 0xAC2 DUP7 DUP3 DUP8 ADD PUSH2 0xA05 JUMP JUMPDEST SWAP4 POP SWAP4 POP POP PUSH1 0x20 DUP5 ADD CALLDATALOAD PUSH8 0xFFFFFFFFFFFFFFFF DUP2 GT ISZERO PUSH2 0xAE5 JUMPI PUSH2 0xAE4 PUSH2 0x8F4 JUMP JUMPDEST JUMPDEST PUSH2 0xAF1 DUP7 DUP3 DUP8 ADD PUSH2 0xA60 JUMP JUMPDEST SWAP2 POP POP SWAP3 POP SWAP3 POP SWAP3 JUMP JUMPDEST PUSH2 0xB04 DUP2 PUSH2 0x966 JUMP JUMPDEST DUP2 EQ PUSH2 0xB0F JUMPI PUSH1 0x0 DUP1 REVERT JUMPDEST POP JUMP JUMPDEST PUSH1 0x0 DUP2 CALLDATALOAD SWAP1 POP PUSH2 0xB21 DUP2 PUSH2 0xAFB JUMP JUMPDEST SWAP3 SWAP2 POP POP JUMP JUMPDEST PUSH1 0x0 PUSH1 0x20 DUP3 DUP5 SUB SLT ISZERO PUSH2 0xB3D JUMPI PUSH2 0xB3C PUSH2 0x8EF JUMP JUMPDEST JUMPDEST PUSH1 0x0 PUSH2 0xB4B DUP5 DUP3 DUP6 ADD PUSH2 0xB12 JUMP JUMPDEST SWAP2 POP POP SWAP3 SWAP2 POP POP JUMP JUMPDEST PUSH1 0x0 DUP2 ISZERO ISZERO SWAP1 POP SWAP2 SWAP1 POP JUMP JUMPDEST PUSH2 0xB69 DUP2 PUSH2 0xB54 JUMP JUMPDEST DUP3 MSTORE POP POP JUMP JUMPDEST PUSH1 0x0 PUSH1 0x20 DUP3 ADD SWAP1 POP PUSH2 0xB84 PUSH1 0x0 DUP4 ADD DUP5 PUSH2 0xB60 JUMP JUMPDEST SWAP3 SWAP2 POP POP JUMP JUMPDEST PUSH1 0x0 DUP1 PUSH1 0x40 DUP4 DUP6 SUB SLT ISZERO PUSH2 0xBA1 JUMPI PUSH2 0xBA0 PUSH2 0x8EF JUMP JUMPDEST JUMPDEST PUSH1 0x0 PUSH2 0xBAF DUP6 DUP3 DUP7 ADD PUSH2 0x924 JUMP JUMPDEST SWAP3 POP POP PUSH1 0x20 PUSH2 0xBC0 DUP6 DUP3 DUP7 ADD PUSH2 0xB12 JUMP JUMPDEST SWAP2 POP POP SWAP3 POP SWAP3 SWAP1 POP JUMP JUMPDEST PUSH1 0x0 DUP1 REVERT JUMPDEST PUSH1 0x0 DUP3 CALLDATALOAD PUSH1 0x1 PUSH1 0xA0 SUB DUP4 CALLDATASIZE SUB SUB DUP2 SLT PUSH2 0xBEB JUMPI PUSH2 0xBEA PUSH2 0xBCA JUMP JUMPDEST JUMPDEST DUP1 DUP4 ADD SWAP2 POP POP SWAP3 SWAP2 POP POP JUMP JUMPDEST PUSH1 0x0 DUP3 DUP3 MSTORE PUSH1 0x20 DUP3 ADD SWAP1 POP SWAP3 SWAP2 POP POP JUMP JUMPDEST PUSH32 0x416C72656164792070726F636573736564000000000000000000000000000000 PUSH1 0x0 DUP3 ADD MSTORE POP JUMP JUMPDEST PUSH1 0x0 PUSH2 0xC3E PUSH1 0x11 DUP4 PUSH2 0xBF7 JUMP JUMPDEST SWAP2 POP PUSH2 0xC49 DUP3 PUSH2 0xC08 JUMP JUMPDEST PUSH1 0x20 DUP3 ADD SWAP1 POP SWAP2 SWAP1 POP JUMP JUMPDEST PUSH1 0x0 PUSH1 0x20 DUP3 ADD SWAP1 POP DUP2 DUP2 SUB PUSH1 0x0 DUP4 ADD MSTORE PUSH2 0xC6D DUP2 PUSH2 0xC31 JUMP JUMPDEST SWAP1 POP SWAP2 SWAP1 POP JUMP JUMPDEST PUSH1 0x0 DUP3 CALLDATALOAD PUSH1 0x1 PUSH2 0x120 SUB DUP4 CALLDATASIZE SUB SUB DUP2 SLT PUSH2 0xC91 JUMPI PUSH2 0xC90 PUSH2 0xBCA JUMP JUMPDEST JUMPDEST DUP1 DUP4 ADD SWAP2 POP POP SWAP3 SWAP2 POP POP JUMP JUMPDEST PUSH1 0x0 PUSH1 0xFF DUP3 AND SWAP1 POP SWAP2 SWAP1 POP JUMP JUMPDEST PUSH2 0xCB3 DUP2 PUSH2 0xC9D JUMP JUMPDEST DUP2 EQ PUSH2 0xCBE JUMPI PUSH1 0x0 DUP1 REVERT JUMPDEST POP JUMP JUMPDEST PUSH1 0x0 DUP2 CALLDATALOAD SWAP1 POP PUSH2 0xCD0 DUP2 PUSH2 0xCAA JUMP JUMPDEST SWAP3 SWAP2 POP POP JUMP JUMPDEST PUSH1 0x0 PUSH1 0x20 DUP3 DUP5 SUB SLT ISZERO PUSH2 0xCEC JUMPI PUSH2 0xCEB PUSH2 0x8EF JUMP JUMPDEST JUMPDEST PUSH1 0x0 PUSH2 0xCFA DUP5 DUP3 DUP6 ADD PUSH2 0xCC1 JUMP JUMPDEST SWAP2 POP POP SWAP3 SWAP2 POP POP JUMP JUMPDEST PUSH32 0x5478206E6F74207375636365737366756C000000000000000000000000000000 PUSH1 0x0 DUP3 ADD MSTORE POP JUMP JUMPDEST PUSH1 0x0 PUSH2 0xD39 PUSH1 0x11 DUP4 PUSH2 0xBF7 JUMP JUMPDEST SWAP2 POP PUSH2 0xD44 DUP3 PUSH2 0xD03 JUMP JUMPDEST PUSH1 0x20 DUP3 ADD SWAP1 POP SWAP2 SWAP1 POP JUMP JUMPDEST PUSH1 0x0 PUSH1 0x20 DUP3 ADD SWAP1 POP DUP2 DUP2 SUB PUSH1 0x0 DUP4 ADD MSTORE PUSH2 0xD68 DUP2 PUSH2 0xD2C JUMP JUMPDEST SWAP1 POP SWAP2 SWAP1 POP JUMP JUMPDEST PUSH2 0xD78 DUP2 PUSH2 0x9BA JUMP JUMPDEST DUP2 EQ PUSH2 0xD83 JUMPI PUSH1 0x0 DUP1 REVERT JUMPDEST POP JUMP JUMPDEST PUSH1 0x0 DUP2 CALLDATALOAD SWAP1 POP PUSH2 0xD95 DUP2 PUSH2 0xD6F JUMP JUMPDEST SWAP3 SWAP2 POP POP JUMP JUMPDEST PUSH1 0x0 PUSH1 0x20 DUP3 DUP5 SUB SLT ISZERO PUSH2 0xDB1 JUMPI PUSH2 0xDB0 PUSH2 0x8EF JUMP JUMPDEST JUMPDEST PUSH1 0x0 PUSH2 0xDBF DUP5 DUP3 DUP6 ADD PUSH2 0xD86 JUMP JUMPDEST SWAP2 POP POP SWAP3 SWAP2 POP POP JUMP JUMPDEST PUSH32 0x57726F6E67207265636569766572000000000000000000000000000000000000 PUSH1 0x0 DUP3 ADD MSTORE POP JUMP JUMPDEST PUSH1 0x0 PUSH2 0xDFE PUSH1 0xE DUP4 PUSH2 0xBF7 JUMP JUMPDEST SWAP2 POP PUSH2 0xE09 DUP3 PUSH2 0xDC8 JUMP JUMPDEST PUSH1 0x20 DUP3 ADD SWAP1 POP SWAP2 SWAP1 POP JUMP JUMPDEST PUSH1 0x0 PUSH1 0x20 DUP3 ADD SWAP1 POP DUP2 DUP2 SUB PUSH1 0x0 DUP4 ADD MSTORE PUSH2 0xE2D DUP2 PUSH2 0xDF1 JUMP JUMPDEST SWAP1 POP SWAP2 SWAP1 POP JUMP JUMPDEST PUSH32 0x5A65726F2076616C756500000000000000000000000000000000000000000000 PUSH1 0x0 DUP3 ADD MSTORE POP JUMP JUMPDEST PUSH1 0x0 PUSH2 0xE6A PUSH1 0xA DUP4 PUSH2 0xBF7 JUMP JUMPDEST SWAP2 POP PUSH2 0xE75 DUP3 PUSH2 0xE34 JUMP JUMPDEST PUSH1 0x20 DUP3 ADD SWAP1 POP SWAP2 SWAP1 POP JUMP JUMPDEST PUSH1 0x0 PUSH1 0x20 DUP3 ADD SWAP1 POP DUP2 DUP2 SUB PUSH1 0x0 DUP4 ADD MSTORE PUSH2 0xE99 DUP2 PUSH2 0xE5D JUMP JUMPDEST SWAP1 POP SWAP2 SWAP1 POP JUMP JUMPDEST PUSH32 0x526F6F74206E6F742073796E63656420666F72207468697320726F756E640000 PUSH1 0x0 DUP3 ADD MSTORE POP JUMP JUMPDEST PUSH1 0x0 PUSH2 0xED6 PUSH1 0x1E DUP4 PUSH2 0xBF7 JUMP JUMPDEST SWAP2 POP PUSH2 0xEE1 DUP3 PUSH2 0xEA0 JUMP JUMPDEST PUSH1 0x20 DUP3 ADD SWAP1 POP SWAP2 SWAP1 POP JUMP JUMPDEST PUSH1 0x0 PUSH1 0x20 DUP3 ADD SWAP1 POP DUP2 DUP2 SUB PUSH1 0x0 DUP4 ADD MSTORE PUSH2 0xF05 DUP2 PUSH2 0xEC9 JUMP JUMPDEST SWAP1 POP SWAP2 SWAP1 POP JUMP JUMPDEST PUSH1 0x0 PUSH2 0xF1B PUSH1 0x20 DUP5 ADD DUP5 PUSH2 0xB12 JUMP JUMPDEST SWAP1 POP SWAP3 SWAP2 POP POP JUMP JUMPDEST PUSH2 0xF2C DUP2 PUSH2 0x966 JUMP JUMPDEST DUP3 MSTORE POP POP JUMP JUMPDEST PUSH1 0x0 PUSH2 0xF41 PUSH1 0x20 DUP5 ADD DUP5 PUSH2 0x924 JUMP JUMPDEST SWAP1 POP SWAP3 SWAP2 POP POP JUMP JUMPDEST PUSH2 0xF52 DUP2 PUSH2 0x8F9 JUMP JUMPDEST DUP3 MSTORE POP POP JUMP JUMPDEST PUSH1 0x0 DUP1 REVERT JUMPDEST PUSH1 0x0 DUP3 CALLDATALOAD PUSH1 0x1 PUSH1 0xA0 SUB DUP4 CALLDATASIZE SUB SUB DUP2 SLT PUSH2 0xF79 JUMPI PUSH2 0xF78 PUSH2 0xF58 JUMP JUMPDEST JUMPDEST DUP3 DUP2 ADD SWAP2 POP POP SWAP3 SWAP2 POP POP JUMP JUMPDEST PUSH1 0x0 PUSH2 0xFFFF DUP3 AND SWAP1 POP SWAP2 SWAP1 POP JUMP JUMPDEST PUSH2 0xF9C DUP2 PUSH2 0xF85 JUMP JUMPDEST DUP2 EQ PUSH2 0xFA7 JUMPI PUSH1 0x0 DUP1 REVERT JUMPDEST POP JUMP JUMPDEST PUSH1 0x0 DUP2 CALLDATALOAD SWAP1 POP PUSH2 0xFB9 DUP2 PUSH2 0xF93 JUMP JUMPDEST SWAP3 SWAP2 POP POP JUMP JUMPDEST PUSH1 0x0 PUSH2 0xFCE PUSH1 0x20 DUP5 ADD DUP5 PUSH2 0xFAA JUMP JUMPDEST SWAP1 POP SWAP3 SWAP2 POP POP JUMP JUMPDEST PUSH2 0xFDF DUP2 PUSH2 0xF85 JUMP JUMPDEST DUP3 MSTORE POP POP JUMP JUMPDEST PUSH2 0xFEE DUP2 PUSH2 0xB54 JUMP JUMPDEST DUP2 EQ PUSH2 0xFF9 JUMPI PUSH1 0x0 DUP1 REVERT JUMPDEST POP JUMP JUMPDEST PUSH1 0x0 DUP2 CALLDATALOAD SWAP1 POP PUSH2 0x100B DUP2 PUSH2 0xFE5 JUMP JUMPDEST SWAP3 SWAP2 POP POP JUMP JUMPDEST PUSH1 0x0 PUSH2 0x1020 PUSH1 0x20 DUP5 ADD DUP5 PUSH2 0xFFC JUMP JUMPDEST SWAP1 POP SWAP3 SWAP2 POP POP JUMP JUMPDEST PUSH2 0x1031 DUP2 PUSH2 0xB54 JUMP JUMPDEST DUP3 MSTORE POP POP JUMP JUMPDEST PUSH1 0x0 DUP1 REVERT JUMPDEST PUSH1 0x0 DUP1 REVERT JUMPDEST PUSH1 0x0 DUP1 DUP4 CALLDATALOAD PUSH1 0x1 PUSH1 0x20 SUB DUP5 CALLDATASIZE SUB SUB DUP2 SLT PUSH2 0x105E JUMPI PUSH2 0x105D PUSH2 0xF58 JUMP JUMPDEST JUMPDEST DUP4 DUP2 ADD SWAP3 POP DUP3 CALLDATALOAD SWAP2 POP PUSH1 0x20 DUP4 ADD SWAP3 POP PUSH8 0xFFFFFFFFFFFFFFFF DUP3 GT ISZERO PUSH2 0x1086 JUMPI PUSH2 0x1085 PUSH2 0x1037 JUMP JUMPDEST JUMPDEST PUSH1 0x20 DUP3 MUL CALLDATASIZE SUB DUP4 SGT ISZERO PUSH2 0x109C JUMPI PUSH2 0x109B PUSH2 0x103C JUMP JUMPDEST JUMPDEST POP SWAP3 POP SWAP3 SWAP1 POP JUMP JUMPDEST PUSH1 0x0 DUP3 DUP3 MSTORE PUSH1 0x20 DUP3 ADD SWAP1 POP SWAP3 SWAP2 POP POP JUMP JUMPDEST PUSH1 0x0 DUP2 SWAP1 POP SWAP2 SWAP1 POP JUMP JUMPDEST PUSH1 0x0 PUSH4 0xFFFFFFFF DUP3 AND SWAP1 POP SWAP2 SWAP1 POP JUMP JUMPDEST PUSH2 0x10D8 DUP2 PUSH2 0x10BF JUMP JUMPDEST DUP3 MSTORE POP POP JUMP JUMPDEST PUSH1 0x0 PUSH2 0x10EA DUP4 DUP4 PUSH2 0x10CF JUMP JUMPDEST PUSH1 0x20 DUP4 ADD SWAP1 POP SWAP3 SWAP2 POP POP JUMP JUMPDEST PUSH2 0x10FF DUP2 PUSH2 0x10BF JUMP JUMPDEST DUP2 EQ PUSH2 0x110A JUMPI PUSH1 0x0 DUP1 REVERT JUMPDEST POP JUMP JUMPDEST PUSH1 0x0 DUP2 CALLDATALOAD SWAP1 POP PUSH2 0x111C DUP2 PUSH2 0x10F6 JUMP JUMPDEST SWAP3 SWAP2 POP POP JUMP JUMPDEST PUSH1 0x0 PUSH2 0x1131 PUSH1 0x20 DUP5 ADD DUP5 PUSH2 0x110D JUMP JUMPDEST SWAP1 POP SWAP3 SWAP2 POP POP JUMP JUMPDEST PUSH1 0x0 PUSH1 0x20 DUP3 ADD SWAP1 POP SWAP2 SWAP1 POP JUMP JUMPDEST PUSH1 0x0 PUSH2 0x1152 DUP4 DUP6 PUSH2 0x10A4 JUMP JUMPDEST SWAP4 POP PUSH2 0x115D DUP3 PUSH2 0x10B5 JUMP JUMPDEST DUP1 PUSH1 0x0 JUMPDEST DUP6 DUP2 LT ISZERO PUSH2 0x1196 JUMPI PUSH2 0x1173 DUP3 DUP5 PUSH2 0x1122 JUMP JUMPDEST PUSH2 0x117D DUP9 DUP3 PUSH2 0x10DE JUMP JUMPDEST SWAP8 POP PUSH2 0x1188 DUP4 PUSH2 0x1139 JUMP JUMPDEST SWAP3 POP POP PUSH1 0x1 DUP2 ADD SWAP1 POP PUSH2 0x1161 JUMP JUMPDEST POP DUP6 SWAP3 POP POP POP SWAP4 SWAP3 POP POP POP JUMP JUMPDEST PUSH1 0x0 PUSH1 0xA0 DUP4 ADD PUSH2 0x11B6 PUSH1 0x0 DUP5 ADD DUP5 PUSH2 0xF0C JUMP JUMPDEST PUSH2 0x11C3 PUSH1 0x0 DUP7 ADD DUP3 PUSH2 0xF23 JUMP JUMPDEST POP PUSH2 0x11D1 PUSH1 0x20 DUP5 ADD DUP5 PUSH2 0xFBF JUMP JUMPDEST PUSH2 0x11DE PUSH1 0x20 DUP7 ADD DUP3 PUSH2 0xFD6 JUMP JUMPDEST POP PUSH2 0x11EC PUSH1 0x40 DUP5 ADD DUP5 PUSH2 0x1011 JUMP JUMPDEST PUSH2 0x11F9 PUSH1 0x40 DUP7 ADD DUP3 PUSH2 0x1028 JUMP JUMPDEST POP PUSH2 0x1207 PUSH1 0x60 DUP5 ADD DUP5 PUSH2 0x1011 JUMP JUMPDEST PUSH2 0x1214 PUSH1 0x60 DUP7 ADD DUP3 PUSH2 0x1028 JUMP JUMPDEST POP PUSH2 0x1222 PUSH1 0x80 DUP5 ADD DUP5 PUSH2 0x1041 JUMP JUMPDEST DUP6 DUP4 SUB PUSH1 0x80 DUP8 ADD MSTORE PUSH2 0x1235 DUP4 DUP3 DUP5 PUSH2 0x1146 JUMP JUMPDEST SWAP3 POP POP POP DUP1 SWAP2 POP POP SWAP3 SWAP2 POP POP JUMP JUMPDEST PUSH1 0x0 DUP3 CALLDATALOAD PUSH1 0x1 PUSH2 0x120 SUB DUP4 CALLDATASIZE SUB SUB DUP2 SLT PUSH2 0x1260 JUMPI PUSH2 0x125F PUSH2 0xF58 JUMP JUMPDEST JUMPDEST DUP3 DUP2 ADD SWAP2 POP POP SWAP3 SWAP2 POP POP JUMP JUMPDEST PUSH1 0x0 PUSH2 0x127B PUSH1 0x20 DUP5 ADD DUP5 PUSH2 0xD86 JUMP JUMPDEST SWAP1 POP SWAP3 SWAP2 POP POP JUMP JUMPDEST PUSH2 0x128C DUP2 PUSH2 0x9BA JUMP JUMPDEST DUP3 MSTORE POP POP JUMP JUMPDEST PUSH2 0x129B DUP2 PUSH2 0x8BB JUMP JUMPDEST DUP2 EQ PUSH2 0x12A6 JUMPI PUSH1 0x0 DUP1 REVERT JUMPDEST POP JUMP JUMPDEST PUSH1 0x0 DUP2 CALLDATALOAD SWAP1 POP PUSH2 0x12B8 DUP2 PUSH2 0x1292 JUMP JUMPDEST SWAP3 SWAP2 POP POP JUMP JUMPDEST PUSH1 0x0 PUSH2 0x12CD PUSH1 0x20 DUP5 ADD DUP5 PUSH2 0x12A9 JUMP JUMPDEST SWAP1 POP SWAP3 SWAP2 POP POP JUMP JUMPDEST PUSH2 0x12DE DUP2 PUSH2 0x8BB JUMP JUMPDEST DUP3 MSTORE POP POP JUMP JUMPDEST PUSH1 0x0 DUP1 DUP4 CALLDATALOAD PUSH1 0x1 PUSH1 0x20 SUB DUP5 CALLDATASIZE SUB SUB DUP2 SLT PUSH2 0x1301 JUMPI PUSH2 0x1300 PUSH2 0xF58 JUMP JUMPDEST JUMPDEST DUP4 DUP2 ADD SWAP3 POP DUP3 CALLDATALOAD SWAP2 POP PUSH1 0x20 DUP4 ADD SWAP3 POP PUSH8 0xFFFFFFFFFFFFFFFF DUP3 GT ISZERO PUSH2 0x1329 JUMPI PUSH2 0x1328 PUSH2 0x1037 JUMP JUMPDEST JUMPDEST PUSH1 0x1 DUP3 MUL CALLDATASIZE SUB DUP4 SGT ISZERO PUSH2 0x133F JUMPI PUSH2 0x133E PUSH2 0x103C JUMP JUMPDEST JUMPDEST POP SWAP3 POP SWAP3 SWAP1 POP JUMP JUMPDEST PUSH1 0x0 DUP3 DUP3 MSTORE PUSH1 0x20 DUP3 ADD SWAP1 POP SWAP3 SWAP2 POP POP JUMP JUMPDEST DUP3 DUP2 DUP4 CALLDATACOPY PUSH1 0x0 DUP4 DUP4 ADD MSTORE POP POP POP JUMP JUMPDEST PUSH1 0x0 PUSH1 0x1F NOT PUSH1 0x1F DUP4 ADD AND SWAP1 POP SWAP2 SWAP1 POP JUMP JUMPDEST PUSH1 0x0 PUSH2 0x1384 DUP4 DUP6 PUSH2 0x1347 JUMP JUMPDEST SWAP4 POP PUSH2 0x1391 DUP4 DUP6 DUP5 PUSH2 0x1358 JUMP JUMPDEST PUSH2 0x139A DUP4 PUSH2 0x1367 JUMP JUMPDEST DUP5 ADD SWAP1 POP SWAP4 SWAP3 POP POP POP JUMP JUMPDEST PUSH1 0x0 PUSH2 0x13B4 PUSH1 0x20 DUP5 ADD DUP5 PUSH2 0xCC1 JUMP JUMPDEST SWAP1 POP SWAP3 SWAP2 POP POP JUMP JUMPDEST PUSH2 0x13C5 DUP2 PUSH2 0xC9D JUMP JUMPDEST DUP3 MSTORE POP POP JUMP JUMPDEST PUSH1 0x0 DUP1 DUP4 CALLDATALOAD PUSH1 0x1 PUSH1 0x20 SUB DUP5 CALLDATASIZE SUB SUB DUP2 SLT PUSH2 0x13E8 JUMPI PUSH2 0x13E7 PUSH2 0xF58 JUMP JUMPDEST JUMPDEST DUP4 DUP2 ADD SWAP3 POP DUP3 CALLDATALOAD SWAP2 POP PUSH1 0x20 DUP4 ADD SWAP3 POP PUSH8 0xFFFFFFFFFFFFFFFF DUP3 GT ISZERO PUSH2 0x1410 JUMPI PUSH2 0x140F PUSH2 0x1037 JUMP JUMPDEST JUMPDEST PUSH1 0x20 DUP3 MUL CALLDATASIZE SUB DUP4 SGT ISZERO PUSH2 0x1426 JUMPI PUSH2 0x1425 PUSH2 0x103C JUMP JUMPDEST JUMPDEST POP SWAP3 POP SWAP3 SWAP1 POP JUMP JUMPDEST PUSH1 0x0 DUP3 DUP3 MSTORE PUSH1 0x20 DUP3 ADD SWAP1 POP SWAP3 SWAP2 POP POP JUMP JUMPDEST PUSH1 0x0 DUP2 SWAP1 POP SWAP2 SWAP1 POP JUMP JUMPDEST PUSH1 0x0 DUP1 DUP4 CALLDATALOAD PUSH1 0x1 PUSH1 0x20 SUB DUP5 CALLDATASIZE SUB SUB DUP2 SLT PUSH2 0x1466 JUMPI PUSH2 0x1465 PUSH2 0xF58 JUMP JUMPDEST JUMPDEST DUP4 DUP2 ADD SWAP3 POP DUP3 CALLDATALOAD SWAP2 POP PUSH1 0x20 DUP4 ADD SWAP3 POP PUSH8 0xFFFFFFFFFFFFFFFF DUP3 GT ISZERO PUSH2 0x148E JUMPI PUSH2 0x148D PUSH2 0x1037 JUMP JUMPDEST JUMPDEST PUSH1 0x20 DUP3 MUL CALLDATASIZE SUB DUP4 SGT ISZERO PUSH2 0x14A4 JUMPI PUSH2 0x14A3 PUSH2 0x103C JUMP JUMPDEST JUMPDEST POP SWAP3 POP SWAP3 SWAP1 POP JUMP JUMPDEST PUSH1 0x0 DUP3 DUP3 MSTORE PUSH1 0x20 DUP3 ADD SWAP1 POP SWAP3 SWAP2 POP POP JUMP JUMPDEST PUSH1 0x0 DUP1 REVERT JUMPDEST DUP3 DUP2 DUP4 CALLDATACOPY POP POP POP JUMP JUMPDEST PUSH1 0x0 PUSH2 0x14D7 DUP4 DUP6 PUSH2 0x14AC JUMP JUMPDEST SWAP4 POP PUSH32 0x7FFFFFFFFFFFFFFFFFFFFFFFFFFFFFFFFFFFFFFFFFFFFFFFFFFFFFFFFFFFFFF DUP4 GT ISZERO PUSH2 0x150A JUMPI PUSH2 0x1509 PUSH2 0x14BD JUMP JUMPDEST JUMPDEST PUSH1 0x20 DUP4 MUL SWAP3 POP PUSH2 0x151B DUP4 DUP6 DUP5 PUSH2 0x14C2 JUMP JUMPDEST DUP3 DUP5 ADD SWAP1 POP SWAP4 SWAP3 POP POP POP JUMP JUMPDEST PUSH1 0x0 PUSH1 0xA0 DUP4 ADD PUSH2 0x153A PUSH1 0x0 DUP5 ADD DUP5 PUSH2 0x1122 JUMP JUMPDEST PUSH2 0x1547 PUSH1 0x0 DUP7 ADD DUP3 PUSH2 0x10CF JUMP JUMPDEST POP PUSH2 0x1555 PUSH1 0x20 DUP5 ADD DUP5 PUSH2 0x126C JUMP JUMPDEST PUSH2 0x1562 PUSH1 0x20 DUP7 ADD DUP3 PUSH2 0x1283 JUMP JUMPDEST POP PUSH2 0x1570 PUSH1 0x40 DUP5 ADD DUP5 PUSH2 0x1449 JUMP JUMPDEST DUP6 DUP4 SUB PUSH1 0x40 DUP8 ADD MSTORE PUSH2 0x1583 DUP4 DUP3 DUP5 PUSH2 0x14CB JUMP JUMPDEST SWAP3 POP POP POP PUSH2 0x1594 PUSH1 0x60 DUP5 ADD DUP5 PUSH2 0x12E4 JUMP JUMPDEST DUP6 DUP4 SUB PUSH1 0x60 DUP8 ADD MSTORE PUSH2 0x15A7 DUP4 DUP3 DUP5 PUSH2 0x1378 JUMP JUMPDEST SWAP3 POP POP POP PUSH2 0x15B8 PUSH1 0x80 DUP5 ADD DUP5 PUSH2 0x1011 JUMP JUMPDEST PUSH2 0x15C5 PUSH1 0x80 DUP7 ADD DUP3 PUSH2 0x1028 JUMP JUMPDEST POP DUP1 SWAP2 POP POP SWAP3 SWAP2 POP POP JUMP JUMPDEST PUSH1 0x0 PUSH2 0x15DC DUP4 DUP4 PUSH2 0x1527 JUMP JUMPDEST SWAP1 POP SWAP3 SWAP2 POP POP JUMP JUMPDEST PUSH1 0x0 DUP3 CALLDATALOAD PUSH1 0x1 PUSH1 0xA0 SUB DUP4 CALLDATASIZE SUB SUB DUP2 SLT PUSH2 0x1600 JUMPI PUSH2 0x15FF PUSH2 0xF58 JUMP JUMPDEST JUMPDEST DUP3 DUP2 ADD SWAP2 POP POP SWAP3 SWAP2 POP POP JUMP JUMPDEST PUSH1 0x0 PUSH1 0x20 DUP3 ADD SWAP1 POP SWAP2 SWAP1 POP JUMP JUMPDEST PUSH1 0x0 PUSH2 0x1625 DUP4 DUP6 PUSH2 0x142E JUMP JUMPDEST SWAP4 POP DUP4 PUSH1 0x20 DUP5 MUL DUP6 ADD PUSH2 0x1637 DUP5 PUSH2 0x143F JUMP JUMPDEST DUP1 PUSH1 0x0 JUMPDEST DUP8 DUP2 LT ISZERO PUSH2 0x167B JUMPI DUP5 DUP5 SUB DUP10 MSTORE PUSH2 0x1652 DUP3 DUP5 PUSH2 0x15E4 JUMP JUMPDEST PUSH2 0x165C DUP6 DUP3 PUSH2 0x15D0 JUMP JUMPDEST SWAP5 POP PUSH2 0x1667 DUP4 PUSH2 0x160C JUMP JUMPDEST SWAP3 POP PUSH1 0x20 DUP11 ADD SWAP10 POP POP PUSH1 0x1 DUP2 ADD SWAP1 POP PUSH2 0x163B JUMP JUMPDEST POP DUP3 SWAP8 POP DUP8 SWAP5 POP POP POP POP POP SWAP4 SWAP3 POP POP POP JUMP JUMPDEST PUSH1 0x0 PUSH2 0x120 DUP4 ADD PUSH2 0x16A1 PUSH1 0x0 DUP5 ADD DUP5 PUSH2 0xF32 JUMP JUMPDEST PUSH2 0x16AE PUSH1 0x0 DUP7 ADD DUP3 PUSH2 0xF49 JUMP JUMPDEST POP PUSH2 0x16BC PUSH1 0x20 DUP5 ADD DUP5 PUSH2 0xF32 JUMP JUMPDEST PUSH2 0x16C9 PUSH1 0x20 DUP7 ADD DUP3 PUSH2 0xF49 JUMP JUMPDEST POP PUSH2 0x16D7 PUSH1 0x40 DUP5 ADD DUP5 PUSH2 0x126C JUMP JUMPDEST PUSH2 0x16E4 PUSH1 0x40 DUP7 ADD DUP3 PUSH2 0x1283 JUMP JUMPDEST POP PUSH2 0x16F2 PUSH1 0x60 DUP5 ADD DUP5 PUSH2 0x1011 JUMP JUMPDEST PUSH2 0x16FF PUSH1 0x60 DUP7 ADD DUP3 PUSH2 0x1028 JUMP JUMPDEST POP PUSH2 0x170D PUSH1 0x80 DUP5 ADD DUP5 PUSH2 0x126C JUMP JUMPDEST PUSH2 0x171A PUSH1 0x80 DUP7 ADD DUP3 PUSH2 0x1283 JUMP JUMPDEST POP PUSH2 0x1728 PUSH1 0xA0 DUP5 ADD DUP5 PUSH2 0x12BE JUMP JUMPDEST PUSH2 0x1735 PUSH1 0xA0 DUP7 ADD DUP3 PUSH2 0x12D5 JUMP JUMPDEST POP PUSH2 0x1743 PUSH1 0xC0 DUP5 ADD DUP5 PUSH2 0x12E4 JUMP JUMPDEST DUP6 DUP4 SUB PUSH1 0xC0 DUP8 ADD MSTORE PUSH2 0x1756 DUP4 DUP3 DUP5 PUSH2 0x1378 JUMP JUMPDEST SWAP3 POP POP POP PUSH2 0x1767 PUSH1 0xE0 DUP5 ADD DUP5 PUSH2 0x13A5 JUMP JUMPDEST PUSH2 0x1774 PUSH1 0xE0 DUP7 ADD DUP3 PUSH2 0x13BC JUMP JUMPDEST POP PUSH2 0x1783 PUSH2 0x100 DUP5 ADD DUP5 PUSH2 0x13CB JUMP JUMPDEST DUP6 DUP4 SUB PUSH2 0x100 DUP8 ADD MSTORE PUSH2 0x1797 DUP4 DUP3 DUP5 PUSH2 0x1619 JUMP JUMPDEST SWAP3 POP POP POP DUP1 SWAP2 POP POP SWAP3 SWAP2 POP POP JUMP JUMPDEST PUSH1 0x0 PUSH1 0xC0 DUP4 ADD PUSH2 0x17B8 PUSH1 0x0 DUP5 ADD DUP5 PUSH2 0xF0C JUMP JUMPDEST PUSH2 0x17C5 PUSH1 0x0 DUP7 ADD DUP3 PUSH2 0xF23 JUMP JUMPDEST POP PUSH2 0x17D3 PUSH1 0x20 DUP5 ADD DUP5 PUSH2 0xF0C JUMP JUMPDEST PUSH2 0x17E0 PUSH1 0x20 DUP7 ADD DUP3 PUSH2 0xF23 JUMP JUMPDEST POP PUSH2 0x17EE PUSH1 0x40 DUP5 ADD DUP5 PUSH2 0xF32 JUMP JUMPDEST PUSH2 0x17FB PUSH1 0x40 DUP7 ADD DUP3 PUSH2 0xF49 JUMP JUMPDEST POP PUSH2 0x1809 PUSH1 0x60 DUP5 ADD DUP5 PUSH2 0xF32 JUMP JUMPDEST PUSH2 0x1816 PUSH1 0x60 DUP7 ADD DUP3 PUSH2 0xF49 JUMP JUMPDEST POP PUSH2 0x1824 PUSH1 0x80 DUP5 ADD DUP5 PUSH2 0xF5D JUMP JUMPDEST DUP5 DUP3 SUB PUSH1 0x80 DUP7 ADD MSTORE PUSH2 0x1836 DUP3 DUP3 PUSH2 0x11A3 JUMP JUMPDEST SWAP2 POP POP PUSH2 0x1846 PUSH1 0xA0 DUP5 ADD DUP5 PUSH2 0x1243 JUMP JUMPDEST DUP5 DUP3 SUB PUSH1 0xA0 DUP7 ADD MSTORE PUSH2 0x1858 DUP3 DUP3 PUSH2 0x168D JUMP JUMPDEST SWAP2 POP POP DUP1 SWAP2 POP POP SWAP3 SWAP2 POP POP JUMP JUMPDEST PUSH1 0x0 PUSH1 0x20 DUP3 ADD SWAP1 POP DUP2 DUP2 SUB PUSH1 0x0 DUP4 ADD MSTORE PUSH2 0x187F DUP2 DUP5 PUSH2 0x17A5 JUMP JUMPDEST SWAP1 POP SWAP3 SWAP2 POP POP JUMP JUMPDEST PUSH32 0x496E76616C6964204D65726B6C652070726F6F66000000000000000000000000 PUSH1 0x0 DUP3 ADD MSTORE POP JUMP JUMPDEST PUSH1 0x0 PUSH2 0x18BD PUSH1 0x14 DUP4 PUSH2 0xBF7 JUMP JUMPDEST SWAP2 POP PUSH2 0x18C8 DUP3 PUSH2 0x1887 JUMP JUMPDEST PUSH1 0x20 DUP3 ADD SWAP1 POP SWAP2 SWAP1 POP JUMP JUMPDEST PUSH1 0x0 PUSH1 0x20 DUP3 ADD SWAP1 POP DUP2 DUP2 SUB PUSH1 0x0 DUP4 ADD MSTORE PUSH2 0x18EC DUP2 PUSH2 0x18B0 JUMP JUMPDEST SWAP1 POP SWAP2 SWAP1 POP JUMP JUMPDEST PUSH32 0x4E487B7100000000000000000000000000000000000000000000000000000000 PUSH1 0x0 MSTORE PUSH1 0x11 PUSH1 0x4 MSTORE PUSH1 0x24 PUSH1 0x0 REVERT JUMPDEST PUSH1 0x0 PUSH2 0x192D DUP3 PUSH2 0x8BB JUMP JUMPDEST SWAP2 POP PUSH2 0x1938 DUP4 PUSH2 0x8BB JUMP JUMPDEST SWAP3 POP DUP3 DUP3 ADD SWAP1 POP DUP1 DUP3 GT ISZERO PUSH2 0x1950 JUMPI PUSH2 0x194F PUSH2 0x18F3 JUMP JUMPDEST JUMPDEST SWAP3 SWAP2 POP POP JUMP JUMPDEST PUSH1 0x0 PUSH1 0x40 DUP3 ADD SWAP1 POP PUSH2 0x196B PUSH1 0x0 DUP4 ADD DUP6 PUSH2 0x8C5 JUMP JUMPDEST PUSH2 0x1978 PUSH1 0x20 DUP4 ADD DUP5 PUSH2 0x970 JUMP JUMPDEST SWAP4 SWAP3 POP POP POP JUMP JUMPDEST PUSH32 0x556E617574686F72697A65640000000000000000000000000000000000000000 PUSH1 0x0 DUP3 ADD MSTORE POP JUMP JUMPDEST PUSH1 0x0 PUSH2 0x19B5 PUSH1 0xC DUP4 PUSH2 0xBF7 JUMP JUMPDEST SWAP2 POP PUSH2 0x19C0 DUP3 PUSH2 0x197F JUMP JUMPDEST PUSH1 0x20 DUP3 ADD SWAP1 POP SWAP2 SWAP1 POP JUMP JUMPDEST PUSH1 0x0 PUSH1 0x20 DUP3 ADD SWAP1 POP DUP2 DUP2 SUB PUSH1 0x0 DUP4 ADD MSTORE PUSH2 0x19E4 DUP2 PUSH2 0x19A8 JUMP JUMPDEST SWAP1 POP SWAP2 SWAP1 POP JUMP JUMPDEST PUSH32 0x526F6F7420616C72656164792073657400000000000000000000000000000000 PUSH1 0x0 DUP3 ADD MSTORE POP JUMP JUMPDEST PUSH1 0x0 PUSH2 0x1A21 PUSH1 0x10 DUP4 PUSH2 0xBF7 JUMP JUMPDEST SWAP2 POP PUSH2 0x1A2C DUP3 PUSH2 0x19EB JUMP JUMPDEST PUSH1 0x20 DUP3 ADD SWAP1 POP SWAP2 SWAP1 POP JUMP JUMPDEST PUSH1 0x0 PUSH1 0x20 DUP3 ADD SWAP1 POP DUP2 DUP2 SUB PUSH1 0x0 DUP4 ADD MSTORE PUSH2 0x1A50 DUP2 PUSH2 0x1A14 JUMP JUMPDEST SWAP1 POP SWAP2 SWAP1 POP JUMP JUMPDEST PUSH32 0x5A65726F20726F6F740000000000000000000000000000000000000000000000 PUSH1 0x0 DUP3 ADD MSTORE POP JUMP JUMPDEST PUSH1 0x0 PUSH2 0x1A8D PUSH1 0x9 DUP4 PUSH2 0xBF7 JUMP JUMPDEST SWAP2 POP PUSH2 0x1A98 DUP3 PUSH2 0x1A57 JUMP JUMPDEST PUSH1 0x20 DUP3 ADD SWAP1 POP SWAP2 SWAP1 POP JUMP JUMPDEST PUSH1 0x0 PUSH1 0x20 DUP3 ADD SWAP1 POP DUP2 DUP2 SUB PUSH1 0x0 DUP4 ADD MSTORE PUSH2 0x1ABC DUP2 PUSH2 0x1A80 JUMP JUMPDEST SWAP1 POP SWAP2 SWAP1 POP JUMP JUMPDEST PUSH32 0x4E487B7100000000000000000000000000000000000000000000000000000000 PUSH1 0x0 MSTORE PUSH1 0x32 PUSH1 0x4 MSTORE PUSH1 0x24 PUSH1 0x0 REVERT JUMPDEST PUSH1 0x0 DUP2 SWAP1 POP SWAP2 SWAP1 POP JUMP JUMPDEST PUSH2 0x1B0D PUSH2 0x1B08 DUP3 PUSH2 0x966 JUMP JUMPDEST PUSH2 0x1AF2 JUMP JUMPDEST DUP3 MSTORE POP POP JUMP JUMPDEST PUSH1 0x0 PUSH2 0x1B1F DUP3 DUP6 PUSH2 0x1AFC JUMP JUMPDEST PUSH1 0x20 DUP3 ADD SWAP2 POP PUSH2 0x1B2F DUP3 DUP5 PUSH2 0x1AFC JUMP JUMPDEST PUSH1 0x20 DUP3 ADD SWAP2 POP DUP2 SWAP1 POP SWAP4 SWAP3 POP POP POP JUMP INVALID LOG2 PUSH5 0x6970667358 0x22 SLT KECCAK256 0xC LOG3 0xEC SHR PUSH21 0x5298401337108A13CDCBDC3A7F3C55AD82DDBB2BF2 PUSH25 0xB6F96BCFEE64736F6C63430008180033000000000000000000 "},"methodIdentifiers":{"depositAddress()":"28f833b7","getBalance()":"12065fe0","processed(bytes32)":"c1f0808a","rootRelayer()":"d3894f7e","roots(uint64)":"1e3f0320","syncRoot(uint64,bytes32)":"d29e88d2","verifyAndCredit(bytes32[],(bytes32,bytes32,uint64,uint64,(bytes32,uint16,bool,bool,uint32[]),(uint64,uint64,address,bool,address,uint256,bytes,uint8,(uint32,address,bytes32[],bytes,bool)[])))":"6edc2393"}}}}}