{"contracts/FdcAccountingTrustless.sol":{"FdcAccountingTrustless":{"abi":[{"inputs":[{"internalType":"address","name":"_rootRelayer","type":"address"},{"internalType":"uint256","name":"_withdrawalChainId","type":"uint256"}],"stateMutability":"nonpayable","type":"constructor"},{"inputs":[],"name":"DER_Split_Error","type":"error"},{"inputs":[],"name":"expmod_Error","type":"error"},{"inputs":[],"name":"k256Decompress_Invalid_Length_Error","type":"error"},{"inputs":[],"name":"k256DeriveY_Invalid_Prefix_Error","type":"error"},{"inputs":[],"name":"recoverV_Error","type":"error"},{"anonymous":false,"inputs":[{"indexed":true,"internalType":"address","name":"sourceAddress","type":"address"},{"indexed":false,"internalType":"uint256","name":"value","type":"uint256"},{"indexed":false,"internalType":"bytes32","name":"txHash","type":"bytes32"}],"name":"DepositCredited","type":"event"},{"anonymous":false,"inputs":[{"indexed":true,"internalType":"uint64","name":"votingRound","type":"uint64"},{"indexed":false,"internalType":"bytes32","name":"merkleRoot","type":"bytes32"}],"name":"RootSynced","type":"event"},{"anonymous":false,"inputs":[{"indexed":true,"internalType":"address","name":"user","type":"address"},{"indexed":true,"internalType":"address","name":"to","type":"address"},{"indexed":false,"internalType":"uint256","name":"amount","type":"uint256"},{"indexed":false,"internalType":"bytes","name":"signedTx","type":"bytes"}],"name":"WithdrawalSigned","type":"event"},{"inputs":[],"name":"encumberedWalletAddr","outputs":[{"internalType":"address","name":"","type":"address"}],"stateMutability":"view","type":"function"},{"inputs":[],"name":"encumberedWalletNonce","outputs":[{"internalType":"uint256","name":"","type":"uint256"}],"stateMutability":"view","type":"function"},{"inputs":[],"name":"getBalance","outputs":[{"internalType":"uint256","name":"","type":"uint256"}],"stateMutability":"view","type":"function"},{"inputs":[],"name":"getDepositAddress","outputs":[{"internalType":"address","name":"","type":"address"}],"stateMutability":"view","type":"function"},{"inputs":[{"internalType":"bytes32","name":"","type":"bytes32"}],"name":"processed","outputs":[{"internalType":"bool","name":"","type":"bool"}],"stateMutability":"view","type":"function"},{"inputs":[],"name":"rootRelayer","outputs":[{"internalType":"address","name":"","type":"address"}],"stateMutability":"view","type":"function"},{"inputs":[{"internalType":"uint64","name":"","type":"uint64"}],"name":"roots","outputs":[{"internalType":"bytes32","name":"","type":"bytes32"}],"stateMutability":"view","type":"function"},{"inputs":[{"internalType":"uint64","name":"votingRound","type":"uint64"},{"internalType":"bytes32","name":"merkleRoot","type":"bytes32"}],"name":"syncRoot","outputs":[],"stateMutability":"nonpayable","type":"function"},{"inputs":[{"internalType":"bytes32[]","name":"merkleProof","type":"bytes32[]"},{"components":[{"internalType":"bytes32","name":"attestationType","type":"bytes32"},{"internalType":"bytes32","name":"sourceId","type":"bytes32"},{"internalType":"uint64","name":"votingRound","type":"uint64"},{"internalType":"uint64","name":"lowestUsedTimestamp","type":"uint64"},{"components":[{"internalType":"bytes32","name":"transactionHash","type":"bytes32"},{"internalType":"uint16","name":"requiredConfirmations","type":"uint16"},{"internalType":"bool","name":"provideInput","type":"bool"},{"internalType":"bool","name":"listEvents","type":"bool"},{"internalType":"uint32[]","name":"logIndices","type":"uint32[]"}],"internalType":"struct FdcAccountingTrustless.RequestBody","name":"requestBody","type":"tuple"},{"components":[{"internalType":"uint64","name":"blockNumber","type":"uint64"},{"internalType":"uint64","name":"timestamp","type":"uint64"},{"internalType":"address","name":"sourceAddress","type":"address"},{"internalType":"bool","name":"isDeployment","type":"bool"},{"internalType":"address","name":"receivingAddress","type":"address"},{"internalType":"uint256","name":"value","type":"uint256"},{"internalType":"bytes","name":"input","type":"bytes"},{"internalType":"uint8","name":"status","type":"uint8"},{"components":[{"internalType":"uint32","name":"logIndex","type":"uint32"},{"internalType":"address","name":"emitterAddress","type":"address"},{"internalType":"bytes32[]","name":"topics","type":"bytes32[]"},{"internalType":"bytes","name":"data","type":"bytes"},{"internalType":"bool","name":"removed","type":"bool"}],"internalType":"struct FdcAccountingTrustless.Event[]","name":"events","type":"tuple[]"}],"internalType":"struct FdcAccountingTrustless.ResponseBody","name":"responseBody","type":"tuple"}],"internalType":"struct FdcAccountingTrustless.Response","name":"response","type":"tuple"}],"name":"verifyAndCredit","outputs":[],"stateMutability":"nonpayable","type":"function"},{"inputs":[{"internalType":"address","name":"to","type":"address"},{"internalType":"uint256","name":"amount","type":"uint256"},{"internalType":"uint256","name":"gasPrice","type":"uint256"},{"internalType":"uint64","name":"gasLimit","type":"uint64"}],"name":"withdraw","outputs":[{"internalType":"bytes","name":"","type":"bytes"}],"stateMutability":"nonpayable","type":"function"},{"inputs":[],"name":"withdrawalChainId","outputs":[{"internalType":"uint256","name":"","type":"uint256"}],"stateMutability":"view","type":"function"}],"evm":{"bytecode":{"linkReferences":{},"object":"60c06040523480156200001157600080fd5b5060405162004ad838038062004ad883398181016040528101906200003791906200084a565b600073ffffffffffffffffffffffffffffffffffffffff168273ffffffffffffffffffffffffffffffffffffffff1603620000a9576040517f08c379a0000000000000000000000000000000000000000000000000000000008152600401620000a090620008f2565b60405180910390fd5b60008103620000ef576040517f08c379a0000000000000000000000000000000000000000000000000000000008152600401620000e69062000964565b60405180910390fd5b8173ffffffffffffffffffffffffffffffffffffffff1660808173ffffffffffffffffffffffffffffffffffffffff16815250508060a081815250506200013b6200019060201b60201c565b6000806001600084919050558391906101000a81548173ffffffffffffffffffffffffffffffffffffffff021916908373ffffffffffffffffffffffffffffffffffffffff16021790555050505050620010d9565b6000806000620001b7602060405180602001604052806000815250620001f860201b60201c565b905080620001c590620009cf565b91506000620001dc600483620002f060201b60201c565b509050620001f0816200040160201b60201c565b935050509091565b606060008073010000000000000000000000000000000000000173ffffffffffffffffffffffffffffffffffffffff1685856040516020016200023d92919062000adf565b6040516020818303038152906040526040516200025b919062000b55565b600060405180830381855afa9150503d806000811462000298576040519150601f19603f3d011682016040523d82523d6000602084013e6200029d565b606091505b509150915081620002e5576040517f08c379a0000000000000000000000000000000000000000000000000000000008152600401620002dc9062000bbe565b60405180910390fd5b809250505092915050565b60608060008073010000000000000000000000000000000000000573ffffffffffffffffffffffffffffffffffffffff1686866040516020016200033692919062000c60565b60405160208183030381529060405260405162000354919062000b55565b600060405180830381855afa9150503d806000811462000391576040519150601f19603f3d011682016040523d82523d6000602084013e62000396565b606091505b509150915081620003de576040517f08c379a0000000000000000000000000000000000000000000000000000000008152600401620003d59062000ce4565b60405180910390fd5b80806020019051810190620003f4919062000e48565b9350935050509250929050565b600080600062000417846200043660201b60201c565b915091506200042d8282620004b960201b60201c565b92505050919050565b600080602183511462000475576040517fc88d458a00000000000000000000000000000000000000000000000000000000815260040160405180910390fd5b60218301519150620004b28360008151811062000497576200049662000ecd565b5b602001015160f81c60f81b60f81c83620004fd60201b60201c565b9050915091565b6000808383604051602001620004d192919062000f21565b6040516020818303038152906040528051906020012090506060808260001c901b901c91505092915050565b600060028360ff161415801562000518575060038360ff1614155b1562000550576040517fab4be04100000000000000000000000000000000000000000000000000000000815260040160405180910390fd5b7ffffffffffffffffffffffffffffffffffffffffffffffffffffffffefffffc2f8062000582576200058162000f51565b5b60077ffffffffffffffffffffffffffffffffffffffffffffffffffffffffefffffc2f80620005b657620005b562000f51565b5b7ffffffffffffffffffffffffffffffffffffffffffffffffffffffffefffffc2f80620005e857620005e762000f51565b5b858609850908905062000643817f3fffffffffffffffffffffffffffffffffffffffffffffffffffffffbfffff0c7ffffffffffffffffffffffffffffffffffffffffffffffffffffffffefffffc2f620006a360201b60201c565b9050600060028460ff16836200065a919062000faf565b62000666919062000fea565b146200069d57807ffffffffffffffffffffffffffffffffffffffffffffffffffffffffefffffc2f6200069a919062001022565b90505b92915050565b6000806000600573ffffffffffffffffffffffffffffffffffffffff166020806020898989604051602001620006df969594939291906200105d565b604051602081830303815290604052604051620006fd919062000b55565b600060405180830381855afa9150503d80600081146200073a576040519150601f19603f3d011682016040523d82523d6000602084013e6200073f565b606091505b5091509150816200077c576040517f102875ed00000000000000000000000000000000000000000000000000000000815260040160405180910390fd5b806200078890620009cf565b60001c925050509392505050565b6000604051905090565b600080fd5b600080fd5b600073ffffffffffffffffffffffffffffffffffffffff82169050919050565b6000620007d782620007aa565b9050919050565b620007e981620007ca565b8114620007f557600080fd5b50565b6000815190506200080981620007de565b92915050565b6000819050919050565b62000824816200080f565b81146200083057600080fd5b50565b600081519050620008448162000819565b92915050565b60008060408385031215620008645762000863620007a0565b5b60006200087485828601620007f8565b9250506020620008878582860162000833565b9150509250929050565b600082825260208201905092915050565b7f5a65726f2072656c617965720000000000000000000000000000000000000000600082015250565b6000620008da600c8362000891565b9150620008e782620008a2565b602082019050919050565b600060208201905081810360008301526200090d81620008cb565b9050919050565b7f5a65726f20636861696e20494400000000000000000000000000000000000000600082015250565b60006200094c600d8362000891565b9150620009598262000914565b602082019050919050565b600060208201905081810360008301526200097f816200093d565b9050919050565b600081519050919050565b6000819050602082019050919050565b6000819050919050565b6000620009b98251620009a1565b80915050919050565b600082821b905092915050565b6000620009dc8262000986565b82620009e88462000991565b9050620009f581620009ab565b9250602082101562000a385762000a337fffffffffffffffffffffffffffffffffffffffffffffffffffffffffffffffff83602003600802620009c2565b831692505b5050919050565b62000a4a816200080f565b82525050565b600082825260208201905092915050565b60005b8381101562000a8157808201518184015260208101905062000a64565b60008484015250505050565b6000601f19601f8301169050919050565b600062000aab8262000986565b62000ab7818562000a50565b935062000ac981856020860162000a61565b62000ad48162000a8d565b840191505092915050565b600060408201905062000af6600083018562000a3f565b818103602083015262000b0a818462000a9e565b90509392505050565b600081905092915050565b600062000b2b8262000986565b62000b37818562000b13565b935062000b4981856020860162000a61565b80840191505092915050565b600062000b63828462000b1e565b915081905092915050565b7f72616e646f6d42797465733a206661696c656400000000000000000000000000600082015250565b600062000ba660138362000891565b915062000bb38262000b6e565b602082019050919050565b6000602082019050818103600083015262000bd98162000b97565b9050919050565b7f4e487b7100000000000000000000000000000000000000000000000000000000600052602160045260246000fd5b6009811062000c235762000c2262000be0565b5b50565b600081905062000c368262000c0f565b919050565b600062000c488262000c26565b9050919050565b62000c5a8162000c3b565b82525050565b600060408201905062000c77600083018562000c4f565b818103602083015262000c8b818462000a9e565b90509392505050565b7f67656e207369676e696e67206b6579706169723a206661696c65640000000000600082015250565b600062000ccc601b8362000891565b915062000cd98262000c94565b602082019050919050565b6000602082019050818103600083015262000cff8162000cbd565b9050919050565b600080fd5b600080fd5b7f4e487b7100000000000000000000000000000000000000000000000000000000600052604160045260246000fd5b62000d4a8262000a8d565b810181811067ffffffffffffffff8211171562000d6c5762000d6b62000d10565b5b80604052505050565b600062000d8162000796565b905062000d8f828262000d3f565b919050565b600067ffffffffffffffff82111562000db25762000db162000d10565b5b62000dbd8262000a8d565b9050602081019050919050565b600062000de162000ddb8462000d94565b62000d75565b90508281526020810184848401111562000e005762000dff62000d0b565b5b62000e0d84828562000a61565b509392505050565b600082601f83011262000e2d5762000e2c62000d06565b5b815162000e3f84826020860162000dca565b91505092915050565b6000806040838503121562000e625762000e61620007a0565b5b600083015167ffffffffffffffff81111562000e835762000e82620007a5565b5b62000e918582860162000e15565b925050602083015167ffffffffffffffff81111562000eb55762000eb4620007a5565b5b62000ec38582860162000e15565b9150509250929050565b7f4e487b7100000000000000000000000000000000000000000000000000000000600052603260045260246000fd5b6000819050919050565b62000f1b62000f15826200080f565b62000efc565b82525050565b600062000f2f828562000f06565b60208201915062000f41828462000f06565b6020820191508190509392505050565b7f4e487b7100000000000000000000000000000000000000000000000000000000600052601260045260246000fd5b7f4e487b7100000000000000000000000000000000000000000000000000000000600052601160045260246000fd5b600062000fbc826200080f565b915062000fc9836200080f565b925082820190508082111562000fe45762000fe362000f80565b5b92915050565b600062000ff7826200080f565b915062001004836200080f565b92508262001017576200101662000f51565b5b828206905092915050565b60006200102f826200080f565b91506200103c836200080f565b925082820390508181111562001057576200105662000f80565b5b92915050565b60006200106b828962000f06565b6020820191506200107d828862000f06565b6020820191506200108f828762000f06565b602082019150620010a1828662000f06565b602082019150620010b3828562000f06565b602082019150620010c5828462000f06565b602082019150819050979650505050505050565b60805160a0516139cb6200110d600039600081816102ba015261091a015260008181610a1d0152610bce01526139cb6000f3fe608060405234801561001057600080fd5b50600436106100a95760003560e01c8063554cdf1011610071578063554cdf10146101565780636edc23931461017457806385c0205e14610190578063c1f0808a146101c0578063d29e88d2146101f0578063d3894f7e1461020c576100a9565b806308dcd6fd146100ae57806312065fe0146100cc57806312b0d400146100ea5780631e3f032014610108578063372744f514610138575b600080fd5b6100b661022a565b6040516100c39190611ebb565b60405180910390f35b6100d4610230565b6040516100e19190611ebb565b60405180910390f35b6100f2610277565b6040516100ff9190611f17565b60405180910390f35b610122600480360381019061011d9190611f7c565b6102a0565b60405161012f9190611fc2565b60405180910390f35b6101406102b8565b60405161014d9190611ebb565b60405180910390f35b61015e6102dc565b60405161016b9190611f17565b60405180910390f35b61018e60048036038101906101899190612066565b610300565b005b6101aa60048036038101906101a5919061213a565b610720565b6040516101b79190612231565b60405180910390f35b6101da60048036038101906101d5919061227f565b6109fb565b6040516101e791906122c7565b60405180910390f35b61020a600480360381019061020591906122e2565b610a1b565b005b610214610bcc565b6040516102219190611f17565b60405180910390f35b60025481565b6000600460003373ffffffffffffffffffffffffffffffffffffffff1673ffffffffffffffffffffffffffffffffffffffff16815260200190815260200160002054905090565b60008060009054906101000a900473ffffffffffffffffffffffffffffffffffffffff16905090565b60036020528060005260406000206000915090505481565b7f000000000000000000000000000000000000000000000000000000000000000081565b60008054906101000a900473ffffffffffffffffffffffffffffffffffffffff1681565b60008180608001906103129190612327565b6000013590506005600082815260200190815260200160002060009054906101000a900460ff1615610379576040517f08c379a0000000000000000000000000000000000000000000000000000000008152600401610370906123ac565b60405180910390fd5b6001828060a0019061038b91906123cc565b60e001602081019061039d919061242e565b60ff16146103e0576040517f08c379a00000000000000000000000000000000000000000000000000000000081526004016103d7906124a7565b60405180910390fd5b60008054906101000a900473ffffffffffffffffffffffffffffffffffffffff1673ffffffffffffffffffffffffffffffffffffffff16828060a0019061042791906123cc565b608001602081019061043991906124c7565b73ffffffffffffffffffffffffffffffffffffffff161461048f576040517f08c379a000000000000000000000000000000000000000000000000000000000815260040161048690612540565b60405180910390fd5b6000828060a001906104a191906123cc565b60a00135116104e5576040517f08c379a00000000000000000000000000000000000000000000000000000000081526004016104dc906125ac565b60405180910390fd5b6000600360008460400160208101906104fe9190611f7c565b67ffffffffffffffff1667ffffffffffffffff1681526020019081526020016000205490506000801b8103610568576040517f08c379a000000000000000000000000000000000000000000000000000000000815260040161055f90612618565b60405180910390fd5b60008360405160200161057b9190612f54565b60405160208183030381529060405280519060200120905061059f86868484610bf0565b6105de576040517f08c379a00000000000000000000000000000000000000000000000000000000081526004016105d590612fc2565b60405180910390fd5b60016005600085815260200190815260200160002060006101000a81548160ff021916908315150217905550838060a0019061061a91906123cc565b60a0013560046000868060a0019061063291906123cc565b604001602081019061064491906124c7565b73ffffffffffffffffffffffffffffffffffffffff1673ffffffffffffffffffffffffffffffffffffffff168152602001908152602001600020600082825461068d9190613011565b92505081905550838060a001906106a491906123cc565b60400160208101906106b691906124c7565b73ffffffffffffffffffffffffffffffffffffffff167f1a688e52f070bf096d28d8dafc3394175ebd19b031c2bb0263cc75fd324f90f1858060a001906106fd91906123cc565b60a0013585604051610710929190613045565b60405180910390a2505050505050565b606060008411610765576040517f08c379a000000000000000000000000000000000000000000000000000000000815260040161075c906130ba565b60405180910390fd5b83600460003373ffffffffffffffffffffffffffffffffffffffff1673ffffffffffffffffffffffffffffffffffffffff1681526020019081526020016000205410156107e7576040517f08c379a00000000000000000000000000000000000000000000000000000000081526004016107de90613126565b60405180910390fd5b600073ffffffffffffffffffffffffffffffffffffffff168573ffffffffffffffffffffffffffffffffffffffff1603610856576040517f08c379a000000000000000000000000000000000000000000000000000000000815260040161084d90613192565b60405180910390fd5b83600460003373ffffffffffffffffffffffffffffffffffffffff1673ffffffffffffffffffffffffffffffffffffffff16815260200190815260200160002060008282546108a591906131b2565b9250508190555060006040518060e0016040528060025467ffffffffffffffff1681526020018581526020018467ffffffffffffffff1681526020018773ffffffffffffffffffffffffffffffffffffffff1681526020018681526020016040518060200160405280600081525081526020017f00000000000000000000000000000000000000000000000000000000000000008152509050600061096d60008054906101000a900473ffffffffffffffffffffffffffffffffffffffff1660015484610ca2565b905060026000815480929190610982906131e6565b91905055508673ffffffffffffffffffffffffffffffffffffffff163373ffffffffffffffffffffffffffffffffffffffff167f5ba1cd78e703d8da02bc93425f2911a460cb6d94ef7bb7e7af681dae1983006888846040516109e692919061322e565b60405180910390a38092505050949350505050565b60056020528060005260406000206000915054906101000a900460ff1681565b7f000000000000000000000000000000000000000000000000000000000000000073ffffffffffffffffffffffffffffffffffffffff163373ffffffffffffffffffffffffffffffffffffffff1614610aa9576040517f08c379a0000000000000000000000000000000000000000000000000000000008152600401610aa0906132aa565b60405180910390fd5b6000801b600360008467ffffffffffffffff1667ffffffffffffffff1681526020019081526020016000205414610b15576040517f08c379a0000000000000000000000000000000000000000000000000000000008152600401610b0c90613316565b60405180910390fd5b6000801b8103610b5a576040517f08c379a0000000000000000000000000000000000000000000000000000000008152600401610b5190613382565b60405180910390fd5b80600360008467ffffffffffffffff1667ffffffffffffffff168152602001908152602001600020819055508167ffffffffffffffff167fa0fb0d10ef4173852eb78fdb26bb50c4b6252e1dc9b179e3230dd0810979efdf82604051610bc09190611fc2565b60405180910390a25050565b7f000000000000000000000000000000000000000000000000000000000000000081565b60008082905060005b86869050811015610c93576000878783818110610c1957610c186133a2565b5b905060200201359050808311610c59578281604051602001610c3c9291906133f2565b604051602081830303815290604052805190602001209250610c85565b8083604051602001610c6c9291906133f2565b6040516020818303038152906040528051906020012092505b508080600101915050610bf9565b50838114915050949350505050565b60606000610cb1838686610d08565b9050602360028460c00151610cc6919061341e565b601b8360400151610cd791906131b2565b610ce19190613011565b610ceb9190613011565b816040018181525050610cfe8382610d83565b9150509392505050565b610d10611e7b565b6000610d408560405180606001604052806000801b81526020016000801b81526020018860c00151815250610d83565b9050600081604051602001610d55919061349c565b604051602081830303815290604052805190602001209050610d78858583610f90565b925050509392505050565b60606000600967ffffffffffffffff811115610da257610da16134b3565b5b604051908082528060200260200182016040528015610dd557816020015b6060815260200190600190039081610dc05790505b509050610def846000015167ffffffffffffffff16611014565b81600081518110610e0357610e026133a2565b5b6020026020010181905250610e1b8460200151611014565b81600181518110610e2f57610e2e6133a2565b5b6020026020010181905250610e51846040015167ffffffffffffffff16611014565b81600281518110610e6557610e646133a2565b5b6020026020010181905250610e7d846060015161102e565b81600381518110610e9157610e906133a2565b5b6020026020010181905250610ea98460800151611014565b81600481518110610ebd57610ebc6133a2565b5b6020026020010181905250610ed58460a0015161105f565b81600581518110610ee957610ee86133a2565b5b6020026020010181905250610f018360400151611014565b81600681518110610f1557610f146133a2565b5b6020026020010181905250610f30836000015160001c611014565b81600781518110610f4457610f436133a2565b5b6020026020010181905250610f5f836020015160001c611014565b81600881518110610f7357610f726133a2565b5b6020026020010181905250610f87816110dd565b91505092915050565b610f98611e7b565b6000610ff4600485604051602001610fb091906134e2565b60405160208183030381529060405285604051602001610fd091906134e2565b60405160208183030381529060405260405180602001604052806000815250611121565b9050610fff81611216565b915061100c858484611754565b509392505050565b6060611027611022836118bc565b61105f565b9050919050565b6060611058826040516020016110449190613545565b60405160208183030381529060405261105f565b9050919050565b606080600183511480156110975750608083600081518110611084576110836133a2565b5b602001015160f81c60f81b60f81c60ff16105b156110a4578290506110d4565b6110b083516080611a33565b836040516020016110c2929190613560565b60405160208183030381529060405290505b80915050919050565b606060006110ea83611c7f565b90506110f8815160c0611a33565b8160405160200161110a929190613560565b604051602081830303815290604052915050919050565b606060008073010000000000000000000000000000000000000673ffffffffffffffffffffffffffffffffffffffff168787878760405160200161116894939291906135fb565b604051602081830303815290604052604051611184919061349c565b600060405180830381855afa9150503d80600081146111bf576040519150601f19603f3d011682016040523d82523d6000602084013e6111c4565b606091505b509150915081611209576040517f08c379a0000000000000000000000000000000000000000000000000000000008152600401611200906136a1565b60405180910390fd5b8092505050949350505050565b61121e611e7b565b60088251101561125a576040517f86cd05c500000000000000000000000000000000000000000000000000000000815260040160405180910390fd5b603060f81b82600081518110611273576112726133a2565b5b602001015160f81c60f81b7effffffffffffffffffffffffffffffffffffffffffffffffffffffffffffff1916146112d7576040517f86cd05c500000000000000000000000000000000000000000000000000000000815260040160405180910390fd5b600260f81b826002815181106112f0576112ef6133a2565b5b602001015160f81c60f81b7effffffffffffffffffffffffffffffffffffffffffffffffffffffffffffff191614611354576040517f86cd05c500000000000000000000000000000000000000000000000000000000815260040160405180910390fd5b60008260018151811061136a576113696133a2565b5b602001015160f81c60f81b60f81c60ff169050600083600381518110611393576113926133a2565b5b602001015160f81c60f81b60f81c60ff16905060218111156113e1576040517f86cd05c500000000000000000000000000000000000000000000000000000000815260040160405180910390fd5b60008160046113f09190613011565b90506000856001836114029190613011565b81518110611413576114126133a2565b5b602001015160f81c60f81b60f81c60ff1690506021811115611461576040517f86cd05c500000000000000000000000000000000000000000000000000000000815260040160405180910390fd5b600260f81b868381518110611479576114786133a2565b5b602001015160f81c60f81b7effffffffffffffffffffffffffffffffffffffffffffffffffffffffffffff1916146114dd576040517f86cd05c500000000000000000000000000000000000000000000000000000000815260040160405180910390fd5b83600482856114ec9190613011565b6114f69190613011565b1461152d576040517f86cd05c500000000000000000000000000000000000000000000000000000000815260040160405180910390fd5b60028461153a9190613011565b865114611573576040517f86cd05c500000000000000000000000000000000000000000000000000000000815260040160405180910390fd5b6002826115809190613011565b91506000600490506021840361162c57600060f81b876004815181106115a9576115a86133a2565b5b602001015160f81c60f81b7effffffffffffffffffffffffffffffffffffffffffffffffffffffffffffff19161461160d576040517f86cd05c500000000000000000000000000000000000000000000000000000000815260040160405180910390fd5b60018161161a9190613011565b905060018461162991906131b2565b93505b602182036116cf57600060f81b87848151811061164c5761164b6133a2565b5b602001015160f81c60f81b7effffffffffffffffffffffffffffffffffffffffffffffffffffffffffffff1916146116b0576040517f86cd05c500000000000000000000000000000000000000000000000000000000815260040160405180910390fd5b6001836116bd9190613011565b92506001826116cc91906131b2565b91505b600080826020018901519150846020018901519050602086101561170c578560206116fa91906131b2565b6008611706919061341e565b82901c91505b60208410156117345783602061172291906131b2565b600861172e919061341e565b81901c90505b818860000181815250508088602001818152505050505050505050919050565b601b8160400181815250508273ffffffffffffffffffffffffffffffffffffffff16600183836040015184600001518560200151604051600081526020016040526040516117a594939291906136d0565b6020604051602081039080840390855afa1580156117c7573d6000803e3d6000fd5b5050506020604051035173ffffffffffffffffffffffffffffffffffffffff16146118b757601c8160400181815250508273ffffffffffffffffffffffffffffffffffffffff166001838360400151846000015185602001516040516000815260200160405260405161183d94939291906136d0565b6020604051602081039080840390855afa15801561185f573d6000803e3d6000fd5b5050506020604051035173ffffffffffffffffffffffffffffffffffffffff16146118b6576040517f4532600d00000000000000000000000000000000000000000000000000000000815260040160405180910390fd5b5b505050565b60606000826040516020016118d19190613736565b604051602081830303815290604052905060005b602081101561194557600060f81b828281518110611906576119056133a2565b5b602001015160f81c60f81b7effffffffffffffffffffffffffffffffffffffffffffffffffffffffffffff1916036119455780806001019150506118e5565b600081602061195491906131b2565b67ffffffffffffffff81111561196d5761196c6134b3565b5b6040519080825280601f01601f19166020018201604052801561199f5781602001600182028036833780820191505090505b50905060005b8151811015611a27578383806119ba906131e6565b9450815181106119cd576119cc6133a2565b5b602001015160f81c60f81b8282815181106119eb576119ea6133a2565b5b60200101907effffffffffffffffffffffffffffffffffffffffffffffffffffffffffffff1916908160001a90535080806001019150506119a5565b50809350505050919050565b6060806038841015611ae657600167ffffffffffffffff811115611a5a57611a596134b3565b5b6040519080825280601f01601f191660200182016040528015611a8c5781602001600182028036833780820191505090505b5090508284611a9b9190613751565b60f81b81600081518110611ab257611ab16133a2565b5b60200101907effffffffffffffffffffffffffffffffffffffffffffffffffffffffffffff1916908160001a905350611c75565b600080600190505b60008187611afc91906137b5565b14611b24578180611b0c906131e6565b92505061010081611b1d919061341e565b9050611aee565b600182611b319190613011565b67ffffffffffffffff811115611b4a57611b496134b3565b5b6040519080825280601f01601f191660200182016040528015611b7c5781602001600182028036833780820191505090505b50925060378583611b8d9190613751565b611b979190613751565b60f81b83600081518110611bae57611bad6133a2565b5b60200101907effffffffffffffffffffffffffffffffffffffffffffffffffffffffffffff1916908160001a905350600190505b818111611c72576101008183611bf891906131b2565b610100611c059190613919565b87611c1091906137b5565b611c1a9190613964565b60f81b838281518110611c3057611c2f6133a2565b5b60200101907effffffffffffffffffffffffffffffffffffffffffffffffffffffffffffff1916908160001a9053508080611c6a906131e6565b915050611be2565b50505b8091505092915050565b60606000825103611cdf57600067ffffffffffffffff811115611ca557611ca46134b3565b5b6040519080825280601f01601f191660200182016040528015611cd75781602001600182028036833780820191505090505b509050611e00565b600080600090505b8351811015611d2657838181518110611d0357611d026133a2565b5b60200260200101515182611d179190613011565b91508080600101915050611ce7565b60008267ffffffffffffffff811115611d4257611d416134b3565b5b6040519080825280601f01601f191660200182016040528015611d745781602001600182028036833780820191505090505b5090506000602082019050600092505b8551831015611df8576000868481518110611da257611da16133a2565b5b602002602001015190506000602082019050611dc083828451611e05565b878581518110611dd357611dd26133a2565b5b60200260200101515183611de79190613011565b925050508280600101935050611d84565b819450505050505b919050565b6000839050600083905060008390505b60208110611e535781518352602083611e2e9190613011565b9250602082611e3d9190613011565b9150602081611e4c91906131b2565b9050611e15565b60006001826020036101000a0390508019835116818551168181178652505050505050505050565b60405180606001604052806000801916815260200160008019168152602001600081525090565b6000819050919050565b611eb581611ea2565b82525050565b6000602082019050611ed06000830184611eac565b92915050565b600073ffffffffffffffffffffffffffffffffffffffff82169050919050565b6000611f0182611ed6565b9050919050565b611f1181611ef6565b82525050565b6000602082019050611f2c6000830184611f08565b92915050565b600080fd5b600080fd5b600067ffffffffffffffff82169050919050565b611f5981611f3c565b8114611f6457600080fd5b50565b600081359050611f7681611f50565b92915050565b600060208284031215611f9257611f91611f32565b5b6000611fa084828501611f67565b91505092915050565b6000819050919050565b611fbc81611fa9565b82525050565b6000602082019050611fd76000830184611fb3565b92915050565b600080fd5b600080fd5b600080fd5b60008083601f84011261200257612001611fdd565b5b8235905067ffffffffffffffff81111561201f5761201e611fe2565b5b60208301915083602082028301111561203b5761203a611fe7565b5b9250929050565b600080fd5b600060c0828403121561205d5761205c612042565b5b81905092915050565b60008060006040848603121561207f5761207e611f32565b5b600084013567ffffffffffffffff81111561209d5761209c611f37565b5b6120a986828701611fec565b9350935050602084013567ffffffffffffffff8111156120cc576120cb611f37565b5b6120d886828701612047565b9150509250925092565b6120eb81611ef6565b81146120f657600080fd5b50565b600081359050612108816120e2565b92915050565b61211781611ea2565b811461212257600080fd5b50565b6000813590506121348161210e565b92915050565b6000806000806080858703121561215457612153611f32565b5b6000612162878288016120f9565b945050602061217387828801612125565b935050604061218487828801612125565b925050606061219587828801611f67565b91505092959194509250565b600081519050919050565b600082825260208201905092915050565b60005b838110156121db5780820151818401526020810190506121c0565b60008484015250505050565b6000601f19601f8301169050919050565b6000612203826121a1565b61220d81856121ac565b935061221d8185602086016121bd565b612226816121e7565b840191505092915050565b6000602082019050818103600083015261224b81846121f8565b905092915050565b61225c81611fa9565b811461226757600080fd5b50565b60008135905061227981612253565b92915050565b60006020828403121561229557612294611f32565b5b60006122a38482850161226a565b91505092915050565b60008115159050919050565b6122c1816122ac565b82525050565b60006020820190506122dc60008301846122b8565b92915050565b600080604083850312156122f9576122f8611f32565b5b600061230785828601611f67565b92505060206123188582860161226a565b9150509250929050565b600080fd5b60008235600160a00383360303811261234357612342612322565b5b80830191505092915050565b600082825260208201905092915050565b7f416c72656164792070726f636573736564000000000000000000000000000000600082015250565b600061239660118361234f565b91506123a182612360565b602082019050919050565b600060208201905081810360008301526123c581612389565b9050919050565b600082356001610120038336030381126123e9576123e8612322565b5b80830191505092915050565b600060ff82169050919050565b61240b816123f5565b811461241657600080fd5b50565b60008135905061242881612402565b92915050565b60006020828403121561244457612443611f32565b5b600061245284828501612419565b91505092915050565b7f5478206e6f74207375636365737366756c000000000000000000000000000000600082015250565b600061249160118361234f565b915061249c8261245b565b602082019050919050565b600060208201905081810360008301526124c081612484565b9050919050565b6000602082840312156124dd576124dc611f32565b5b60006124eb848285016120f9565b91505092915050565b7f57726f6e67207265636569766572000000000000000000000000000000000000600082015250565b600061252a600e8361234f565b9150612535826124f4565b602082019050919050565b600060208201905081810360008301526125598161251d565b9050919050565b7f5a65726f2076616c756500000000000000000000000000000000000000000000600082015250565b6000612596600a8361234f565b91506125a182612560565b602082019050919050565b600060208201905081810360008301526125c581612589565b9050919050565b7f526f6f74206e6f742073796e63656420666f72207468697320726f756e640000600082015250565b6000612602601e8361234f565b915061260d826125cc565b602082019050919050565b60006020820190508181036000830152612631816125f5565b9050919050565b6000612647602084018461226a565b905092915050565b61265881611fa9565b82525050565b600061266d6020840184611f67565b905092915050565b61267e81611f3c565b82525050565b600080fd5b60008235600160a0038336030381126126a5576126a4612684565b5b82810191505092915050565b600061ffff82169050919050565b6126c8816126b1565b81146126d357600080fd5b50565b6000813590506126e5816126bf565b92915050565b60006126fa60208401846126d6565b905092915050565b61270b816126b1565b82525050565b61271a816122ac565b811461272557600080fd5b50565b60008135905061273781612711565b92915050565b600061274c6020840184612728565b905092915050565b61275d816122ac565b82525050565b600080fd5b600080fd5b6000808335600160200384360303811261278a57612789612684565b5b83810192508235915060208301925067ffffffffffffffff8211156127b2576127b1612763565b5b6020820236038313156127c8576127c7612768565b5b509250929050565b600082825260208201905092915050565b6000819050919050565b600063ffffffff82169050919050565b612804816127eb565b82525050565b600061281683836127fb565b60208301905092915050565b61282b816127eb565b811461283657600080fd5b50565b60008135905061284881612822565b92915050565b600061285d6020840184612839565b905092915050565b6000602082019050919050565b600061287e83856127d0565b9350612889826127e1565b8060005b858110156128c25761289f828461284e565b6128a9888261280a565b97506128b483612865565b92505060018101905061288d565b5085925050509392505050565b600060a083016128e26000840184612638565b6128ef600086018261264f565b506128fd60208401846126eb565b61290a6020860182612702565b50612918604084018461273d565b6129256040860182612754565b50612933606084018461273d565b6129406060860182612754565b5061294e608084018461276d565b8583036080870152612961838284612872565b925050508091505092915050565b6000823560016101200383360303811261298c5761298b612684565b5b82810191505092915050565b60006129a760208401846120f9565b905092915050565b6129b881611ef6565b82525050565b60006129cd6020840184612125565b905092915050565b6129de81611ea2565b82525050565b60008083356001602003843603038112612a0157612a00612684565b5b83810192508235915060208301925067ffffffffffffffff821115612a2957612a28612763565b5b600182023603831315612a3f57612a3e612768565b5b509250929050565b600082825260208201905092915050565b82818337600083830152505050565b6000612a738385612a47565b9350612a80838584612a58565b612a89836121e7565b840190509392505050565b6000612aa36020840184612419565b905092915050565b612ab4816123f5565b82525050565b60008083356001602003843603038112612ad757612ad6612684565b5b83810192508235915060208301925067ffffffffffffffff821115612aff57612afe612763565b5b602082023603831315612b1557612b14612768565b5b509250929050565b600082825260208201905092915050565b6000819050919050565b60008083356001602003843603038112612b5557612b54612684565b5b83810192508235915060208301925067ffffffffffffffff821115612b7d57612b7c612763565b5b602082023603831315612b9357612b92612768565b5b509250929050565b600082825260208201905092915050565b600080fd5b82818337505050565b6000612bc68385612b9b565b93507f07ffffffffffffffffffffffffffffffffffffffffffffffffffffffffffffff831115612bf957612bf8612bac565b5b602083029250612c0a838584612bb1565b82840190509392505050565b600060a08301612c29600084018461284e565b612c3660008601826127fb565b50612c446020840184612998565b612c5160208601826129af565b50612c5f6040840184612b38565b8583036040870152612c72838284612bba565b92505050612c8360608401846129e4565b8583036060870152612c96838284612a67565b92505050612ca7608084018461273d565b612cb46080860182612754565b508091505092915050565b6000612ccb8383612c16565b905092915050565b60008235600160a003833603038112612cef57612cee612684565b5b82810191505092915050565b6000602082019050919050565b6000612d148385612b1d565b935083602084028501612d2684612b2e565b8060005b87811015612d6a578484038952612d418284612cd3565b612d4b8582612cbf565b9450612d5683612cfb565b925060208a01995050600181019050612d2a565b50829750879450505050509392505050565b60006101208301612d90600084018461265e565b612d9d6000860182612675565b50612dab602084018461265e565b612db86020860182612675565b50612dc66040840184612998565b612dd360408601826129af565b50612de1606084018461273d565b612dee6060860182612754565b50612dfc6080840184612998565b612e0960808601826129af565b50612e1760a08401846129be565b612e2460a08601826129d5565b50612e3260c08401846129e4565b85830360c0870152612e45838284612a67565b92505050612e5660e0840184612a94565b612e6360e0860182612aab565b50612e72610100840184612aba565b858303610100870152612e86838284612d08565b925050508091505092915050565b600060c08301612ea76000840184612638565b612eb4600086018261264f565b50612ec26020840184612638565b612ecf602086018261264f565b50612edd604084018461265e565b612eea6040860182612675565b50612ef8606084018461265e565b612f056060860182612675565b50612f136080840184612689565b8482036080860152612f2582826128cf565b915050612f3560a084018461296f565b84820360a0860152612f478282612d7c565b9150508091505092915050565b60006020820190508181036000830152612f6e8184612e94565b905092915050565b7f496e76616c6964204d65726b6c652070726f6f66000000000000000000000000600082015250565b6000612fac60148361234f565b9150612fb782612f76565b602082019050919050565b60006020820190508181036000830152612fdb81612f9f565b9050919050565b7f4e487b7100000000000000000000000000000000000000000000000000000000600052601160045260246000fd5b600061301c82611ea2565b915061302783611ea2565b925082820190508082111561303f5761303e612fe2565b5b92915050565b600060408201905061305a6000830185611eac565b6130676020830184611fb3565b9392505050565b7f5a65726f20616d6f756e74000000000000000000000000000000000000000000600082015250565b60006130a4600b8361234f565b91506130af8261306e565b602082019050919050565b600060208201905081810360008301526130d381613097565b9050919050565b7f496e73756666696369656e742062616c616e6365000000000000000000000000600082015250565b600061311060148361234f565b915061311b826130da565b602082019050919050565b6000602082019050818103600083015261313f81613103565b9050919050565b7f5a65726f20726563697069656e74000000000000000000000000000000000000600082015250565b600061317c600e8361234f565b915061318782613146565b602082019050919050565b600060208201905081810360008301526131ab8161316f565b9050919050565b60006131bd82611ea2565b91506131c883611ea2565b92508282039050818111156131e0576131df612fe2565b5b92915050565b60006131f182611ea2565b91507fffffffffffffffffffffffffffffffffffffffffffffffffffffffffffffffff820361322357613222612fe2565b5b600182019050919050565b60006040820190506132436000830185611eac565b818103602083015261325581846121f8565b90509392505050565b7f556e617574686f72697a65640000000000000000000000000000000000000000600082015250565b6000613294600c8361234f565b915061329f8261325e565b602082019050919050565b600060208201905081810360008301526132c381613287565b9050919050565b7f526f6f7420616c72656164792073657400000000000000000000000000000000600082015250565b600061330060108361234f565b915061330b826132ca565b602082019050919050565b6000602082019050818103600083015261332f816132f3565b9050919050565b7f5a65726f20726f6f740000000000000000000000000000000000000000000000600082015250565b600061336c60098361234f565b915061337782613336565b602082019050919050565b6000602082019050818103600083015261339b8161335f565b9050919050565b7f4e487b7100000000000000000000000000000000000000000000000000000000600052603260045260246000fd5b6000819050919050565b6133ec6133e782611fa9565b6133d1565b82525050565b60006133fe82856133db565b60208201915061340e82846133db565b6020820191508190509392505050565b600061342982611ea2565b915061343483611ea2565b925082820261344281611ea2565b9150828204841483151761345957613458612fe2565b5b5092915050565b600081905092915050565b6000613476826121a1565b6134808185613460565b93506134908185602086016121bd565b80840191505092915050565b60006134a8828461346b565b915081905092915050565b7f4e487b7100000000000000000000000000000000000000000000000000000000600052604160045260246000fd5b60006134ee82846133db565b60208201915081905092915050565b60008160601b9050919050565b6000613515826134fd565b9050919050565b60006135278261350a565b9050919050565b61353f61353a82611ef6565b61351c565b82525050565b6000613551828461352e565b60148201915081905092915050565b600061356c828561346b565b9150613578828461346b565b91508190509392505050565b7f4e487b7100000000000000000000000000000000000000000000000000000000600052602160045260246000fd5b600981106135c4576135c3613584565b5b50565b60008190506135d5826135b3565b919050565b60006135e5826135c7565b9050919050565b6135f5816135da565b82525050565b600060808201905061361060008301876135ec565b818103602083015261362281866121f8565b9050818103604083015261363681856121f8565b9050818103606083015261364a81846121f8565b905095945050505050565b7f7369676e3a206661696c65640000000000000000000000000000000000000000600082015250565b600061368b600c8361234f565b915061369682613655565b602082019050919050565b600060208201905081810360008301526136ba8161367e565b9050919050565b6136ca816123f5565b82525050565b60006080820190506136e56000830187611fb3565b6136f260208301866136c1565b6136ff6040830185611fb3565b61370c6060830184611fb3565b95945050505050565b6000819050919050565b61373061372b82611ea2565b613715565b82525050565b6000613742828461371f565b60208201915081905092915050565b600061375c826123f5565b9150613767836123f5565b9250828201905060ff8111156137805761377f612fe2565b5b92915050565b7f4e487b7100000000000000000000000000000000000000000000000000000000600052601260045260246000fd5b60006137c082611ea2565b91506137cb83611ea2565b9250826137db576137da613786565b5b828204905092915050565b60008160011c9050919050565b6000808291508390505b600185111561383d5780860481111561381957613818612fe2565b5b60018516156138285780820291505b8081029050613836856137e6565b94506137fd565b94509492505050565b6000826138565760019050613912565b816138645760009050613912565b816001811461387a5760028114613884576138b3565b6001915050613912565b60ff84111561389657613895612fe2565b5b8360020a9150848211156138ad576138ac612fe2565b5b50613912565b5060208310610133831016604e8410600b84101617156138e85782820a9050838111156138e3576138e2612fe2565b5b613912565b6138f584848460016137f3565b9250905081840481111561390c5761390b612fe2565b5b81810290505b9392505050565b600061392482611ea2565b915061392f83611ea2565b925061395c7fffffffffffffffffffffffffffffffffffffffffffffffffffffffffffffffff8484613846565b905092915050565b600061396f82611ea2565b915061397a83611ea2565b92508261398a57613989613786565b5b82820690509291505056fea2646970667358221220371eac97b37b369545ef24b333e4813504aab0c613946c93fb4cf03479761ce564736f6c63430008180033","opcodes":"PUSH1 0xC0 PUSH1 0x40 MSTORE CALLVALUE DUP1 ISZERO PUSH3 0x11 JUMPI PUSH1 0x0 DUP1 REVERT JUMPDEST POP PUSH1 0x40 MLOAD PUSH3 0x4AD8 CODESIZE SUB DUP1 PUSH3 0x4AD8 DUP4 CODECOPY DUP2 DUP2 ADD PUSH1 0x40 MSTORE DUP2 ADD SWAP1 PUSH3 0x37 SWAP2 SWAP1 PUSH3 0x84A JUMP JUMPDEST PUSH1 0x0 PUSH20 0xFFFFFFFFFFFFFFFFFFFFFFFFFFFFFFFFFFFFFFFF AND DUP3 PUSH20 0xFFFFFFFFFFFFFFFFFFFFFFFFFFFFFFFFFFFFFFFF AND SUB PUSH3 0xA9 JUMPI PUSH1 0x40 MLOAD PUSH32 0x8C379A000000000000000000000000000000000000000000000000000000000 DUP2 MSTORE PUSH1 0x4 ADD PUSH3 0xA0 SWAP1 PUSH3 0x8F2 JUMP JUMPDEST PUSH1 0x40 MLOAD DUP1 SWAP2 SUB SWAP1 REVERT JUMPDEST PUSH1 0x0 DUP2 SUB PUSH3 0xEF JUMPI PUSH1 0x40 MLOAD PUSH32 0x8C379A000000000000000000000000000000000000000000000000000000000 DUP2 MSTORE PUSH1 0x4 ADD PUSH3 0xE6 SWAP1 PUSH3 0x964 JUMP JUMPDEST PUSH1 0x40 MLOAD DUP1 SWAP2 SUB SWAP1 REVERT JUMPDEST DUP2 PUSH20 0xFFFFFFFFFFFFFFFFFFFFFFFFFFFFFFFFFFFFFFFF AND PUSH1 0x80 DUP2 PUSH20 0xFFFFFFFFFFFFFFFFFFFFFFFFFFFFFFFFFFFFFFFF AND DUP2 MSTORE POP POP DUP1 PUSH1 0xA0 DUP2 DUP2 MSTORE POP POP PUSH3 0x13B PUSH3 0x190 PUSH1 0x20 SHL PUSH1 0x20 SHR JUMP JUMPDEST PUSH1 0x0 DUP1 PUSH1 0x1 PUSH1 0x0 DUP5 SWAP2 SWAP1 POP SSTORE DUP4 SWAP2 SWAP1 PUSH2 0x100 EXP DUP2 SLOAD DUP2 PUSH20 0xFFFFFFFFFFFFFFFFFFFFFFFFFFFFFFFFFFFFFFFF MUL NOT AND SWAP1 DUP4 PUSH20 0xFFFFFFFFFFFFFFFFFFFFFFFFFFFFFFFFFFFFFFFF AND MUL OR SWAP1 SSTORE POP POP POP POP POP PUSH3 0x10D9 JUMP JUMPDEST PUSH1 0x0 DUP1 PUSH1 0x0 PUSH3 0x1B7 PUSH1 0x20 PUSH1 0x40 MLOAD DUP1 PUSH1 0x20 ADD PUSH1 0x40 MSTORE DUP1 PUSH1 0x0 DUP2 MSTORE POP PUSH3 0x1F8 PUSH1 0x20 SHL PUSH1 0x20 SHR JUMP JUMPDEST SWAP1 POP DUP1 PUSH3 0x1C5 SWAP1 PUSH3 0x9CF JUMP JUMPDEST SWAP2 POP PUSH1 0x0 PUSH3 0x1DC PUSH1 0x4 DUP4 PUSH3 0x2F0 PUSH1 0x20 SHL PUSH1 0x20 SHR JUMP JUMPDEST POP SWAP1 POP PUSH3 0x1F0 DUP2 PUSH3 0x401 PUSH1 0x20 SHL PUSH1 0x20 SHR JUMP JUMPDEST SWAP4 POP POP POP SWAP1 SWAP2 JUMP JUMPDEST PUSH1 0x60 PUSH1 0x0 DUP1 PUSH20 0x100000000000000000000000000000000000001 PUSH20 0xFFFFFFFFFFFFFFFFFFFFFFFFFFFFFFFFFFFFFFFF AND DUP6 DUP6 PUSH1 0x40 MLOAD PUSH1 0x20 ADD PUSH3 0x23D SWAP3 SWAP2 SWAP1 PUSH3 0xADF JUMP JUMPDEST PUSH1 0x40 MLOAD PUSH1 0x20 DUP2 DUP4 SUB SUB DUP2 MSTORE SWAP1 PUSH1 0x40 MSTORE PUSH1 0x40 MLOAD PUSH3 0x25B SWAP2 SWAP1 PUSH3 0xB55 JUMP JUMPDEST PUSH1 0x0 PUSH1 0x40 MLOAD DUP1 DUP4 SUB DUP2 DUP6 GAS STATICCALL SWAP2 POP POP RETURNDATASIZE DUP1 PUSH1 0x0 DUP2 EQ PUSH3 0x298 JUMPI PUSH1 0x40 MLOAD SWAP2 POP PUSH1 0x1F NOT PUSH1 0x3F RETURNDATASIZE ADD AND DUP3 ADD PUSH1 0x40 MSTORE RETURNDATASIZE DUP3 MSTORE RETURNDATASIZE PUSH1 0x0 PUSH1 0x20 DUP5 ADD RETURNDATACOPY PUSH3 0x29D JUMP JUMPDEST PUSH1 0x60 SWAP2 POP JUMPDEST POP SWAP2 POP SWAP2 POP DUP2 PUSH3 0x2E5 JUMPI PUSH1 0x40 MLOAD PUSH32 0x8C379A000000000000000000000000000000000000000000000000000000000 DUP2 MSTORE PUSH1 0x4 ADD PUSH3 0x2DC SWAP1 PUSH3 0xBBE JUMP JUMPDEST PUSH1 0x40 MLOAD DUP1 SWAP2 SUB SWAP1 REVERT JUMPDEST DUP1 SWAP3 POP POP POP SWAP3 SWAP2 POP POP JUMP JUMPDEST PUSH1 0x60 DUP1 PUSH1 0x0 DUP1 PUSH20 0x100000000000000000000000000000000000005 PUSH20 0xFFFFFFFFFFFFFFFFFFFFFFFFFFFFFFFFFFFFFFFF AND DUP7 DUP7 PUSH1 0x40 MLOAD PUSH1 0x20 ADD PUSH3 0x336 SWAP3 SWAP2 SWAP1 PUSH3 0xC60 JUMP JUMPDEST PUSH1 0x40 MLOAD PUSH1 0x20 DUP2 DUP4 SUB SUB DUP2 MSTORE SWAP1 PUSH1 0x40 MSTORE PUSH1 0x40 MLOAD PUSH3 0x354 SWAP2 SWAP1 PUSH3 0xB55 JUMP JUMPDEST PUSH1 0x0 PUSH1 0x40 MLOAD DUP1 DUP4 SUB DUP2 DUP6 GAS STATICCALL SWAP2 POP POP RETURNDATASIZE DUP1 PUSH1 0x0 DUP2 EQ PUSH3 0x391 JUMPI PUSH1 0x40 MLOAD SWAP2 POP PUSH1 0x1F NOT PUSH1 0x3F RETURNDATASIZE ADD AND DUP3 ADD PUSH1 0x40 MSTORE RETURNDATASIZE DUP3 MSTORE RETURNDATASIZE PUSH1 0x0 PUSH1 0x20 DUP5 ADD RETURNDATACOPY PUSH3 0x396 JUMP JUMPDEST PUSH1 0x60 SWAP2 POP JUMPDEST POP SWAP2 POP SWAP2 POP DUP2 PUSH3 0x3DE JUMPI PUSH1 0x40 MLOAD PUSH32 0x8C379A000000000000000000000000000000000000000000000000000000000 DUP2 MSTORE PUSH1 0x4 ADD PUSH3 0x3D5 SWAP1 PUSH3 0xCE4 JUMP JUMPDEST PUSH1 0x40 MLOAD DUP1 SWAP2 SUB SWAP1 REVERT JUMPDEST DUP1 DUP1 PUSH1 0x20 ADD SWAP1 MLOAD DUP2 ADD SWAP1 PUSH3 0x3F4 SWAP2 SWAP1 PUSH3 0xE48 JUMP JUMPDEST SWAP4 POP SWAP4 POP POP POP SWAP3 POP SWAP3 SWAP1 POP JUMP JUMPDEST PUSH1 0x0 DUP1 PUSH1 0x0 PUSH3 0x417 DUP5 PUSH3 0x436 PUSH1 0x20 SHL PUSH1 0x20 SHR JUMP JUMPDEST SWAP2 POP SWAP2 POP PUSH3 0x42D DUP3 DUP3 PUSH3 0x4B9 PUSH1 0x20 SHL PUSH1 0x20 SHR JUMP JUMPDEST SWAP3 POP POP POP SWAP2 SWAP1 POP JUMP JUMPDEST PUSH1 0x0 DUP1 PUSH1 0x21 DUP4 MLOAD EQ PUSH3 0x475 JUMPI PUSH1 0x40 MLOAD PUSH32 0xC88D458A00000000000000000000000000000000000000000000000000000000 DUP2 MSTORE PUSH1 0x4 ADD PUSH1 0x40 MLOAD DUP1 SWAP2 SUB SWAP1 REVERT JUMPDEST PUSH1 0x21 DUP4 ADD MLOAD SWAP2 POP PUSH3 0x4B2 DUP4 PUSH1 0x0 DUP2 MLOAD DUP2 LT PUSH3 0x497 JUMPI PUSH3 0x496 PUSH3 0xECD JUMP JUMPDEST JUMPDEST PUSH1 0x20 ADD ADD MLOAD PUSH1 0xF8 SHR PUSH1 0xF8 SHL PUSH1 0xF8 SHR DUP4 PUSH3 0x4FD PUSH1 0x20 SHL PUSH1 0x20 SHR JUMP JUMPDEST SWAP1 POP SWAP2 POP SWAP2 JUMP JUMPDEST PUSH1 0x0 DUP1 DUP4 DUP4 PUSH1 0x40 MLOAD PUSH1 0x20 ADD PUSH3 0x4D1 SWAP3 SWAP2 SWAP1 PUSH3 0xF21 JUMP JUMPDEST PUSH1 0x40 MLOAD PUSH1 0x20 DUP2 DUP4 SUB SUB DUP2 MSTORE SWAP1 PUSH1 0x40 MSTORE DUP1 MLOAD SWAP1 PUSH1 0x20 ADD KECCAK256 SWAP1 POP PUSH1 0x60 DUP1 DUP3 PUSH1 0x0 SHR SWAP1 SHL SWAP1 SHR SWAP2 POP POP SWAP3 SWAP2 POP POP JUMP JUMPDEST PUSH1 0x0 PUSH1 0x2 DUP4 PUSH1 0xFF AND EQ ISZERO DUP1 ISZERO PUSH3 0x518 JUMPI POP PUSH1 0x3 DUP4 PUSH1 0xFF AND EQ ISZERO JUMPDEST ISZERO PUSH3 0x550 JUMPI PUSH1 0x40 MLOAD PUSH32 0xAB4BE04100000000000000000000000000000000000000000000000000000000 DUP2 MSTORE PUSH1 0x4 ADD PUSH1 0x40 MLOAD DUP1 SWAP2 SUB SWAP1 REVERT JUMPDEST PUSH32 0xFFFFFFFFFFFFFFFFFFFFFFFFFFFFFFFFFFFFFFFFFFFFFFFFFFFFFFFEFFFFFC2F DUP1 PUSH3 0x582 JUMPI PUSH3 0x581 PUSH3 0xF51 JUMP JUMPDEST JUMPDEST PUSH1 0x7 PUSH32 0xFFFFFFFFFFFFFFFFFFFFFFFFFFFFFFFFFFFFFFFFFFFFFFFFFFFFFFFEFFFFFC2F DUP1 PUSH3 0x5B6 JUMPI PUSH3 0x5B5 PUSH3 0xF51 JUMP JUMPDEST JUMPDEST PUSH32 0xFFFFFFFFFFFFFFFFFFFFFFFFFFFFFFFFFFFFFFFFFFFFFFFFFFFFFFFEFFFFFC2F DUP1 PUSH3 0x5E8 JUMPI PUSH3 0x5E7 PUSH3 0xF51 JUMP JUMPDEST JUMPDEST DUP6 DUP7 MULMOD DUP6 MULMOD ADDMOD SWAP1 POP PUSH3 0x643 DUP2 PUSH32 0x3FFFFFFFFFFFFFFFFFFFFFFFFFFFFFFFFFFFFFFFFFFFFFFFFFFFFFFFBFFFFF0C PUSH32 0xFFFFFFFFFFFFFFFFFFFFFFFFFFFFFFFFFFFFFFFFFFFFFFFFFFFFFFFEFFFFFC2F PUSH3 0x6A3 PUSH1 0x20 SHL PUSH1 0x20 SHR JUMP JUMPDEST SWAP1 POP PUSH1 0x0 PUSH1 0x2 DUP5 PUSH1 0xFF AND DUP4 PUSH3 0x65A SWAP2 SWAP1 PUSH3 0xFAF JUMP JUMPDEST PUSH3 0x666 SWAP2 SWAP1 PUSH3 0xFEA JUMP JUMPDEST EQ PUSH3 0x69D JUMPI DUP1 PUSH32 0xFFFFFFFFFFFFFFFFFFFFFFFFFFFFFFFFFFFFFFFFFFFFFFFFFFFFFFFEFFFFFC2F PUSH3 0x69A SWAP2 SWAP1 PUSH3 0x1022 JUMP JUMPDEST SWAP1 POP JUMPDEST SWAP3 SWAP2 POP POP JUMP JUMPDEST PUSH1 0x0 DUP1 PUSH1 0x0 PUSH1 0x5 PUSH20 0xFFFFFFFFFFFFFFFFFFFFFFFFFFFFFFFFFFFFFFFF AND PUSH1 0x20 DUP1 PUSH1 0x20 DUP10 DUP10 DUP10 PUSH1 0x40 MLOAD PUSH1 0x20 ADD PUSH3 0x6DF SWAP7 SWAP6 SWAP5 SWAP4 SWAP3 SWAP2 SWAP1 PUSH3 0x105D JUMP JUMPDEST PUSH1 0x40 MLOAD PUSH1 0x20 DUP2 DUP4 SUB SUB DUP2 MSTORE SWAP1 PUSH1 0x40 MSTORE PUSH1 0x40 MLOAD PUSH3 0x6FD SWAP2 SWAP1 PUSH3 0xB55 JUMP JUMPDEST PUSH1 0x0 PUSH1 0x40 MLOAD DUP1 DUP4 SUB DUP2 DUP6 GAS STATICCALL SWAP2 POP POP RETURNDATASIZE DUP1 PUSH1 0x0 DUP2 EQ PUSH3 0x73A JUMPI PUSH1 0x40 MLOAD SWAP2 POP PUSH1 0x1F NOT PUSH1 0x3F RETURNDATASIZE ADD AND DUP3 ADD PUSH1 0x40 MSTORE RETURNDATASIZE DUP3 MSTORE RETURNDATASIZE PUSH1 0x0 PUSH1 0x20 DUP5 ADD RETURNDATACOPY PUSH3 0x73F JUMP JUMPDEST PUSH1 0x60 SWAP2 POP JUMPDEST POP SWAP2 POP SWAP2 POP DUP2 PUSH3 0x77C JUMPI PUSH1 0x40 MLOAD PUSH32 0x102875ED00000000000000000000000000000000000000000000000000000000 DUP2 MSTORE PUSH1 0x4 ADD PUSH1 0x40 MLOAD DUP1 SWAP2 SUB SWAP1 REVERT JUMPDEST DUP1 PUSH3 0x788 SWAP1 PUSH3 0x9CF JUMP JUMPDEST PUSH1 0x0 SHR SWAP3 POP POP POP SWAP4 SWAP3 POP POP POP JUMP JUMPDEST PUSH1 0x0 PUSH1 0x40 MLOAD SWAP1 POP SWAP1 JUMP JUMPDEST PUSH1 0x0 DUP1 REVERT JUMPDEST PUSH1 0x0 DUP1 REVERT JUMPDEST PUSH1 0x0 PUSH20 0xFFFFFFFFFFFFFFFFFFFFFFFFFFFFFFFFFFFFFFFF DUP3 AND SWAP1 POP SWAP2 SWAP1 POP JUMP JUMPDEST PUSH1 0x0 PUSH3 0x7D7 DUP3 PUSH3 0x7AA JUMP JUMPDEST SWAP1 POP SWAP2 SWAP1 POP JUMP JUMPDEST PUSH3 0x7E9 DUP2 PUSH3 0x7CA JUMP JUMPDEST DUP2 EQ PUSH3 0x7F5 JUMPI PUSH1 0x0 DUP1 REVERT JUMPDEST POP JUMP JUMPDEST PUSH1 0x0 DUP2 MLOAD SWAP1 POP PUSH3 0x809 DUP2 PUSH3 0x7DE JUMP JUMPDEST SWAP3 SWAP2 POP POP JUMP JUMPDEST PUSH1 0x0 DUP2 SWAP1 POP SWAP2 SWAP1 POP JUMP JUMPDEST PUSH3 0x824 DUP2 PUSH3 0x80F JUMP JUMPDEST DUP2 EQ PUSH3 0x830 JUMPI PUSH1 0x0 DUP1 REVERT JUMPDEST POP JUMP JUMPDEST PUSH1 0x0 DUP2 MLOAD SWAP1 POP PUSH3 0x844 DUP2 PUSH3 0x819 JUMP JUMPDEST SWAP3 SWAP2 POP POP JUMP JUMPDEST PUSH1 0x0 DUP1 PUSH1 0x40 DUP4 DUP6 SUB SLT ISZERO PUSH3 0x864 JUMPI PUSH3 0x863 PUSH3 0x7A0 JUMP JUMPDEST JUMPDEST PUSH1 0x0 PUSH3 0x874 DUP6 DUP3 DUP7 ADD PUSH3 0x7F8 JUMP JUMPDEST SWAP3 POP POP PUSH1 0x20 PUSH3 0x887 DUP6 DUP3 DUP7 ADD PUSH3 0x833 JUMP JUMPDEST SWAP2 POP POP SWAP3 POP SWAP3 SWAP1 POP JUMP JUMPDEST PUSH1 0x0 DUP3 DUP3 MSTORE PUSH1 0x20 DUP3 ADD SWAP1 POP SWAP3 SWAP2 POP POP JUMP JUMPDEST PUSH32 0x5A65726F2072656C617965720000000000000000000000000000000000000000 PUSH1 0x0 DUP3 ADD MSTORE POP JUMP JUMPDEST PUSH1 0x0 PUSH3 0x8DA PUSH1 0xC DUP4 PUSH3 0x891 JUMP JUMPDEST SWAP2 POP PUSH3 0x8E7 DUP3 PUSH3 0x8A2 JUMP JUMPDEST PUSH1 0x20 DUP3 ADD SWAP1 POP SWAP2 SWAP1 POP JUMP JUMPDEST PUSH1 0x0 PUSH1 0x20 DUP3 ADD SWAP1 POP DUP2 DUP2 SUB PUSH1 0x0 DUP4 ADD MSTORE PUSH3 0x90D DUP2 PUSH3 0x8CB JUMP JUMPDEST SWAP1 POP SWAP2 SWAP1 POP JUMP JUMPDEST PUSH32 0x5A65726F20636861696E20494400000000000000000000000000000000000000 PUSH1 0x0 DUP3 ADD MSTORE POP JUMP JUMPDEST PUSH1 0x0 PUSH3 0x94C PUSH1 0xD DUP4 PUSH3 0x891 JUMP JUMPDEST SWAP2 POP PUSH3 0x959 DUP3 PUSH3 0x914 JUMP JUMPDEST PUSH1 0x20 DUP3 ADD SWAP1 POP SWAP2 SWAP1 POP JUMP JUMPDEST PUSH1 0x0 PUSH1 0x20 DUP3 ADD SWAP1 POP DUP2 DUP2 SUB PUSH1 0x0 DUP4 ADD MSTORE PUSH3 0x97F DUP2 PUSH3 0x93D JUMP JUMPDEST SWAP1 POP SWAP2 SWAP1 POP JUMP JUMPDEST PUSH1 0x0 DUP2 MLOAD SWAP1 POP SWAP2 SWAP1 POP JUMP JUMPDEST PUSH1 0x0 DUP2 SWAP1 POP PUSH1 0x20 DUP3 ADD SWAP1 POP SWAP2 SWAP1 POP JUMP JUMPDEST PUSH1 0x0 DUP2 SWAP1 POP SWAP2 SWAP1 POP JUMP JUMPDEST PUSH1 0x0 PUSH3 0x9B9 DUP3 MLOAD PUSH3 0x9A1 JUMP JUMPDEST DUP1 SWAP2 POP POP SWAP2 SWAP1 POP JUMP JUMPDEST PUSH1 0x0 DUP3 DUP3 SHL SWAP1 POP SWAP3 SWAP2 POP POP JUMP JUMPDEST PUSH1 0x0 PUSH3 0x9DC DUP3 PUSH3 0x986 JUMP JUMPDEST DUP3 PUSH3 0x9E8 DUP5 PUSH3 0x991 JUMP JUMPDEST SWAP1 POP PUSH3 0x9F5 DUP2 PUSH3 0x9AB JUMP JUMPDEST SWAP3 POP PUSH1 0x20 DUP3 LT ISZERO PUSH3 0xA38 JUMPI PUSH3 0xA33 PUSH32 0xFFFFFFFFFFFFFFFFFFFFFFFFFFFFFFFFFFFFFFFFFFFFFFFFFFFFFFFFFFFFFFFF DUP4 PUSH1 0x20 SUB PUSH1 0x8 MUL PUSH3 0x9C2 JUMP JUMPDEST DUP4 AND SWAP3 POP JUMPDEST POP POP SWAP2 SWAP1 POP JUMP JUMPDEST PUSH3 0xA4A DUP2 PUSH3 0x80F JUMP JUMPDEST DUP3 MSTORE POP POP JUMP JUMPDEST PUSH1 0x0 DUP3 DUP3 MSTORE PUSH1 0x20 DUP3 ADD SWAP1 POP SWAP3 SWAP2 POP POP JUMP JUMPDEST PUSH1 0x0 JUMPDEST DUP4 DUP2 LT ISZERO PUSH3 0xA81 JUMPI DUP1 DUP3 ADD MLOAD DUP2 DUP5 ADD MSTORE PUSH1 0x20 DUP2 ADD SWAP1 POP PUSH3 0xA64 JUMP JUMPDEST PUSH1 0x0 DUP5 DUP5 ADD MSTORE POP POP POP POP JUMP JUMPDEST PUSH1 0x0 PUSH1 0x1F NOT PUSH1 0x1F DUP4 ADD AND SWAP1 POP SWAP2 SWAP1 POP JUMP JUMPDEST PUSH1 0x0 PUSH3 0xAAB DUP3 PUSH3 0x986 JUMP JUMPDEST PUSH3 0xAB7 DUP2 DUP6 PUSH3 0xA50 JUMP JUMPDEST SWAP4 POP PUSH3 0xAC9 DUP2 DUP6 PUSH1 0x20 DUP7 ADD PUSH3 0xA61 JUMP JUMPDEST PUSH3 0xAD4 DUP2 PUSH3 0xA8D JUMP JUMPDEST DUP5 ADD SWAP2 POP POP SWAP3 SWAP2 POP POP JUMP JUMPDEST PUSH1 0x0 PUSH1 0x40 DUP3 ADD SWAP1 POP PUSH3 0xAF6 PUSH1 0x0 DUP4 ADD DUP6 PUSH3 0xA3F JUMP JUMPDEST DUP2 DUP2 SUB PUSH1 0x20 DUP4 ADD MSTORE PUSH3 0xB0A DUP2 DUP5 PUSH3 0xA9E JUMP JUMPDEST SWAP1 POP SWAP4 SWAP3 POP POP POP JUMP JUMPDEST PUSH1 0x0 DUP2 SWAP1 POP SWAP3 SWAP2 POP POP JUMP JUMPDEST PUSH1 0x0 PUSH3 0xB2B DUP3 PUSH3 0x986 JUMP JUMPDEST PUSH3 0xB37 DUP2 DUP6 PUSH3 0xB13 JUMP JUMPDEST SWAP4 POP PUSH3 0xB49 DUP2 DUP6 PUSH1 0x20 DUP7 ADD PUSH3 0xA61 JUMP JUMPDEST DUP1 DUP5 ADD SWAP2 POP POP SWAP3 SWAP2 POP POP JUMP JUMPDEST PUSH1 0x0 PUSH3 0xB63 DUP3 DUP5 PUSH3 0xB1E JUMP JUMPDEST SWAP2 POP DUP2 SWAP1 POP SWAP3 SWAP2 POP POP JUMP JUMPDEST PUSH32 0x72616E646F6D42797465733A206661696C656400000000000000000000000000 PUSH1 0x0 DUP3 ADD MSTORE POP JUMP JUMPDEST PUSH1 0x0 PUSH3 0xBA6 PUSH1 0x13 DUP4 PUSH3 0x891 JUMP JUMPDEST SWAP2 POP PUSH3 0xBB3 DUP3 PUSH3 0xB6E JUMP JUMPDEST PUSH1 0x20 DUP3 ADD SWAP1 POP SWAP2 SWAP1 POP JUMP JUMPDEST PUSH1 0x0 PUSH1 0x20 DUP3 ADD SWAP1 POP DUP2 DUP2 SUB PUSH1 0x0 DUP4 ADD MSTORE PUSH3 0xBD9 DUP2 PUSH3 0xB97 JUMP JUMPDEST SWAP1 POP SWAP2 SWAP1 POP JUMP JUMPDEST PUSH32 0x4E487B7100000000000000000000000000000000000000000000000000000000 PUSH1 0x0 MSTORE PUSH1 0x21 PUSH1 0x4 MSTORE PUSH1 0x24 PUSH1 0x0 REVERT JUMPDEST PUSH1 0x9 DUP2 LT PUSH3 0xC23 JUMPI PUSH3 0xC22 PUSH3 0xBE0 JUMP JUMPDEST JUMPDEST POP JUMP JUMPDEST PUSH1 0x0 DUP2 SWAP1 POP PUSH3 0xC36 DUP3 PUSH3 0xC0F JUMP JUMPDEST SWAP2 SWAP1 POP JUMP JUMPDEST PUSH1 0x0 PUSH3 0xC48 DUP3 PUSH3 0xC26 JUMP JUMPDEST SWAP1 POP SWAP2 SWAP1 POP JUMP JUMPDEST PUSH3 0xC5A DUP2 PUSH3 0xC3B JUMP JUMPDEST DUP3 MSTORE POP POP JUMP JUMPDEST PUSH1 0x0 PUSH1 0x40 DUP3 ADD SWAP1 POP PUSH3 0xC77 PUSH1 0x0 DUP4 ADD DUP6 PUSH3 0xC4F JUMP JUMPDEST DUP2 DUP2 SUB PUSH1 0x20 DUP4 ADD MSTORE PUSH3 0xC8B DUP2 DUP5 PUSH3 0xA9E JUMP JUMPDEST SWAP1 POP SWAP4 SWAP3 POP POP POP JUMP JUMPDEST PUSH32 0x67656E207369676E696E67206B6579706169723A206661696C65640000000000 PUSH1 0x0 DUP3 ADD MSTORE POP JUMP JUMPDEST PUSH1 0x0 PUSH3 0xCCC PUSH1 0x1B DUP4 PUSH3 0x891 JUMP JUMPDEST SWAP2 POP PUSH3 0xCD9 DUP3 PUSH3 0xC94 JUMP JUMPDEST PUSH1 0x20 DUP3 ADD SWAP1 POP SWAP2 SWAP1 POP JUMP JUMPDEST PUSH1 0x0 PUSH1 0x20 DUP3 ADD SWAP1 POP DUP2 DUP2 SUB PUSH1 0x0 DUP4 ADD MSTORE PUSH3 0xCFF DUP2 PUSH3 0xCBD JUMP JUMPDEST SWAP1 POP SWAP2 SWAP1 POP JUMP JUMPDEST PUSH1 0x0 DUP1 REVERT JUMPDEST PUSH1 0x0 DUP1 REVERT JUMPDEST PUSH32 0x4E487B7100000000000000000000000000000000000000000000000000000000 PUSH1 0x0 MSTORE PUSH1 0x41 PUSH1 0x4 MSTORE PUSH1 0x24 PUSH1 0x0 REVERT JUMPDEST PUSH3 0xD4A DUP3 PUSH3 0xA8D JUMP JUMPDEST DUP2 ADD DUP2 DUP2 LT PUSH8 0xFFFFFFFFFFFFFFFF DUP3 GT OR ISZERO PUSH3 0xD6C JUMPI PUSH3 0xD6B PUSH3 0xD10 JUMP JUMPDEST JUMPDEST DUP1 PUSH1 0x40 MSTORE POP POP POP JUMP JUMPDEST PUSH1 0x0 PUSH3 0xD81 PUSH3 0x796 JUMP JUMPDEST SWAP1 POP PUSH3 0xD8F DUP3 DUP3 PUSH3 0xD3F JUMP JUMPDEST SWAP2 SWAP1 POP JUMP JUMPDEST PUSH1 0x0 PUSH8 0xFFFFFFFFFFFFFFFF DUP3 GT ISZERO PUSH3 0xDB2 JUMPI PUSH3 0xDB1 PUSH3 0xD10 JUMP JUMPDEST JUMPDEST PUSH3 0xDBD DUP3 PUSH3 0xA8D JUMP JUMPDEST SWAP1 POP PUSH1 0x20 DUP2 ADD SWAP1 POP SWAP2 SWAP1 POP JUMP JUMPDEST PUSH1 0x0 PUSH3 0xDE1 PUSH3 0xDDB DUP5 PUSH3 0xD94 JUMP JUMPDEST PUSH3 0xD75 JUMP JUMPDEST SWAP1 POP DUP3 DUP2 MSTORE PUSH1 0x20 DUP2 ADD DUP5 DUP5 DUP5 ADD GT ISZERO PUSH3 0xE00 JUMPI PUSH3 0xDFF PUSH3 0xD0B JUMP JUMPDEST JUMPDEST PUSH3 0xE0D DUP5 DUP3 DUP6 PUSH3 0xA61 JUMP JUMPDEST POP SWAP4 SWAP3 POP POP POP JUMP JUMPDEST PUSH1 0x0 DUP3 PUSH1 0x1F DUP4 ADD SLT PUSH3 0xE2D JUMPI PUSH3 0xE2C PUSH3 0xD06 JUMP JUMPDEST JUMPDEST DUP2 MLOAD PUSH3 0xE3F DUP5 DUP3 PUSH1 0x20 DUP7 ADD PUSH3 0xDCA JUMP JUMPDEST SWAP2 POP POP SWAP3 SWAP2 POP POP JUMP JUMPDEST PUSH1 0x0 DUP1 PUSH1 0x40 DUP4 DUP6 SUB SLT ISZERO PUSH3 0xE62 JUMPI PUSH3 0xE61 PUSH3 0x7A0 JUMP JUMPDEST JUMPDEST PUSH1 0x0 DUP4 ADD MLOAD PUSH8 0xFFFFFFFFFFFFFFFF DUP2 GT ISZERO PUSH3 0xE83 JUMPI PUSH3 0xE82 PUSH3 0x7A5 JUMP JUMPDEST JUMPDEST PUSH3 0xE91 DUP6 DUP3 DUP7 ADD PUSH3 0xE15 JUMP JUMPDEST SWAP3 POP POP PUSH1 0x20 DUP4 ADD MLOAD PUSH8 0xFFFFFFFFFFFFFFFF DUP2 GT ISZERO PUSH3 0xEB5 JUMPI PUSH3 0xEB4 PUSH3 0x7A5 JUMP JUMPDEST JUMPDEST PUSH3 0xEC3 DUP6 DUP3 DUP7 ADD PUSH3 0xE15 JUMP JUMPDEST SWAP2 POP POP SWAP3 POP SWAP3 SWAP1 POP JUMP JUMPDEST PUSH32 0x4E487B7100000000000000000000000000000000000000000000000000000000 PUSH1 0x0 MSTORE PUSH1 0x32 PUSH1 0x4 MSTORE PUSH1 0x24 PUSH1 0x0 REVERT JUMPDEST PUSH1 0x0 DUP2 SWAP1 POP SWAP2 SWAP1 POP JUMP JUMPDEST PUSH3 0xF1B PUSH3 0xF15 DUP3 PUSH3 0x80F JUMP JUMPDEST PUSH3 0xEFC JUMP JUMPDEST DUP3 MSTORE POP POP JUMP JUMPDEST PUSH1 0x0 PUSH3 0xF2F DUP3 DUP6 PUSH3 0xF06 JUMP JUMPDEST PUSH1 0x20 DUP3 ADD SWAP2 POP PUSH3 0xF41 DUP3 DUP5 PUSH3 0xF06 JUMP JUMPDEST PUSH1 0x20 DUP3 ADD SWAP2 POP DUP2 SWAP1 POP SWAP4 SWAP3 POP POP POP JUMP JUMPDEST PUSH32 0x4E487B7100000000000000000000000000000000000000000000000000000000 PUSH1 0x0 MSTORE PUSH1 0x12 PUSH1 0x4 MSTORE PUSH1 0x24 PUSH1 0x0 REVERT JUMPDEST PUSH32 0x4E487B7100000000000000000000000000000000000000000000000000000000 PUSH1 0x0 MSTORE PUSH1 0x11 PUSH1 0x4 MSTORE PUSH1 0x24 PUSH1 0x0 REVERT JUMPDEST PUSH1 0x0 PUSH3 0xFBC DUP3 PUSH3 0x80F JUMP JUMPDEST SWAP2 POP PUSH3 0xFC9 DUP4 PUSH3 0x80F JUMP JUMPDEST SWAP3 POP DUP3 DUP3 ADD SWAP1 POP DUP1 DUP3 GT ISZERO PUSH3 0xFE4 JUMPI PUSH3 0xFE3 PUSH3 0xF80 JUMP JUMPDEST JUMPDEST SWAP3 SWAP2 POP POP JUMP JUMPDEST PUSH1 0x0 PUSH3 0xFF7 DUP3 PUSH3 0x80F JUMP JUMPDEST SWAP2 POP PUSH3 0x1004 DUP4 PUSH3 0x80F JUMP JUMPDEST SWAP3 POP DUP3 PUSH3 0x1017 JUMPI PUSH3 0x1016 PUSH3 0xF51 JUMP JUMPDEST JUMPDEST DUP3 DUP3 MOD SWAP1 POP SWAP3 SWAP2 POP POP JUMP JUMPDEST PUSH1 0x0 PUSH3 0x102F DUP3 PUSH3 0x80F JUMP JUMPDEST SWAP2 POP PUSH3 0x103C DUP4 PUSH3 0x80F JUMP JUMPDEST SWAP3 POP DUP3 DUP3 SUB SWAP1 POP DUP2 DUP2 GT ISZERO PUSH3 0x1057 JUMPI PUSH3 0x1056 PUSH3 0xF80 JUMP JUMPDEST JUMPDEST SWAP3 SWAP2 POP POP JUMP JUMPDEST PUSH1 0x0 PUSH3 0x106B DUP3 DUP10 PUSH3 0xF06 JUMP JUMPDEST PUSH1 0x20 DUP3 ADD SWAP2 POP PUSH3 0x107D DUP3 DUP9 PUSH3 0xF06 JUMP JUMPDEST PUSH1 0x20 DUP3 ADD SWAP2 POP PUSH3 0x108F DUP3 DUP8 PUSH3 0xF06 JUMP JUMPDEST PUSH1 0x20 DUP3 ADD SWAP2 POP PUSH3 0x10A1 DUP3 DUP7 PUSH3 0xF06 JUMP JUMPDEST PUSH1 0x20 DUP3 ADD SWAP2 POP PUSH3 0x10B3 DUP3 DUP6 PUSH3 0xF06 JUMP JUMPDEST PUSH1 0x20 DUP3 ADD SWAP2 POP PUSH3 0x10C5 DUP3 DUP5 PUSH3 0xF06 JUMP JUMPDEST PUSH1 0x20 DUP3 ADD SWAP2 POP DUP2 SWAP1 POP SWAP8 SWAP7 POP POP POP POP POP POP POP JUMP JUMPDEST PUSH1 0x80 MLOAD PUSH1 0xA0 MLOAD PUSH2 0x39CB PUSH3 0x110D PUSH1 0x0 CODECOPY PUSH1 0x0 DUP2 DUP2 PUSH2 0x2BA ADD MSTORE PUSH2 0x91A ADD MSTORE PUSH1 0x0 DUP2 DUP2 PUSH2 0xA1D ADD MSTORE PUSH2 0xBCE ADD MSTORE PUSH2 0x39CB PUSH1 0x0 RETURN INVALID PUSH1 0x80 PUSH1 0x40 MSTORE CALLVALUE DUP1 ISZERO PUSH2 0x10 JUMPI PUSH1 0x0 DUP1 REVERT JUMPDEST POP PUSH1 0x4 CALLDATASIZE LT PUSH2 0xA9 JUMPI PUSH1 0x0 CALLDATALOAD PUSH1 0xE0 SHR DUP1 PUSH4 0x554CDF10 GT PUSH2 0x71 JUMPI DUP1 PUSH4 0x554CDF10 EQ PUSH2 0x156 JUMPI DUP1 PUSH4 0x6EDC2393 EQ PUSH2 0x174 JUMPI DUP1 PUSH4 0x85C0205E EQ PUSH2 0x190 JUMPI DUP1 PUSH4 0xC1F0808A EQ PUSH2 0x1C0 JUMPI DUP1 PUSH4 0xD29E88D2 EQ PUSH2 0x1F0 JUMPI DUP1 PUSH4 0xD3894F7E EQ PUSH2 0x20C JUMPI PUSH2 0xA9 JUMP JUMPDEST DUP1 PUSH4 0x8DCD6FD EQ PUSH2 0xAE JUMPI DUP1 PUSH4 0x12065FE0 EQ PUSH2 0xCC JUMPI DUP1 PUSH4 0x12B0D400 EQ PUSH2 0xEA JUMPI DUP1 PUSH4 0x1E3F0320 EQ PUSH2 0x108 JUMPI DUP1 PUSH4 0x372744F5 EQ PUSH2 0x138 JUMPI JUMPDEST PUSH1 0x0 DUP1 REVERT JUMPDEST PUSH2 0xB6 PUSH2 0x22A JUMP JUMPDEST PUSH1 0x40 MLOAD PUSH2 0xC3 SWAP2 SWAP1 PUSH2 0x1EBB JUMP JUMPDEST PUSH1 0x40 MLOAD DUP1 SWAP2 SUB SWAP1 RETURN JUMPDEST PUSH2 0xD4 PUSH2 0x230 JUMP JUMPDEST PUSH1 0x40 MLOAD PUSH2 0xE1 SWAP2 SWAP1 PUSH2 0x1EBB JUMP JUMPDEST PUSH1 0x40 MLOAD DUP1 SWAP2 SUB SWAP1 RETURN JUMPDEST PUSH2 0xF2 PUSH2 0x277 JUMP JUMPDEST PUSH1 0x40 MLOAD PUSH2 0xFF SWAP2 SWAP1 PUSH2 0x1F17 JUMP JUMPDEST PUSH1 0x40 MLOAD DUP1 SWAP2 SUB SWAP1 RETURN JUMPDEST PUSH2 0x122 PUSH1 0x4 DUP1 CALLDATASIZE SUB DUP2 ADD SWAP1 PUSH2 0x11D SWAP2 SWAP1 PUSH2 0x1F7C JUMP JUMPDEST PUSH2 0x2A0 JUMP JUMPDEST PUSH1 0x40 MLOAD PUSH2 0x12F SWAP2 SWAP1 PUSH2 0x1FC2 JUMP JUMPDEST PUSH1 0x40 MLOAD DUP1 SWAP2 SUB SWAP1 RETURN JUMPDEST PUSH2 0x140 PUSH2 0x2B8 JUMP JUMPDEST PUSH1 0x40 MLOAD PUSH2 0x14D SWAP2 SWAP1 PUSH2 0x1EBB JUMP JUMPDEST PUSH1 0x40 MLOAD DUP1 SWAP2 SUB SWAP1 RETURN JUMPDEST PUSH2 0x15E PUSH2 0x2DC JUMP JUMPDEST PUSH1 0x40 MLOAD PUSH2 0x16B SWAP2 SWAP1 PUSH2 0x1F17 JUMP JUMPDEST PUSH1 0x40 MLOAD DUP1 SWAP2 SUB SWAP1 RETURN JUMPDEST PUSH2 0x18E PUSH1 0x4 DUP1 CALLDATASIZE SUB DUP2 ADD SWAP1 PUSH2 0x189 SWAP2 SWAP1 PUSH2 0x2066 JUMP JUMPDEST PUSH2 0x300 JUMP JUMPDEST STOP JUMPDEST PUSH2 0x1AA PUSH1 0x4 DUP1 CALLDATASIZE SUB DUP2 ADD SWAP1 PUSH2 0x1A5 SWAP2 SWAP1 PUSH2 0x213A JUMP JUMPDEST PUSH2 0x720 JUMP JUMPDEST PUSH1 0x40 MLOAD PUSH2 0x1B7 SWAP2 SWAP1 PUSH2 0x2231 JUMP JUMPDEST PUSH1 0x40 MLOAD DUP1 SWAP2 SUB SWAP1 RETURN JUMPDEST PUSH2 0x1DA PUSH1 0x4 DUP1 CALLDATASIZE SUB DUP2 ADD SWAP1 PUSH2 0x1D5 SWAP2 SWAP1 PUSH2 0x227F JUMP JUMPDEST PUSH2 0x9FB JUMP JUMPDEST PUSH1 0x40 MLOAD PUSH2 0x1E7 SWAP2 SWAP1 PUSH2 0x22C7 JUMP JUMPDEST PUSH1 0x40 MLOAD DUP1 SWAP2 SUB SWAP1 RETURN JUMPDEST PUSH2 0x20A PUSH1 0x4 DUP1 CALLDATASIZE SUB DUP2 ADD SWAP1 PUSH2 0x205 SWAP2 SWAP1 PUSH2 0x22E2 JUMP JUMPDEST PUSH2 0xA1B JUMP JUMPDEST STOP JUMPDEST PUSH2 0x214 PUSH2 0xBCC JUMP JUMPDEST PUSH1 0x40 MLOAD PUSH2 0x221 SWAP2 SWAP1 PUSH2 0x1F17 JUMP JUMPDEST PUSH1 0x40 MLOAD DUP1 SWAP2 SUB SWAP1 RETURN JUMPDEST PUSH1 0x2 SLOAD DUP2 JUMP JUMPDEST PUSH1 0x0 PUSH1 0x4 PUSH1 0x0 CALLER PUSH20 0xFFFFFFFFFFFFFFFFFFFFFFFFFFFFFFFFFFFFFFFF AND PUSH20 0xFFFFFFFFFFFFFFFFFFFFFFFFFFFFFFFFFFFFFFFF AND DUP2 MSTORE PUSH1 0x20 ADD SWAP1 DUP2 MSTORE PUSH1 0x20 ADD PUSH1 0x0 KECCAK256 SLOAD SWAP1 POP SWAP1 JUMP JUMPDEST PUSH1 0x0 DUP1 PUSH1 0x0 SWAP1 SLOAD SWAP1 PUSH2 0x100 EXP SWAP1 DIV PUSH20 0xFFFFFFFFFFFFFFFFFFFFFFFFFFFFFFFFFFFFFFFF AND SWAP1 POP SWAP1 JUMP JUMPDEST PUSH1 0x3 PUSH1 0x20 MSTORE DUP1 PUSH1 0x0 MSTORE PUSH1 0x40 PUSH1 0x0 KECCAK256 PUSH1 0x0 SWAP2 POP SWAP1 POP SLOAD DUP2 JUMP JUMPDEST PUSH32 0x0 DUP2 JUMP JUMPDEST PUSH1 0x0 DUP1 SLOAD SWAP1 PUSH2 0x100 EXP SWAP1 DIV PUSH20 0xFFFFFFFFFFFFFFFFFFFFFFFFFFFFFFFFFFFFFFFF AND DUP2 JUMP JUMPDEST PUSH1 0x0 DUP2 DUP1 PUSH1 0x80 ADD SWAP1 PUSH2 0x312 SWAP2 SWAP1 PUSH2 0x2327 JUMP JUMPDEST PUSH1 0x0 ADD CALLDATALOAD SWAP1 POP PUSH1 0x5 PUSH1 0x0 DUP3 DUP2 MSTORE PUSH1 0x20 ADD SWAP1 DUP2 MSTORE PUSH1 0x20 ADD PUSH1 0x0 KECCAK256 PUSH1 0x0 SWAP1 SLOAD SWAP1 PUSH2 0x100 EXP SWAP1 DIV PUSH1 0xFF AND ISZERO PUSH2 0x379 JUMPI PUSH1 0x40 MLOAD PUSH32 0x8C379A000000000000000000000000000000000000000000000000000000000 DUP2 MSTORE PUSH1 0x4 ADD PUSH2 0x370 SWAP1 PUSH2 0x23AC JUMP JUMPDEST PUSH1 0x40 MLOAD DUP1 SWAP2 SUB SWAP1 REVERT JUMPDEST PUSH1 0x1 DUP3 DUP1 PUSH1 0xA0 ADD SWAP1 PUSH2 0x38B SWAP2 SWAP1 PUSH2 0x23CC JUMP JUMPDEST PUSH1 0xE0 ADD PUSH1 0x20 DUP2 ADD SWAP1 PUSH2 0x39D SWAP2 SWAP1 PUSH2 0x242E JUMP JUMPDEST PUSH1 0xFF AND EQ PUSH2 0x3E0 JUMPI PUSH1 0x40 MLOAD PUSH32 0x8C379A000000000000000000000000000000000000000000000000000000000 DUP2 MSTORE PUSH1 0x4 ADD PUSH2 0x3D7 SWAP1 PUSH2 0x24A7 JUMP JUMPDEST PUSH1 0x40 MLOAD DUP1 SWAP2 SUB SWAP1 REVERT JUMPDEST PUSH1 0x0 DUP1 SLOAD SWAP1 PUSH2 0x100 EXP SWAP1 DIV PUSH20 0xFFFFFFFFFFFFFFFFFFFFFFFFFFFFFFFFFFFFFFFF AND PUSH20 0xFFFFFFFFFFFFFFFFFFFFFFFFFFFFFFFFFFFFFFFF AND DUP3 DUP1 PUSH1 0xA0 ADD SWAP1 PUSH2 0x427 SWAP2 SWAP1 PUSH2 0x23CC JUMP JUMPDEST PUSH1 0x80 ADD PUSH1 0x20 DUP2 ADD SWAP1 PUSH2 0x439 SWAP2 SWAP1 PUSH2 0x24C7 JUMP JUMPDEST PUSH20 0xFFFFFFFFFFFFFFFFFFFFFFFFFFFFFFFFFFFFFFFF AND EQ PUSH2 0x48F JUMPI PUSH1 0x40 MLOAD PUSH32 0x8C379A000000000000000000000000000000000000000000000000000000000 DUP2 MSTORE PUSH1 0x4 ADD PUSH2 0x486 SWAP1 PUSH2 0x2540 JUMP JUMPDEST PUSH1 0x40 MLOAD DUP1 SWAP2 SUB SWAP1 REVERT JUMPDEST PUSH1 0x0 DUP3 DUP1 PUSH1 0xA0 ADD SWAP1 PUSH2 0x4A1 SWAP2 SWAP1 PUSH2 0x23CC JUMP JUMPDEST PUSH1 0xA0 ADD CALLDATALOAD GT PUSH2 0x4E5 JUMPI PUSH1 0x40 MLOAD PUSH32 0x8C379A000000000000000000000000000000000000000000000000000000000 DUP2 MSTORE PUSH1 0x4 ADD PUSH2 0x4DC SWAP1 PUSH2 0x25AC JUMP JUMPDEST PUSH1 0x40 MLOAD DUP1 SWAP2 SUB SWAP1 REVERT JUMPDEST PUSH1 0x0 PUSH1 0x3 PUSH1 0x0 DUP5 PUSH1 0x40 ADD PUSH1 0x20 DUP2 ADD SWAP1 PUSH2 0x4FE SWAP2 SWAP1 PUSH2 0x1F7C JUMP JUMPDEST PUSH8 0xFFFFFFFFFFFFFFFF AND PUSH8 0xFFFFFFFFFFFFFFFF AND DUP2 MSTORE PUSH1 0x20 ADD SWAP1 DUP2 MSTORE PUSH1 0x20 ADD PUSH1 0x0 KECCAK256 SLOAD SWAP1 POP PUSH1 0x0 DUP1 SHL DUP2 SUB PUSH2 0x568 JUMPI PUSH1 0x40 MLOAD PUSH32 0x8C379A000000000000000000000000000000000000000000000000000000000 DUP2 MSTORE PUSH1 0x4 ADD PUSH2 0x55F SWAP1 PUSH2 0x2618 JUMP JUMPDEST PUSH1 0x40 MLOAD DUP1 SWAP2 SUB SWAP1 REVERT JUMPDEST PUSH1 0x0 DUP4 PUSH1 0x40 MLOAD PUSH1 0x20 ADD PUSH2 0x57B SWAP2 SWAP1 PUSH2 0x2F54 JUMP JUMPDEST PUSH1 0x40 MLOAD PUSH1 0x20 DUP2 DUP4 SUB SUB DUP2 MSTORE SWAP1 PUSH1 0x40 MSTORE DUP1 MLOAD SWAP1 PUSH1 0x20 ADD KECCAK256 SWAP1 POP PUSH2 0x59F DUP7 DUP7 DUP5 DUP5 PUSH2 0xBF0 JUMP JUMPDEST PUSH2 0x5DE JUMPI PUSH1 0x40 MLOAD PUSH32 0x8C379A000000000000000000000000000000000000000000000000000000000 DUP2 MSTORE PUSH1 0x4 ADD PUSH2 0x5D5 SWAP1 PUSH2 0x2FC2 JUMP JUMPDEST PUSH1 0x40 MLOAD DUP1 SWAP2 SUB SWAP1 REVERT JUMPDEST PUSH1 0x1 PUSH1 0x5 PUSH1 0x0 DUP6 DUP2 MSTORE PUSH1 0x20 ADD SWAP1 DUP2 MSTORE PUSH1 0x20 ADD PUSH1 0x0 KECCAK256 PUSH1 0x0 PUSH2 0x100 EXP DUP2 SLOAD DUP2 PUSH1 0xFF MUL NOT AND SWAP1 DUP4 ISZERO ISZERO MUL OR SWAP1 SSTORE POP DUP4 DUP1 PUSH1 0xA0 ADD SWAP1 PUSH2 0x61A SWAP2 SWAP1 PUSH2 0x23CC JUMP JUMPDEST PUSH1 0xA0 ADD CALLDATALOAD PUSH1 0x4 PUSH1 0x0 DUP7 DUP1 PUSH1 0xA0 ADD SWAP1 PUSH2 0x632 SWAP2 SWAP1 PUSH2 0x23CC JUMP JUMPDEST PUSH1 0x40 ADD PUSH1 0x20 DUP2 ADD SWAP1 PUSH2 0x644 SWAP2 SWAP1 PUSH2 0x24C7 JUMP JUMPDEST PUSH20 0xFFFFFFFFFFFFFFFFFFFFFFFFFFFFFFFFFFFFFFFF AND PUSH20 0xFFFFFFFFFFFFFFFFFFFFFFFFFFFFFFFFFFFFFFFF AND DUP2 MSTORE PUSH1 0x20 ADD SWAP1 DUP2 MSTORE PUSH1 0x20 ADD PUSH1 0x0 KECCAK256 PUSH1 0x0 DUP3 DUP3 SLOAD PUSH2 0x68D SWAP2 SWAP1 PUSH2 0x3011 JUMP JUMPDEST SWAP3 POP POP DUP2 SWAP1 SSTORE POP DUP4 DUP1 PUSH1 0xA0 ADD SWAP1 PUSH2 0x6A4 SWAP2 SWAP1 PUSH2 0x23CC JUMP JUMPDEST PUSH1 0x40 ADD PUSH1 0x20 DUP2 ADD SWAP1 PUSH2 0x6B6 SWAP2 SWAP1 PUSH2 0x24C7 JUMP JUMPDEST PUSH20 0xFFFFFFFFFFFFFFFFFFFFFFFFFFFFFFFFFFFFFFFF AND PUSH32 0x1A688E52F070BF096D28D8DAFC3394175EBD19B031C2BB0263CC75FD324F90F1 DUP6 DUP1 PUSH1 0xA0 ADD SWAP1 PUSH2 0x6FD SWAP2 SWAP1 PUSH2 0x23CC JUMP JUMPDEST PUSH1 0xA0 ADD CALLDATALOAD DUP6 PUSH1 0x40 MLOAD PUSH2 0x710 SWAP3 SWAP2 SWAP1 PUSH2 0x3045 JUMP JUMPDEST PUSH1 0x40 MLOAD DUP1 SWAP2 SUB SWAP1 LOG2 POP POP POP POP POP POP JUMP JUMPDEST PUSH1 0x60 PUSH1 0x0 DUP5 GT PUSH2 0x765 JUMPI PUSH1 0x40 MLOAD PUSH32 0x8C379A000000000000000000000000000000000000000000000000000000000 DUP2 MSTORE PUSH1 0x4 ADD PUSH2 0x75C SWAP1 PUSH2 0x30BA JUMP JUMPDEST PUSH1 0x40 MLOAD DUP1 SWAP2 SUB SWAP1 REVERT JUMPDEST DUP4 PUSH1 0x4 PUSH1 0x0 CALLER PUSH20 0xFFFFFFFFFFFFFFFFFFFFFFFFFFFFFFFFFFFFFFFF AND PUSH20 0xFFFFFFFFFFFFFFFFFFFFFFFFFFFFFFFFFFFFFFFF AND DUP2 MSTORE PUSH1 0x20 ADD SWAP1 DUP2 MSTORE PUSH1 0x20 ADD PUSH1 0x0 KECCAK256 SLOAD LT ISZERO PUSH2 0x7E7 JUMPI PUSH1 0x40 MLOAD PUSH32 0x8C379A000000000000000000000000000000000000000000000000000000000 DUP2 MSTORE PUSH1 0x4 ADD PUSH2 0x7DE SWAP1 PUSH2 0x3126 JUMP JUMPDEST PUSH1 0x40 MLOAD DUP1 SWAP2 SUB SWAP1 REVERT JUMPDEST PUSH1 0x0 PUSH20 0xFFFFFFFFFFFFFFFFFFFFFFFFFFFFFFFFFFFFFFFF AND DUP6 PUSH20 0xFFFFFFFFFFFFFFFFFFFFFFFFFFFFFFFFFFFFFFFF AND SUB PUSH2 0x856 JUMPI PUSH1 0x40 MLOAD PUSH32 0x8C379A000000000000000000000000000000000000000000000000000000000 DUP2 MSTORE PUSH1 0x4 ADD PUSH2 0x84D SWAP1 PUSH2 0x3192 JUMP JUMPDEST PUSH1 0x40 MLOAD DUP1 SWAP2 SUB SWAP1 REVERT JUMPDEST DUP4 PUSH1 0x4 PUSH1 0x0 CALLER PUSH20 0xFFFFFFFFFFFFFFFFFFFFFFFFFFFFFFFFFFFFFFFF AND PUSH20 0xFFFFFFFFFFFFFFFFFFFFFFFFFFFFFFFFFFFFFFFF AND DUP2 MSTORE PUSH1 0x20 ADD SWAP1 DUP2 MSTORE PUSH1 0x20 ADD PUSH1 0x0 KECCAK256 PUSH1 0x0 DUP3 DUP3 SLOAD PUSH2 0x8A5 SWAP2 SWAP1 PUSH2 0x31B2 JUMP JUMPDEST SWAP3 POP POP DUP2 SWAP1 SSTORE POP PUSH1 0x0 PUSH1 0x40 MLOAD DUP1 PUSH1 0xE0 ADD PUSH1 0x40 MSTORE DUP1 PUSH1 0x2 SLOAD PUSH8 0xFFFFFFFFFFFFFFFF AND DUP2 MSTORE PUSH1 0x20 ADD DUP6 DUP2 MSTORE PUSH1 0x20 ADD DUP5 PUSH8 0xFFFFFFFFFFFFFFFF AND DUP2 MSTORE PUSH1 0x20 ADD DUP8 PUSH20 0xFFFFFFFFFFFFFFFFFFFFFFFFFFFFFFFFFFFFFFFF AND DUP2 MSTORE PUSH1 0x20 ADD DUP7 DUP2 MSTORE PUSH1 0x20 ADD PUSH1 0x40 MLOAD DUP1 PUSH1 0x20 ADD PUSH1 0x40 MSTORE DUP1 PUSH1 0x0 DUP2 MSTORE POP DUP2 MSTORE PUSH1 0x20 ADD PUSH32 0x0 DUP2 MSTORE POP SWAP1 POP PUSH1 0x0 PUSH2 0x96D PUSH1 0x0 DUP1 SLOAD SWAP1 PUSH2 0x100 EXP SWAP1 DIV PUSH20 0xFFFFFFFFFFFFFFFFFFFFFFFFFFFFFFFFFFFFFFFF AND PUSH1 0x1 SLOAD DUP5 PUSH2 0xCA2 JUMP JUMPDEST SWAP1 POP PUSH1 0x2 PUSH1 0x0 DUP2 SLOAD DUP1 SWAP3 SWAP2 SWAP1 PUSH2 0x982 SWAP1 PUSH2 0x31E6 JUMP JUMPDEST SWAP2 SWAP1 POP SSTORE POP DUP7 PUSH20 0xFFFFFFFFFFFFFFFFFFFFFFFFFFFFFFFFFFFFFFFF AND CALLER PUSH20 0xFFFFFFFFFFFFFFFFFFFFFFFFFFFFFFFFFFFFFFFF AND PUSH32 0x5BA1CD78E703D8DA02BC93425F2911A460CB6D94EF7BB7E7AF681DAE19830068 DUP9 DUP5 PUSH1 0x40 MLOAD PUSH2 0x9E6 SWAP3 SWAP2 SWAP1 PUSH2 0x322E JUMP JUMPDEST PUSH1 0x40 MLOAD DUP1 SWAP2 SUB SWAP1 LOG3 DUP1 SWAP3 POP POP POP SWAP5 SWAP4 POP POP POP POP JUMP JUMPDEST PUSH1 0x5 PUSH1 0x20 MSTORE DUP1 PUSH1 0x0 MSTORE PUSH1 0x40 PUSH1 0x0 KECCAK256 PUSH1 0x0 SWAP2 POP SLOAD SWAP1 PUSH2 0x100 EXP SWAP1 DIV PUSH1 0xFF AND DUP2 JUMP JUMPDEST PUSH32 0x0 PUSH20 0xFFFFFFFFFFFFFFFFFFFFFFFFFFFFFFFFFFFFFFFF AND CALLER PUSH20 0xFFFFFFFFFFFFFFFFFFFFFFFFFFFFFFFFFFFFFFFF AND EQ PUSH2 0xAA9 JUMPI PUSH1 0x40 MLOAD PUSH32 0x8C379A000000000000000000000000000000000000000000000000000000000 DUP2 MSTORE PUSH1 0x4 ADD PUSH2 0xAA0 SWAP1 PUSH2 0x32AA JUMP JUMPDEST PUSH1 0x40 MLOAD DUP1 SWAP2 SUB SWAP1 REVERT JUMPDEST PUSH1 0x0 DUP1 SHL PUSH1 0x3 PUSH1 0x0 DUP5 PUSH8 0xFFFFFFFFFFFFFFFF AND PUSH8 0xFFFFFFFFFFFFFFFF AND DUP2 MSTORE PUSH1 0x20 ADD SWAP1 DUP2 MSTORE PUSH1 0x20 ADD PUSH1 0x0 KECCAK256 SLOAD EQ PUSH2 0xB15 JUMPI PUSH1 0x40 MLOAD PUSH32 0x8C379A000000000000000000000000000000000000000000000000000000000 DUP2 MSTORE PUSH1 0x4 ADD PUSH2 0xB0C SWAP1 PUSH2 0x3316 JUMP JUMPDEST PUSH1 0x40 MLOAD DUP1 SWAP2 SUB SWAP1 REVERT JUMPDEST PUSH1 0x0 DUP1 SHL DUP2 SUB PUSH2 0xB5A JUMPI PUSH1 0x40 MLOAD PUSH32 0x8C379A000000000000000000000000000000000000000000000000000000000 DUP2 MSTORE PUSH1 0x4 ADD PUSH2 0xB51 SWAP1 PUSH2 0x3382 JUMP JUMPDEST PUSH1 0x40 MLOAD DUP1 SWAP2 SUB SWAP1 REVERT JUMPDEST DUP1 PUSH1 0x3 PUSH1 0x0 DUP5 PUSH8 0xFFFFFFFFFFFFFFFF AND PUSH8 0xFFFFFFFFFFFFFFFF AND DUP2 MSTORE PUSH1 0x20 ADD SWAP1 DUP2 MSTORE PUSH1 0x20 ADD PUSH1 0x0 KECCAK256 DUP2 SWAP1 SSTORE POP DUP2 PUSH8 0xFFFFFFFFFFFFFFFF AND PUSH32 0xA0FB0D10EF4173852EB78FDB26BB50C4B6252E1DC9B179E3230DD0810979EFDF DUP3 PUSH1 0x40 MLOAD PUSH2 0xBC0 SWAP2 SWAP1 PUSH2 0x1FC2 JUMP JUMPDEST PUSH1 0x40 MLOAD DUP1 SWAP2 SUB SWAP1 LOG2 POP POP JUMP JUMPDEST PUSH32 0x0 DUP2 JUMP JUMPDEST PUSH1 0x0 DUP1 DUP3 SWAP1 POP PUSH1 0x0 JUMPDEST DUP7 DUP7 SWAP1 POP DUP2 LT ISZERO PUSH2 0xC93 JUMPI PUSH1 0x0 DUP8 DUP8 DUP4 DUP2 DUP2 LT PUSH2 0xC19 JUMPI PUSH2 0xC18 PUSH2 0x33A2 JUMP JUMPDEST JUMPDEST SWAP1 POP PUSH1 0x20 MUL ADD CALLDATALOAD SWAP1 POP DUP1 DUP4 GT PUSH2 0xC59 JUMPI DUP3 DUP2 PUSH1 0x40 MLOAD PUSH1 0x20 ADD PUSH2 0xC3C SWAP3 SWAP2 SWAP1 PUSH2 0x33F2 JUMP JUMPDEST PUSH1 0x40 MLOAD PUSH1 0x20 DUP2 DUP4 SUB SUB DUP2 MSTORE SWAP1 PUSH1 0x40 MSTORE DUP1 MLOAD SWAP1 PUSH1 0x20 ADD KECCAK256 SWAP3 POP PUSH2 0xC85 JUMP JUMPDEST DUP1 DUP4 PUSH1 0x40 MLOAD PUSH1 0x20 ADD PUSH2 0xC6C SWAP3 SWAP2 SWAP1 PUSH2 0x33F2 JUMP JUMPDEST PUSH1 0x40 MLOAD PUSH1 0x20 DUP2 DUP4 SUB SUB DUP2 MSTORE SWAP1 PUSH1 0x40 MSTORE DUP1 MLOAD SWAP1 PUSH1 0x20 ADD KECCAK256 SWAP3 POP JUMPDEST POP DUP1 DUP1 PUSH1 0x1 ADD SWAP2 POP POP PUSH2 0xBF9 JUMP JUMPDEST POP DUP4 DUP2 EQ SWAP2 POP POP SWAP5 SWAP4 POP POP POP POP JUMP JUMPDEST PUSH1 0x60 PUSH1 0x0 PUSH2 0xCB1 DUP4 DUP7 DUP7 PUSH2 0xD08 JUMP JUMPDEST SWAP1 POP PUSH1 0x23 PUSH1 0x2 DUP5 PUSH1 0xC0 ADD MLOAD PUSH2 0xCC6 SWAP2 SWAP1 PUSH2 0x341E JUMP JUMPDEST PUSH1 0x1B DUP4 PUSH1 0x40 ADD MLOAD PUSH2 0xCD7 SWAP2 SWAP1 PUSH2 0x31B2 JUMP JUMPDEST PUSH2 0xCE1 SWAP2 SWAP1 PUSH2 0x3011 JUMP JUMPDEST PUSH2 0xCEB SWAP2 SWAP1 PUSH2 0x3011 JUMP JUMPDEST DUP2 PUSH1 0x40 ADD DUP2 DUP2 MSTORE POP POP PUSH2 0xCFE DUP4 DUP3 PUSH2 0xD83 JUMP JUMPDEST SWAP2 POP POP SWAP4 SWAP3 POP POP POP JUMP JUMPDEST PUSH2 0xD10 PUSH2 0x1E7B JUMP JUMPDEST PUSH1 0x0 PUSH2 0xD40 DUP6 PUSH1 0x40 MLOAD DUP1 PUSH1 0x60 ADD PUSH1 0x40 MSTORE DUP1 PUSH1 0x0 DUP1 SHL DUP2 MSTORE PUSH1 0x20 ADD PUSH1 0x0 DUP1 SHL DUP2 MSTORE PUSH1 0x20 ADD DUP9 PUSH1 0xC0 ADD MLOAD DUP2 MSTORE POP PUSH2 0xD83 JUMP JUMPDEST SWAP1 POP PUSH1 0x0 DUP2 PUSH1 0x40 MLOAD PUSH1 0x20 ADD PUSH2 0xD55 SWAP2 SWAP1 PUSH2 0x349C JUMP JUMPDEST PUSH1 0x40 MLOAD PUSH1 0x20 DUP2 DUP4 SUB SUB DUP2 MSTORE SWAP1 PUSH1 0x40 MSTORE DUP1 MLOAD SWAP1 PUSH1 0x20 ADD KECCAK256 SWAP1 POP PUSH2 0xD78 DUP6 DUP6 DUP4 PUSH2 0xF90 JUMP JUMPDEST SWAP3 POP POP POP SWAP4 SWAP3 POP POP POP JUMP JUMPDEST PUSH1 0x60 PUSH1 0x0 PUSH1 0x9 PUSH8 0xFFFFFFFFFFFFFFFF DUP2 GT ISZERO PUSH2 0xDA2 JUMPI PUSH2 0xDA1 PUSH2 0x34B3 JUMP JUMPDEST JUMPDEST PUSH1 0x40 MLOAD SWAP1 DUP1 DUP3 MSTORE DUP1 PUSH1 0x20 MUL PUSH1 0x20 ADD DUP3 ADD PUSH1 0x40 MSTORE DUP1 ISZERO PUSH2 0xDD5 JUMPI DUP2 PUSH1 0x20 ADD JUMPDEST PUSH1 0x60 DUP2 MSTORE PUSH1 0x20 ADD SWAP1 PUSH1 0x1 SWAP1 SUB SWAP1 DUP2 PUSH2 0xDC0 JUMPI SWAP1 POP JUMPDEST POP SWAP1 POP PUSH2 0xDEF DUP5 PUSH1 0x0 ADD MLOAD PUSH8 0xFFFFFFFFFFFFFFFF AND PUSH2 0x1014 JUMP JUMPDEST DUP2 PUSH1 0x0 DUP2 MLOAD DUP2 LT PUSH2 0xE03 JUMPI PUSH2 0xE02 PUSH2 0x33A2 JUMP JUMPDEST JUMPDEST PUSH1 0x20 MUL PUSH1 0x20 ADD ADD DUP2 SWAP1 MSTORE POP PUSH2 0xE1B DUP5 PUSH1 0x20 ADD MLOAD PUSH2 0x1014 JUMP JUMPDEST DUP2 PUSH1 0x1 DUP2 MLOAD DUP2 LT PUSH2 0xE2F JUMPI PUSH2 0xE2E PUSH2 0x33A2 JUMP JUMPDEST JUMPDEST PUSH1 0x20 MUL PUSH1 0x20 ADD ADD DUP2 SWAP1 MSTORE POP PUSH2 0xE51 DUP5 PUSH1 0x40 ADD MLOAD PUSH8 0xFFFFFFFFFFFFFFFF AND PUSH2 0x1014 JUMP JUMPDEST DUP2 PUSH1 0x2 DUP2 MLOAD DUP2 LT PUSH2 0xE65 JUMPI PUSH2 0xE64 PUSH2 0x33A2 JUMP JUMPDEST JUMPDEST PUSH1 0x20 MUL PUSH1 0x20 ADD ADD DUP2 SWAP1 MSTORE POP PUSH2 0xE7D DUP5 PUSH1 0x60 ADD MLOAD PUSH2 0x102E JUMP JUMPDEST DUP2 PUSH1 0x3 DUP2 MLOAD DUP2 LT PUSH2 0xE91 JUMPI PUSH2 0xE90 PUSH2 0x33A2 JUMP JUMPDEST JUMPDEST PUSH1 0x20 MUL PUSH1 0x20 ADD ADD DUP2 SWAP1 MSTORE POP PUSH2 0xEA9 DUP5 PUSH1 0x80 ADD MLOAD PUSH2 0x1014 JUMP JUMPDEST DUP2 PUSH1 0x4 DUP2 MLOAD DUP2 LT PUSH2 0xEBD JUMPI PUSH2 0xEBC PUSH2 0x33A2 JUMP JUMPDEST JUMPDEST PUSH1 0x20 MUL PUSH1 0x20 ADD ADD DUP2 SWAP1 MSTORE POP PUSH2 0xED5 DUP5 PUSH1 0xA0 ADD MLOAD PUSH2 0x105F JUMP JUMPDEST DUP2 PUSH1 0x5 DUP2 MLOAD DUP2 LT PUSH2 0xEE9 JUMPI PUSH2 0xEE8 PUSH2 0x33A2 JUMP JUMPDEST JUMPDEST PUSH1 0x20 MUL PUSH1 0x20 ADD ADD DUP2 SWAP1 MSTORE POP PUSH2 0xF01 DUP4 PUSH1 0x40 ADD MLOAD PUSH2 0x1014 JUMP JUMPDEST DUP2 PUSH1 0x6 DUP2 MLOAD DUP2 LT PUSH2 0xF15 JUMPI PUSH2 0xF14 PUSH2 0x33A2 JUMP JUMPDEST JUMPDEST PUSH1 0x20 MUL PUSH1 0x20 ADD ADD DUP2 SWAP1 MSTORE POP PUSH2 0xF30 DUP4 PUSH1 0x0 ADD MLOAD PUSH1 0x0 SHR PUSH2 0x1014 JUMP JUMPDEST DUP2 PUSH1 0x7 DUP2 MLOAD DUP2 LT PUSH2 0xF44 JUMPI PUSH2 0xF43 PUSH2 0x33A2 JUMP JUMPDEST JUMPDEST PUSH1 0x20 MUL PUSH1 0x20 ADD ADD DUP2 SWAP1 MSTORE POP PUSH2 0xF5F DUP4 PUSH1 0x20 ADD MLOAD PUSH1 0x0 SHR PUSH2 0x1014 JUMP JUMPDEST DUP2 PUSH1 0x8 DUP2 MLOAD DUP2 LT PUSH2 0xF73 JUMPI PUSH2 0xF72 PUSH2 0x33A2 JUMP JUMPDEST JUMPDEST PUSH1 0x20 MUL PUSH1 0x20 ADD ADD DUP2 SWAP1 MSTORE POP PUSH2 0xF87 DUP2 PUSH2 0x10DD JUMP JUMPDEST SWAP2 POP POP SWAP3 SWAP2 POP POP JUMP JUMPDEST PUSH2 0xF98 PUSH2 0x1E7B JUMP JUMPDEST PUSH1 0x0 PUSH2 0xFF4 PUSH1 0x4 DUP6 PUSH1 0x40 MLOAD PUSH1 0x20 ADD PUSH2 0xFB0 SWAP2 SWAP1 PUSH2 0x34E2 JUMP JUMPDEST PUSH1 0x40 MLOAD PUSH1 0x20 DUP2 DUP4 SUB SUB DUP2 MSTORE SWAP1 PUSH1 0x40 MSTORE DUP6 PUSH1 0x40 MLOAD PUSH1 0x20 ADD PUSH2 0xFD0 SWAP2 SWAP1 PUSH2 0x34E2 JUMP JUMPDEST PUSH1 0x40 MLOAD PUSH1 0x20 DUP2 DUP4 SUB SUB DUP2 MSTORE SWAP1 PUSH1 0x40 MSTORE PUSH1 0x40 MLOAD DUP1 PUSH1 0x20 ADD PUSH1 0x40 MSTORE DUP1 PUSH1 0x0 DUP2 MSTORE POP PUSH2 0x1121 JUMP JUMPDEST SWAP1 POP PUSH2 0xFFF DUP2 PUSH2 0x1216 JUMP JUMPDEST SWAP2 POP PUSH2 0x100C DUP6 DUP5 DUP5 PUSH2 0x1754 JUMP JUMPDEST POP SWAP4 SWAP3 POP POP POP JUMP JUMPDEST PUSH1 0x60 PUSH2 0x1027 PUSH2 0x1022 DUP4 PUSH2 0x18BC JUMP JUMPDEST PUSH2 0x105F JUMP JUMPDEST SWAP1 POP SWAP2 SWAP1 POP JUMP JUMPDEST PUSH1 0x60 PUSH2 0x1058 DUP3 PUSH1 0x40 MLOAD PUSH1 0x20 ADD PUSH2 0x1044 SWAP2 SWAP1 PUSH2 0x3545 JUMP JUMPDEST PUSH1 0x40 MLOAD PUSH1 0x20 DUP2 DUP4 SUB SUB DUP2 MSTORE SWAP1 PUSH1 0x40 MSTORE PUSH2 0x105F JUMP JUMPDEST SWAP1 POP SWAP2 SWAP1 POP JUMP JUMPDEST PUSH1 0x60 DUP1 PUSH1 0x1 DUP4 MLOAD EQ DUP1 ISZERO PUSH2 0x1097 JUMPI POP PUSH1 0x80 DUP4 PUSH1 0x0 DUP2 MLOAD DUP2 LT PUSH2 0x1084 JUMPI PUSH2 0x1083 PUSH2 0x33A2 JUMP JUMPDEST JUMPDEST PUSH1 0x20 ADD ADD MLOAD PUSH1 0xF8 SHR PUSH1 0xF8 SHL PUSH1 0xF8 SHR PUSH1 0xFF AND LT JUMPDEST ISZERO PUSH2 0x10A4 JUMPI DUP3 SWAP1 POP PUSH2 0x10D4 JUMP JUMPDEST PUSH2 0x10B0 DUP4 MLOAD PUSH1 0x80 PUSH2 0x1A33 JUMP JUMPDEST DUP4 PUSH1 0x40 MLOAD PUSH1 0x20 ADD PUSH2 0x10C2 SWAP3 SWAP2 SWAP1 PUSH2 0x3560 JUMP JUMPDEST PUSH1 0x40 MLOAD PUSH1 0x20 DUP2 DUP4 SUB SUB DUP2 MSTORE SWAP1 PUSH1 0x40 MSTORE SWAP1 POP JUMPDEST DUP1 SWAP2 POP POP SWAP2 SWAP1 POP JUMP JUMPDEST PUSH1 0x60 PUSH1 0x0 PUSH2 0x10EA DUP4 PUSH2 0x1C7F JUMP JUMPDEST SWAP1 POP PUSH2 0x10F8 DUP2 MLOAD PUSH1 0xC0 PUSH2 0x1A33 JUMP JUMPDEST DUP2 PUSH1 0x40 MLOAD PUSH1 0x20 ADD PUSH2 0x110A SWAP3 SWAP2 SWAP1 PUSH2 0x3560 JUMP JUMPDEST PUSH1 0x40 MLOAD PUSH1 0x20 DUP2 DUP4 SUB SUB DUP2 MSTORE SWAP1 PUSH1 0x40 MSTORE SWAP2 POP POP SWAP2 SWAP1 POP JUMP JUMPDEST PUSH1 0x60 PUSH1 0x0 DUP1 PUSH20 0x100000000000000000000000000000000000006 PUSH20 0xFFFFFFFFFFFFFFFFFFFFFFFFFFFFFFFFFFFFFFFF AND DUP8 DUP8 DUP8 DUP8 PUSH1 0x40 MLOAD PUSH1 0x20 ADD PUSH2 0x1168 SWAP5 SWAP4 SWAP3 SWAP2 SWAP1 PUSH2 0x35FB JUMP JUMPDEST PUSH1 0x40 MLOAD PUSH1 0x20 DUP2 DUP4 SUB SUB DUP2 MSTORE SWAP1 PUSH1 0x40 MSTORE PUSH1 0x40 MLOAD PUSH2 0x1184 SWAP2 SWAP1 PUSH2 0x349C JUMP JUMPDEST PUSH1 0x0 PUSH1 0x40 MLOAD DUP1 DUP4 SUB DUP2 DUP6 GAS STATICCALL SWAP2 POP POP RETURNDATASIZE DUP1 PUSH1 0x0 DUP2 EQ PUSH2 0x11BF JUMPI PUSH1 0x40 MLOAD SWAP2 POP PUSH1 0x1F NOT PUSH1 0x3F RETURNDATASIZE ADD AND DUP3 ADD PUSH1 0x40 MSTORE RETURNDATASIZE DUP3 MSTORE RETURNDATASIZE PUSH1 0x0 PUSH1 0x20 DUP5 ADD RETURNDATACOPY PUSH2 0x11C4 JUMP JUMPDEST PUSH1 0x60 SWAP2 POP JUMPDEST POP SWAP2 POP SWAP2 POP DUP2 PUSH2 0x1209 JUMPI PUSH1 0x40 MLOAD PUSH32 0x8C379A000000000000000000000000000000000000000000000000000000000 DUP2 MSTORE PUSH1 0x4 ADD PUSH2 0x1200 SWAP1 PUSH2 0x36A1 JUMP JUMPDEST PUSH1 0x40 MLOAD DUP1 SWAP2 SUB SWAP1 REVERT JUMPDEST DUP1 SWAP3 POP POP POP SWAP5 SWAP4 POP POP POP POP JUMP JUMPDEST PUSH2 0x121E PUSH2 0x1E7B JUMP JUMPDEST PUSH1 0x8 DUP3 MLOAD LT ISZERO PUSH2 0x125A JUMPI PUSH1 0x40 MLOAD PUSH32 0x86CD05C500000000000000000000000000000000000000000000000000000000 DUP2 MSTORE PUSH1 0x4 ADD PUSH1 0x40 MLOAD DUP1 SWAP2 SUB SWAP1 REVERT JUMPDEST PUSH1 0x30 PUSH1 0xF8 SHL DUP3 PUSH1 0x0 DUP2 MLOAD DUP2 LT PUSH2 0x1273 JUMPI PUSH2 0x1272 PUSH2 0x33A2 JUMP JUMPDEST JUMPDEST PUSH1 0x20 ADD ADD MLOAD PUSH1 0xF8 SHR PUSH1 0xF8 SHL PUSH31 0xFFFFFFFFFFFFFFFFFFFFFFFFFFFFFFFFFFFFFFFFFFFFFFFFFFFFFFFFFFFFFF NOT AND EQ PUSH2 0x12D7 JUMPI PUSH1 0x40 MLOAD PUSH32 0x86CD05C500000000000000000000000000000000000000000000000000000000 DUP2 MSTORE PUSH1 0x4 ADD PUSH1 0x40 MLOAD DUP1 SWAP2 SUB SWAP1 REVERT JUMPDEST PUSH1 0x2 PUSH1 0xF8 SHL DUP3 PUSH1 0x2 DUP2 MLOAD DUP2 LT PUSH2 0x12F0 JUMPI PUSH2 0x12EF PUSH2 0x33A2 JUMP JUMPDEST JUMPDEST PUSH1 0x20 ADD ADD MLOAD PUSH1 0xF8 SHR PUSH1 0xF8 SHL PUSH31 0xFFFFFFFFFFFFFFFFFFFFFFFFFFFFFFFFFFFFFFFFFFFFFFFFFFFFFFFFFFFFFF NOT AND EQ PUSH2 0x1354 JUMPI PUSH1 0x40 MLOAD PUSH32 0x86CD05C500000000000000000000000000000000000000000000000000000000 DUP2 MSTORE PUSH1 0x4 ADD PUSH1 0x40 MLOAD DUP1 SWAP2 SUB SWAP1 REVERT JUMPDEST PUSH1 0x0 DUP3 PUSH1 0x1 DUP2 MLOAD DUP2 LT PUSH2 0x136A JUMPI PUSH2 0x1369 PUSH2 0x33A2 JUMP JUMPDEST JUMPDEST PUSH1 0x20 ADD ADD MLOAD PUSH1 0xF8 SHR PUSH1 0xF8 SHL PUSH1 0xF8 SHR PUSH1 0xFF AND SWAP1 POP PUSH1 0x0 DUP4 PUSH1 0x3 DUP2 MLOAD DUP2 LT PUSH2 0x1393 JUMPI PUSH2 0x1392 PUSH2 0x33A2 JUMP JUMPDEST JUMPDEST PUSH1 0x20 ADD ADD MLOAD PUSH1 0xF8 SHR PUSH1 0xF8 SHL PUSH1 0xF8 SHR PUSH1 0xFF AND SWAP1 POP PUSH1 0x21 DUP2 GT ISZERO PUSH2 0x13E1 JUMPI PUSH1 0x40 MLOAD PUSH32 0x86CD05C500000000000000000000000000000000000000000000000000000000 DUP2 MSTORE PUSH1 0x4 ADD PUSH1 0x40 MLOAD DUP1 SWAP2 SUB SWAP1 REVERT JUMPDEST PUSH1 0x0 DUP2 PUSH1 0x4 PUSH2 0x13F0 SWAP2 SWAP1 PUSH2 0x3011 JUMP JUMPDEST SWAP1 POP PUSH1 0x0 DUP6 PUSH1 0x1 DUP4 PUSH2 0x1402 SWAP2 SWAP1 PUSH2 0x3011 JUMP JUMPDEST DUP2 MLOAD DUP2 LT PUSH2 0x1413 JUMPI PUSH2 0x1412 PUSH2 0x33A2 JUMP JUMPDEST JUMPDEST PUSH1 0x20 ADD ADD MLOAD PUSH1 0xF8 SHR PUSH1 0xF8 SHL PUSH1 0xF8 SHR PUSH1 0xFF AND SWAP1 POP PUSH1 0x21 DUP2 GT ISZERO PUSH2 0x1461 JUMPI PUSH1 0x40 MLOAD PUSH32 0x86CD05C500000000000000000000000000000000000000000000000000000000 DUP2 MSTORE PUSH1 0x4 ADD PUSH1 0x40 MLOAD DUP1 SWAP2 SUB SWAP1 REVERT JUMPDEST PUSH1 0x2 PUSH1 0xF8 SHL DUP7 DUP4 DUP2 MLOAD DUP2 LT PUSH2 0x1479 JUMPI PUSH2 0x1478 PUSH2 0x33A2 JUMP JUMPDEST JUMPDEST PUSH1 0x20 ADD ADD MLOAD PUSH1 0xF8 SHR PUSH1 0xF8 SHL PUSH31 0xFFFFFFFFFFFFFFFFFFFFFFFFFFFFFFFFFFFFFFFFFFFFFFFFFFFFFFFFFFFFFF NOT AND EQ PUSH2 0x14DD JUMPI PUSH1 0x40 MLOAD PUSH32 0x86CD05C500000000000000000000000000000000000000000000000000000000 DUP2 MSTORE PUSH1 0x4 ADD PUSH1 0x40 MLOAD DUP1 SWAP2 SUB SWAP1 REVERT JUMPDEST DUP4 PUSH1 0x4 DUP3 DUP6 PUSH2 0x14EC SWAP2 SWAP1 PUSH2 0x3011 JUMP JUMPDEST PUSH2 0x14F6 SWAP2 SWAP1 PUSH2 0x3011 JUMP JUMPDEST EQ PUSH2 0x152D JUMPI PUSH1 0x40 MLOAD PUSH32 0x86CD05C500000000000000000000000000000000000000000000000000000000 DUP2 MSTORE PUSH1 0x4 ADD PUSH1 0x40 MLOAD DUP1 SWAP2 SUB SWAP1 REVERT JUMPDEST PUSH1 0x2 DUP5 PUSH2 0x153A SWAP2 SWAP1 PUSH2 0x3011 JUMP JUMPDEST DUP7 MLOAD EQ PUSH2 0x1573 JUMPI PUSH1 0x40 MLOAD PUSH32 0x86CD05C500000000000000000000000000000000000000000000000000000000 DUP2 MSTORE PUSH1 0x4 ADD PUSH1 0x40 MLOAD DUP1 SWAP2 SUB SWAP1 REVERT JUMPDEST PUSH1 0x2 DUP3 PUSH2 0x1580 SWAP2 SWAP1 PUSH2 0x3011 JUMP JUMPDEST SWAP2 POP PUSH1 0x0 PUSH1 0x4 SWAP1 POP PUSH1 0x21 DUP5 SUB PUSH2 0x162C JUMPI PUSH1 0x0 PUSH1 0xF8 SHL DUP8 PUSH1 0x4 DUP2 MLOAD DUP2 LT PUSH2 0x15A9 JUMPI PUSH2 0x15A8 PUSH2 0x33A2 JUMP JUMPDEST JUMPDEST PUSH1 0x20 ADD ADD MLOAD PUSH1 0xF8 SHR PUSH1 0xF8 SHL PUSH31 0xFFFFFFFFFFFFFFFFFFFFFFFFFFFFFFFFFFFFFFFFFFFFFFFFFFFFFFFFFFFFFF NOT AND EQ PUSH2 0x160D JUMPI PUSH1 0x40 MLOAD PUSH32 0x86CD05C500000000000000000000000000000000000000000000000000000000 DUP2 MSTORE PUSH1 0x4 ADD PUSH1 0x40 MLOAD DUP1 SWAP2 SUB SWAP1 REVERT JUMPDEST PUSH1 0x1 DUP2 PUSH2 0x161A SWAP2 SWAP1 PUSH2 0x3011 JUMP JUMPDEST SWAP1 POP PUSH1 0x1 DUP5 PUSH2 0x1629 SWAP2 SWAP1 PUSH2 0x31B2 JUMP JUMPDEST SWAP4 POP JUMPDEST PUSH1 0x21 DUP3 SUB PUSH2 0x16CF JUMPI PUSH1 0x0 PUSH1 0xF8 SHL DUP8 DUP5 DUP2 MLOAD DUP2 LT PUSH2 0x164C JUMPI PUSH2 0x164B PUSH2 0x33A2 JUMP JUMPDEST JUMPDEST PUSH1 0x20 ADD ADD MLOAD PUSH1 0xF8 SHR PUSH1 0xF8 SHL PUSH31 0xFFFFFFFFFFFFFFFFFFFFFFFFFFFFFFFFFFFFFFFFFFFFFFFFFFFFFFFFFFFFFF NOT AND EQ PUSH2 0x16B0 JUMPI PUSH1 0x40 MLOAD PUSH32 0x86CD05C500000000000000000000000000000000000000000000000000000000 DUP2 MSTORE PUSH1 0x4 ADD PUSH1 0x40 MLOAD DUP1 SWAP2 SUB SWAP1 REVERT JUMPDEST PUSH1 0x1 DUP4 PUSH2 0x16BD SWAP2 SWAP1 PUSH2 0x3011 JUMP JUMPDEST SWAP3 POP PUSH1 0x1 DUP3 PUSH2 0x16CC SWAP2 SWAP1 PUSH2 0x31B2 JUMP JUMPDEST SWAP2 POP JUMPDEST PUSH1 0x0 DUP1 DUP3 PUSH1 0x20 ADD DUP10 ADD MLOAD SWAP2 POP DUP5 PUSH1 0x20 ADD DUP10 ADD MLOAD SWAP1 POP PUSH1 0x20 DUP7 LT ISZERO PUSH2 0x170C JUMPI DUP6 PUSH1 0x20 PUSH2 0x16FA SWAP2 SWAP1 PUSH2 0x31B2 JUMP JUMPDEST PUSH1 0x8 PUSH2 0x1706 SWAP2 SWAP1 PUSH2 0x341E JUMP JUMPDEST DUP3 SWAP1 SHR SWAP2 POP JUMPDEST PUSH1 0x20 DUP5 LT ISZERO PUSH2 0x1734 JUMPI DUP4 PUSH1 0x20 PUSH2 0x1722 SWAP2 SWAP1 PUSH2 0x31B2 JUMP JUMPDEST PUSH1 0x8 PUSH2 0x172E SWAP2 SWAP1 PUSH2 0x341E JUMP JUMPDEST DUP2 SWAP1 SHR SWAP1 POP JUMPDEST DUP2 DUP9 PUSH1 0x0 ADD DUP2 DUP2 MSTORE POP POP DUP1 DUP9 PUSH1 0x20 ADD DUP2 DUP2 MSTORE POP POP POP POP POP POP POP POP POP SWAP2 SWAP1 POP JUMP JUMPDEST PUSH1 0x1B DUP2 PUSH1 0x40 ADD DUP2 DUP2 MSTORE POP POP DUP3 PUSH20 0xFFFFFFFFFFFFFFFFFFFFFFFFFFFFFFFFFFFFFFFF AND PUSH1 0x1 DUP4 DUP4 PUSH1 0x40 ADD MLOAD DUP5 PUSH1 0x0 ADD MLOAD DUP6 PUSH1 0x20 ADD MLOAD PUSH1 0x40 MLOAD PUSH1 0x0 DUP2 MSTORE PUSH1 0x20 ADD PUSH1 0x40 MSTORE PUSH1 0x40 MLOAD PUSH2 0x17A5 SWAP5 SWAP4 SWAP3 SWAP2 SWAP1 PUSH2 0x36D0 JUMP JUMPDEST PUSH1 0x20 PUSH1 0x40 MLOAD PUSH1 0x20 DUP2 SUB SWAP1 DUP1 DUP5 SUB SWAP1 DUP6 GAS STATICCALL ISZERO DUP1 ISZERO PUSH2 0x17C7 JUMPI RETURNDATASIZE PUSH1 0x0 DUP1 RETURNDATACOPY RETURNDATASIZE PUSH1 0x0 REVERT JUMPDEST POP POP POP PUSH1 0x20 PUSH1 0x40 MLOAD SUB MLOAD PUSH20 0xFFFFFFFFFFFFFFFFFFFFFFFFFFFFFFFFFFFFFFFF AND EQ PUSH2 0x18B7 JUMPI PUSH1 0x1C DUP2 PUSH1 0x40 ADD DUP2 DUP2 MSTORE POP POP DUP3 PUSH20 0xFFFFFFFFFFFFFFFFFFFFFFFFFFFFFFFFFFFFFFFF AND PUSH1 0x1 DUP4 DUP4 PUSH1 0x40 ADD MLOAD DUP5 PUSH1 0x0 ADD MLOAD DUP6 PUSH1 0x20 ADD MLOAD PUSH1 0x40 MLOAD PUSH1 0x0 DUP2 MSTORE PUSH1 0x20 ADD PUSH1 0x40 MSTORE PUSH1 0x40 MLOAD PUSH2 0x183D SWAP5 SWAP4 SWAP3 SWAP2 SWAP1 PUSH2 0x36D0 JUMP JUMPDEST PUSH1 0x20 PUSH1 0x40 MLOAD PUSH1 0x20 DUP2 SUB SWAP1 DUP1 DUP5 SUB SWAP1 DUP6 GAS STATICCALL ISZERO DUP1 ISZERO PUSH2 0x185F JUMPI RETURNDATASIZE PUSH1 0x0 DUP1 RETURNDATACOPY RETURNDATASIZE PUSH1 0x0 REVERT JUMPDEST POP POP POP PUSH1 0x20 PUSH1 0x40 MLOAD SUB MLOAD PUSH20 0xFFFFFFFFFFFFFFFFFFFFFFFFFFFFFFFFFFFFFFFF AND EQ PUSH2 0x18B6 JUMPI PUSH1 0x40 MLOAD PUSH32 0x4532600D00000000000000000000000000000000000000000000000000000000 DUP2 MSTORE PUSH1 0x4 ADD PUSH1 0x40 MLOAD DUP1 SWAP2 SUB SWAP1 REVERT JUMPDEST JUMPDEST POP POP POP JUMP JUMPDEST PUSH1 0x60 PUSH1 0x0 DUP3 PUSH1 0x40 MLOAD PUSH1 0x20 ADD PUSH2 0x18D1 SWAP2 SWAP1 PUSH2 0x3736 JUMP JUMPDEST PUSH1 0x40 MLOAD PUSH1 0x20 DUP2 DUP4 SUB SUB DUP2 MSTORE SWAP1 PUSH1 0x40 MSTORE SWAP1 POP PUSH1 0x0 JUMPDEST PUSH1 0x20 DUP2 LT ISZERO PUSH2 0x1945 JUMPI PUSH1 0x0 PUSH1 0xF8 SHL DUP3 DUP3 DUP2 MLOAD DUP2 LT PUSH2 0x1906 JUMPI PUSH2 0x1905 PUSH2 0x33A2 JUMP JUMPDEST JUMPDEST PUSH1 0x20 ADD ADD MLOAD PUSH1 0xF8 SHR PUSH1 0xF8 SHL PUSH31 0xFFFFFFFFFFFFFFFFFFFFFFFFFFFFFFFFFFFFFFFFFFFFFFFFFFFFFFFFFFFFFF NOT AND SUB PUSH2 0x1945 JUMPI DUP1 DUP1 PUSH1 0x1 ADD SWAP2 POP POP PUSH2 0x18E5 JUMP JUMPDEST PUSH1 0x0 DUP2 PUSH1 0x20 PUSH2 0x1954 SWAP2 SWAP1 PUSH2 0x31B2 JUMP JUMPDEST PUSH8 0xFFFFFFFFFFFFFFFF DUP2 GT ISZERO PUSH2 0x196D JUMPI PUSH2 0x196C PUSH2 0x34B3 JUMP JUMPDEST JUMPDEST PUSH1 0x40 MLOAD SWAP1 DUP1 DUP3 MSTORE DUP1 PUSH1 0x1F ADD PUSH1 0x1F NOT AND PUSH1 0x20 ADD DUP3 ADD PUSH1 0x40 MSTORE DUP1 ISZERO PUSH2 0x199F JUMPI DUP2 PUSH1 0x20 ADD PUSH1 0x1 DUP3 MUL DUP1 CALLDATASIZE DUP4 CALLDATACOPY DUP1 DUP3 ADD SWAP2 POP POP SWAP1 POP JUMPDEST POP SWAP1 POP PUSH1 0x0 JUMPDEST DUP2 MLOAD DUP2 LT ISZERO PUSH2 0x1A27 JUMPI DUP4 DUP4 DUP1 PUSH2 0x19BA SWAP1 PUSH2 0x31E6 JUMP JUMPDEST SWAP5 POP DUP2 MLOAD DUP2 LT PUSH2 0x19CD JUMPI PUSH2 0x19CC PUSH2 0x33A2 JUMP JUMPDEST JUMPDEST PUSH1 0x20 ADD ADD MLOAD PUSH1 0xF8 SHR PUSH1 0xF8 SHL DUP3 DUP3 DUP2 MLOAD DUP2 LT PUSH2 0x19EB JUMPI PUSH2 0x19EA PUSH2 0x33A2 JUMP JUMPDEST JUMPDEST PUSH1 0x20 ADD ADD SWAP1 PUSH31 0xFFFFFFFFFFFFFFFFFFFFFFFFFFFFFFFFFFFFFFFFFFFFFFFFFFFFFFFFFFFFFF NOT AND SWAP1 DUP2 PUSH1 0x0 BYTE SWAP1 MSTORE8 POP DUP1 DUP1 PUSH1 0x1 ADD SWAP2 POP POP PUSH2 0x19A5 JUMP JUMPDEST POP DUP1 SWAP4 POP POP POP POP SWAP2 SWAP1 POP JUMP JUMPDEST PUSH1 0x60 DUP1 PUSH1 0x38 DUP5 LT ISZERO PUSH2 0x1AE6 JUMPI PUSH1 0x1 PUSH8 0xFFFFFFFFFFFFFFFF DUP2 GT ISZERO PUSH2 0x1A5A JUMPI PUSH2 0x1A59 PUSH2 0x34B3 JUMP JUMPDEST JUMPDEST PUSH1 0x40 MLOAD SWAP1 DUP1 DUP3 MSTORE DUP1 PUSH1 0x1F ADD PUSH1 0x1F NOT AND PUSH1 0x20 ADD DUP3 ADD PUSH1 0x40 MSTORE DUP1 ISZERO PUSH2 0x1A8C JUMPI DUP2 PUSH1 0x20 ADD PUSH1 0x1 DUP3 MUL DUP1 CALLDATASIZE DUP4 CALLDATACOPY DUP1 DUP3 ADD SWAP2 POP POP SWAP1 POP JUMPDEST POP SWAP1 POP DUP3 DUP5 PUSH2 0x1A9B SWAP2 SWAP1 PUSH2 0x3751 JUMP JUMPDEST PUSH1 0xF8 SHL DUP2 PUSH1 0x0 DUP2 MLOAD DUP2 LT PUSH2 0x1AB2 JUMPI PUSH2 0x1AB1 PUSH2 0x33A2 JUMP JUMPDEST JUMPDEST PUSH1 0x20 ADD ADD SWAP1 PUSH31 0xFFFFFFFFFFFFFFFFFFFFFFFFFFFFFFFFFFFFFFFFFFFFFFFFFFFFFFFFFFFFFF NOT AND SWAP1 DUP2 PUSH1 0x0 BYTE SWAP1 MSTORE8 POP PUSH2 0x1C75 JUMP JUMPDEST PUSH1 0x0 DUP1 PUSH1 0x1 SWAP1 POP JUMPDEST PUSH1 0x0 DUP2 DUP8 PUSH2 0x1AFC SWAP2 SWAP1 PUSH2 0x37B5 JUMP JUMPDEST EQ PUSH2 0x1B24 JUMPI DUP2 DUP1 PUSH2 0x1B0C SWAP1 PUSH2 0x31E6 JUMP JUMPDEST SWAP3 POP POP PUSH2 0x100 DUP2 PUSH2 0x1B1D SWAP2 SWAP1 PUSH2 0x341E JUMP JUMPDEST SWAP1 POP PUSH2 0x1AEE JUMP JUMPDEST PUSH1 0x1 DUP3 PUSH2 0x1B31 SWAP2 SWAP1 PUSH2 0x3011 JUMP JUMPDEST PUSH8 0xFFFFFFFFFFFFFFFF DUP2 GT ISZERO PUSH2 0x1B4A JUMPI PUSH2 0x1B49 PUSH2 0x34B3 JUMP JUMPDEST JUMPDEST PUSH1 0x40 MLOAD SWAP1 DUP1 DUP3 MSTORE DUP1 PUSH1 0x1F ADD PUSH1 0x1F NOT AND PUSH1 0x20 ADD DUP3 ADD PUSH1 0x40 MSTORE DUP1 ISZERO PUSH2 0x1B7C JUMPI DUP2 PUSH1 0x20 ADD PUSH1 0x1 DUP3 MUL DUP1 CALLDATASIZE DUP4 CALLDATACOPY DUP1 DUP3 ADD SWAP2 POP POP SWAP1 POP JUMPDEST POP SWAP3 POP PUSH1 0x37 DUP6 DUP4 PUSH2 0x1B8D SWAP2 SWAP1 PUSH2 0x3751 JUMP JUMPDEST PUSH2 0x1B97 SWAP2 SWAP1 PUSH2 0x3751 JUMP JUMPDEST PUSH1 0xF8 SHL DUP4 PUSH1 0x0 DUP2 MLOAD DUP2 LT PUSH2 0x1BAE JUMPI PUSH2 0x1BAD PUSH2 0x33A2 JUMP JUMPDEST JUMPDEST PUSH1 0x20 ADD ADD SWAP1 PUSH31 0xFFFFFFFFFFFFFFFFFFFFFFFFFFFFFFFFFFFFFFFFFFFFFFFFFFFFFFFFFFFFFF NOT AND SWAP1 DUP2 PUSH1 0x0 BYTE SWAP1 MSTORE8 POP PUSH1 0x1 SWAP1 POP JUMPDEST DUP2 DUP2 GT PUSH2 0x1C72 JUMPI PUSH2 0x100 DUP2 DUP4 PUSH2 0x1BF8 SWAP2 SWAP1 PUSH2 0x31B2 JUMP JUMPDEST PUSH2 0x100 PUSH2 0x1C05 SWAP2 SWAP1 PUSH2 0x3919 JUMP JUMPDEST DUP8 PUSH2 0x1C10 SWAP2 SWAP1 PUSH2 0x37B5 JUMP JUMPDEST PUSH2 0x1C1A SWAP2 SWAP1 PUSH2 0x3964 JUMP JUMPDEST PUSH1 0xF8 SHL DUP4 DUP3 DUP2 MLOAD DUP2 LT PUSH2 0x1C30 JUMPI PUSH2 0x1C2F PUSH2 0x33A2 JUMP JUMPDEST JUMPDEST PUSH1 0x20 ADD ADD SWAP1 PUSH31 0xFFFFFFFFFFFFFFFFFFFFFFFFFFFFFFFFFFFFFFFFFFFFFFFFFFFFFFFFFFFFFF NOT AND SWAP1 DUP2 PUSH1 0x0 BYTE SWAP1 MSTORE8 POP DUP1 DUP1 PUSH2 0x1C6A SWAP1 PUSH2 0x31E6 JUMP JUMPDEST SWAP2 POP POP PUSH2 0x1BE2 JUMP JUMPDEST POP POP JUMPDEST DUP1 SWAP2 POP POP SWAP3 SWAP2 POP POP JUMP JUMPDEST PUSH1 0x60 PUSH1 0x0 DUP3 MLOAD SUB PUSH2 0x1CDF JUMPI PUSH1 0x0 PUSH8 0xFFFFFFFFFFFFFFFF DUP2 GT ISZERO PUSH2 0x1CA5 JUMPI PUSH2 0x1CA4 PUSH2 0x34B3 JUMP JUMPDEST JUMPDEST PUSH1 0x40 MLOAD SWAP1 DUP1 DUP3 MSTORE DUP1 PUSH1 0x1F ADD PUSH1 0x1F NOT AND PUSH1 0x20 ADD DUP3 ADD PUSH1 0x40 MSTORE DUP1 ISZERO PUSH2 0x1CD7 JUMPI DUP2 PUSH1 0x20 ADD PUSH1 0x1 DUP3 MUL DUP1 CALLDATASIZE DUP4 CALLDATACOPY DUP1 DUP3 ADD SWAP2 POP POP SWAP1 POP JUMPDEST POP SWAP1 POP PUSH2 0x1E00 JUMP JUMPDEST PUSH1 0x0 DUP1 PUSH1 0x0 SWAP1 POP JUMPDEST DUP4 MLOAD DUP2 LT ISZERO PUSH2 0x1D26 JUMPI DUP4 DUP2 DUP2 MLOAD DUP2 LT PUSH2 0x1D03 JUMPI PUSH2 0x1D02 PUSH2 0x33A2 JUMP JUMPDEST JUMPDEST PUSH1 0x20 MUL PUSH1 0x20 ADD ADD MLOAD MLOAD DUP3 PUSH2 0x1D17 SWAP2 SWAP1 PUSH2 0x3011 JUMP JUMPDEST SWAP2 POP DUP1 DUP1 PUSH1 0x1 ADD SWAP2 POP POP PUSH2 0x1CE7 JUMP JUMPDEST PUSH1 0x0 DUP3 PUSH8 0xFFFFFFFFFFFFFFFF DUP2 GT ISZERO PUSH2 0x1D42 JUMPI PUSH2 0x1D41 PUSH2 0x34B3 JUMP JUMPDEST JUMPDEST PUSH1 0x40 MLOAD SWAP1 DUP1 DUP3 MSTORE DUP1 PUSH1 0x1F ADD PUSH1 0x1F NOT AND PUSH1 0x20 ADD DUP3 ADD PUSH1 0x40 MSTORE DUP1 ISZERO PUSH2 0x1D74 JUMPI DUP2 PUSH1 0x20 ADD PUSH1 0x1 DUP3 MUL DUP1 CALLDATASIZE DUP4 CALLDATACOPY DUP1 DUP3 ADD SWAP2 POP POP SWAP1 POP JUMPDEST POP SWAP1 POP PUSH1 0x0 PUSH1 0x20 DUP3 ADD SWAP1 POP PUSH1 0x0 SWAP3 POP JUMPDEST DUP6 MLOAD DUP4 LT ISZERO PUSH2 0x1DF8 JUMPI PUSH1 0x0 DUP7 DUP5 DUP2 MLOAD DUP2 LT PUSH2 0x1DA2 JUMPI PUSH2 0x1DA1 PUSH2 0x33A2 JUMP JUMPDEST JUMPDEST PUSH1 0x20 MUL PUSH1 0x20 ADD ADD MLOAD SWAP1 POP PUSH1 0x0 PUSH1 0x20 DUP3 ADD SWAP1 POP PUSH2 0x1DC0 DUP4 DUP3 DUP5 MLOAD PUSH2 0x1E05 JUMP JUMPDEST DUP8 DUP6 DUP2 MLOAD DUP2 LT PUSH2 0x1DD3 JUMPI PUSH2 0x1DD2 PUSH2 0x33A2 JUMP JUMPDEST JUMPDEST PUSH1 0x20 MUL PUSH1 0x20 ADD ADD MLOAD MLOAD DUP4 PUSH2 0x1DE7 SWAP2 SWAP1 PUSH2 0x3011 JUMP JUMPDEST SWAP3 POP POP POP DUP3 DUP1 PUSH1 0x1 ADD SWAP4 POP POP PUSH2 0x1D84 JUMP JUMPDEST DUP2 SWAP5 POP POP POP POP POP JUMPDEST SWAP2 SWAP1 POP JUMP JUMPDEST PUSH1 0x0 DUP4 SWAP1 POP PUSH1 0x0 DUP4 SWAP1 POP PUSH1 0x0 DUP4 SWAP1 POP JUMPDEST PUSH1 0x20 DUP2 LT PUSH2 0x1E53 JUMPI DUP2 MLOAD DUP4 MSTORE PUSH1 0x20 DUP4 PUSH2 0x1E2E SWAP2 SWAP1 PUSH2 0x3011 JUMP JUMPDEST SWAP3 POP PUSH1 0x20 DUP3 PUSH2 0x1E3D SWAP2 SWAP1 PUSH2 0x3011 JUMP JUMPDEST SWAP2 POP PUSH1 0x20 DUP2 PUSH2 0x1E4C SWAP2 SWAP1 PUSH2 0x31B2 JUMP JUMPDEST SWAP1 POP PUSH2 0x1E15 JUMP JUMPDEST PUSH1 0x0 PUSH1 0x1 DUP3 PUSH1 0x20 SUB PUSH2 0x100 EXP SUB SWAP1 POP DUP1 NOT DUP4 MLOAD AND DUP2 DUP6 MLOAD AND DUP2 DUP2 OR DUP7 MSTORE POP POP POP POP POP POP POP POP POP JUMP JUMPDEST PUSH1 0x40 MLOAD DUP1 PUSH1 0x60 ADD PUSH1 0x40 MSTORE DUP1 PUSH1 0x0 DUP1 NOT AND DUP2 MSTORE PUSH1 0x20 ADD PUSH1 0x0 DUP1 NOT AND DUP2 MSTORE PUSH1 0x20 ADD PUSH1 0x0 DUP2 MSTORE POP SWAP1 JUMP JUMPDEST PUSH1 0x0 DUP2 SWAP1 POP SWAP2 SWAP1 POP JUMP JUMPDEST PUSH2 0x1EB5 DUP2 PUSH2 0x1EA2 JUMP JUMPDEST DUP3 MSTORE POP POP JUMP JUMPDEST PUSH1 0x0 PUSH1 0x20 DUP3 ADD SWAP1 POP PUSH2 0x1ED0 PUSH1 0x0 DUP4 ADD DUP5 PUSH2 0x1EAC JUMP JUMPDEST SWAP3 SWAP2 POP POP JUMP JUMPDEST PUSH1 0x0 PUSH20 0xFFFFFFFFFFFFFFFFFFFFFFFFFFFFFFFFFFFFFFFF DUP3 AND SWAP1 POP SWAP2 SWAP1 POP JUMP JUMPDEST PUSH1 0x0 PUSH2 0x1F01 DUP3 PUSH2 0x1ED6 JUMP JUMPDEST SWAP1 POP SWAP2 SWAP1 POP JUMP JUMPDEST PUSH2 0x1F11 DUP2 PUSH2 0x1EF6 JUMP JUMPDEST DUP3 MSTORE POP POP JUMP JUMPDEST PUSH1 0x0 PUSH1 0x20 DUP3 ADD SWAP1 POP PUSH2 0x1F2C PUSH1 0x0 DUP4 ADD DUP5 PUSH2 0x1F08 JUMP JUMPDEST SWAP3 SWAP2 POP POP JUMP JUMPDEST PUSH1 0x0 DUP1 REVERT JUMPDEST PUSH1 0x0 DUP1 REVERT JUMPDEST PUSH1 0x0 PUSH8 0xFFFFFFFFFFFFFFFF DUP3 AND SWAP1 POP SWAP2 SWAP1 POP JUMP JUMPDEST PUSH2 0x1F59 DUP2 PUSH2 0x1F3C JUMP JUMPDEST DUP2 EQ PUSH2 0x1F64 JUMPI PUSH1 0x0 DUP1 REVERT JUMPDEST POP JUMP JUMPDEST PUSH1 0x0 DUP2 CALLDATALOAD SWAP1 POP PUSH2 0x1F76 DUP2 PUSH2 0x1F50 JUMP JUMPDEST SWAP3 SWAP2 POP POP JUMP JUMPDEST PUSH1 0x0 PUSH1 0x20 DUP3 DUP5 SUB SLT ISZERO PUSH2 0x1F92 JUMPI PUSH2 0x1F91 PUSH2 0x1F32 JUMP JUMPDEST JUMPDEST PUSH1 0x0 PUSH2 0x1FA0 DUP5 DUP3 DUP6 ADD PUSH2 0x1F67 JUMP JUMPDEST SWAP2 POP POP SWAP3 SWAP2 POP POP JUMP JUMPDEST PUSH1 0x0 DUP2 SWAP1 POP SWAP2 SWAP1 POP JUMP JUMPDEST PUSH2 0x1FBC DUP2 PUSH2 0x1FA9 JUMP JUMPDEST DUP3 MSTORE POP POP JUMP JUMPDEST PUSH1 0x0 PUSH1 0x20 DUP3 ADD SWAP1 POP PUSH2 0x1FD7 PUSH1 0x0 DUP4 ADD DUP5 PUSH2 0x1FB3 JUMP JUMPDEST SWAP3 SWAP2 POP POP JUMP JUMPDEST PUSH1 0x0 DUP1 REVERT JUMPDEST PUSH1 0x0 DUP1 REVERT JUMPDEST PUSH1 0x0 DUP1 REVERT JUMPDEST PUSH1 0x0 DUP1 DUP4 PUSH1 0x1F DUP5 ADD SLT PUSH2 0x2002 JUMPI PUSH2 0x2001 PUSH2 0x1FDD JUMP JUMPDEST JUMPDEST DUP3 CALLDATALOAD SWAP1 POP PUSH8 0xFFFFFFFFFFFFFFFF DUP2 GT ISZERO PUSH2 0x201F JUMPI PUSH2 0x201E PUSH2 0x1FE2 JUMP JUMPDEST JUMPDEST PUSH1 0x20 DUP4 ADD SWAP2 POP DUP4 PUSH1 0x20 DUP3 MUL DUP4 ADD GT ISZERO PUSH2 0x203B JUMPI PUSH2 0x203A PUSH2 0x1FE7 JUMP JUMPDEST JUMPDEST SWAP3 POP SWAP3 SWAP1 POP JUMP JUMPDEST PUSH1 0x0 DUP1 REVERT JUMPDEST PUSH1 0x0 PUSH1 0xC0 DUP3 DUP5 SUB SLT ISZERO PUSH2 0x205D JUMPI PUSH2 0x205C PUSH2 0x2042 JUMP JUMPDEST JUMPDEST DUP2 SWAP1 POP SWAP3 SWAP2 POP POP JUMP JUMPDEST PUSH1 0x0 DUP1 PUSH1 0x0 PUSH1 0x40 DUP5 DUP7 SUB SLT ISZERO PUSH2 0x207F JUMPI PUSH2 0x207E PUSH2 0x1F32 JUMP JUMPDEST JUMPDEST PUSH1 0x0 DUP5 ADD CALLDATALOAD PUSH8 0xFFFFFFFFFFFFFFFF DUP2 GT ISZERO PUSH2 0x209D JUMPI PUSH2 0x209C PUSH2 0x1F37 JUMP JUMPDEST JUMPDEST PUSH2 0x20A9 DUP7 DUP3 DUP8 ADD PUSH2 0x1FEC JUMP JUMPDEST SWAP4 POP SWAP4 POP POP PUSH1 0x20 DUP5 ADD CALLDATALOAD PUSH8 0xFFFFFFFFFFFFFFFF DUP2 GT ISZERO PUSH2 0x20CC JUMPI PUSH2 0x20CB PUSH2 0x1F37 JUMP JUMPDEST JUMPDEST PUSH2 0x20D8 DUP7 DUP3 DUP8 ADD PUSH2 0x2047 JUMP JUMPDEST SWAP2 POP POP SWAP3 POP SWAP3 POP SWAP3 JUMP JUMPDEST PUSH2 0x20EB DUP2 PUSH2 0x1EF6 JUMP JUMPDEST DUP2 EQ PUSH2 0x20F6 JUMPI PUSH1 0x0 DUP1 REVERT JUMPDEST POP JUMP JUMPDEST PUSH1 0x0 DUP2 CALLDATALOAD SWAP1 POP PUSH2 0x2108 DUP2 PUSH2 0x20E2 JUMP JUMPDEST SWAP3 SWAP2 POP POP JUMP JUMPDEST PUSH2 0x2117 DUP2 PUSH2 0x1EA2 JUMP JUMPDEST DUP2 EQ PUSH2 0x2122 JUMPI PUSH1 0x0 DUP1 REVERT JUMPDEST POP JUMP JUMPDEST PUSH1 0x0 DUP2 CALLDATALOAD SWAP1 POP PUSH2 0x2134 DUP2 PUSH2 0x210E JUMP JUMPDEST SWAP3 SWAP2 POP POP JUMP JUMPDEST PUSH1 0x0 DUP1 PUSH1 0x0 DUP1 PUSH1 0x80 DUP6 DUP8 SUB SLT ISZERO PUSH2 0x2154 JUMPI PUSH2 0x2153 PUSH2 0x1F32 JUMP JUMPDEST JUMPDEST PUSH1 0x0 PUSH2 0x2162 DUP8 DUP3 DUP9 ADD PUSH2 0x20F9 JUMP JUMPDEST SWAP5 POP POP PUSH1 0x20 PUSH2 0x2173 DUP8 DUP3 DUP9 ADD PUSH2 0x2125 JUMP JUMPDEST SWAP4 POP POP PUSH1 0x40 PUSH2 0x2184 DUP8 DUP3 DUP9 ADD PUSH2 0x2125 JUMP JUMPDEST SWAP3 POP POP PUSH1 0x60 PUSH2 0x2195 DUP8 DUP3 DUP9 ADD PUSH2 0x1F67 JUMP JUMPDEST SWAP2 POP POP SWAP3 SWAP6 SWAP2 SWAP5 POP SWAP3 POP JUMP JUMPDEST PUSH1 0x0 DUP2 MLOAD SWAP1 POP SWAP2 SWAP1 POP JUMP JUMPDEST PUSH1 0x0 DUP3 DUP3 MSTORE PUSH1 0x20 DUP3 ADD SWAP1 POP SWAP3 SWAP2 POP POP JUMP JUMPDEST PUSH1 0x0 JUMPDEST DUP4 DUP2 LT ISZERO PUSH2 0x21DB JUMPI DUP1 DUP3 ADD MLOAD DUP2 DUP5 ADD MSTORE PUSH1 0x20 DUP2 ADD SWAP1 POP PUSH2 0x21C0 JUMP JUMPDEST PUSH1 0x0 DUP5 DUP5 ADD MSTORE POP POP POP POP JUMP JUMPDEST PUSH1 0x0 PUSH1 0x1F NOT PUSH1 0x1F DUP4 ADD AND SWAP1 POP SWAP2 SWAP1 POP JUMP JUMPDEST PUSH1 0x0 PUSH2 0x2203 DUP3 PUSH2 0x21A1 JUMP JUMPDEST PUSH2 0x220D DUP2 DUP6 PUSH2 0x21AC JUMP JUMPDEST SWAP4 POP PUSH2 0x221D DUP2 DUP6 PUSH1 0x20 DUP7 ADD PUSH2 0x21BD JUMP JUMPDEST PUSH2 0x2226 DUP2 PUSH2 0x21E7 JUMP JUMPDEST DUP5 ADD SWAP2 POP POP SWAP3 SWAP2 POP POP JUMP JUMPDEST PUSH1 0x0 PUSH1 0x20 DUP3 ADD SWAP1 POP DUP2 DUP2 SUB PUSH1 0x0 DUP4 ADD MSTORE PUSH2 0x224B DUP2 DUP5 PUSH2 0x21F8 JUMP JUMPDEST SWAP1 POP SWAP3 SWAP2 POP POP JUMP JUMPDEST PUSH2 0x225C DUP2 PUSH2 0x1FA9 JUMP JUMPDEST DUP2 EQ PUSH2 0x2267 JUMPI PUSH1 0x0 DUP1 REVERT JUMPDEST POP JUMP JUMPDEST PUSH1 0x0 DUP2 CALLDATALOAD SWAP1 POP PUSH2 0x2279 DUP2 PUSH2 0x2253 JUMP JUMPDEST SWAP3 SWAP2 POP POP JUMP JUMPDEST PUSH1 0x0 PUSH1 0x20 DUP3 DUP5 SUB SLT ISZERO PUSH2 0x2295 JUMPI PUSH2 0x2294 PUSH2 0x1F32 JUMP JUMPDEST JUMPDEST PUSH1 0x0 PUSH2 0x22A3 DUP5 DUP3 DUP6 ADD PUSH2 0x226A JUMP JUMPDEST SWAP2 POP POP SWAP3 SWAP2 POP POP JUMP JUMPDEST PUSH1 0x0 DUP2 ISZERO ISZERO SWAP1 POP SWAP2 SWAP1 POP JUMP JUMPDEST PUSH2 0x22C1 DUP2 PUSH2 0x22AC JUMP JUMPDEST DUP3 MSTORE POP POP JUMP JUMPDEST PUSH1 0x0 PUSH1 0x20 DUP3 ADD SWAP1 POP PUSH2 0x22DC PUSH1 0x0 DUP4 ADD DUP5 PUSH2 0x22B8 JUMP JUMPDEST SWAP3 SWAP2 POP POP JUMP JUMPDEST PUSH1 0x0 DUP1 PUSH1 0x40 DUP4 DUP6 SUB SLT ISZERO PUSH2 0x22F9 JUMPI PUSH2 0x22F8 PUSH2 0x1F32 JUMP JUMPDEST JUMPDEST PUSH1 0x0 PUSH2 0x2307 DUP6 DUP3 DUP7 ADD PUSH2 0x1F67 JUMP JUMPDEST SWAP3 POP POP PUSH1 0x20 PUSH2 0x2318 DUP6 DUP3 DUP7 ADD PUSH2 0x226A JUMP JUMPDEST SWAP2 POP POP SWAP3 POP SWAP3 SWAP1 POP JUMP JUMPDEST PUSH1 0x0 DUP1 REVERT JUMPDEST PUSH1 0x0 DUP3 CALLDATALOAD PUSH1 0x1 PUSH1 0xA0 SUB DUP4 CALLDATASIZE SUB SUB DUP2 SLT PUSH2 0x2343 JUMPI PUSH2 0x2342 PUSH2 0x2322 JUMP JUMPDEST JUMPDEST DUP1 DUP4 ADD SWAP2 POP POP SWAP3 SWAP2 POP POP JUMP JUMPDEST PUSH1 0x0 DUP3 DUP3 MSTORE PUSH1 0x20 DUP3 ADD SWAP1 POP SWAP3 SWAP2 POP POP JUMP JUMPDEST PUSH32 0x416C72656164792070726F636573736564000000000000000000000000000000 PUSH1 0x0 DUP3 ADD MSTORE POP JUMP JUMPDEST PUSH1 0x0 PUSH2 0x2396 PUSH1 0x11 DUP4 PUSH2 0x234F JUMP JUMPDEST SWAP2 POP PUSH2 0x23A1 DUP3 PUSH2 0x2360 JUMP JUMPDEST PUSH1 0x20 DUP3 ADD SWAP1 POP SWAP2 SWAP1 POP JUMP JUMPDEST PUSH1 0x0 PUSH1 0x20 DUP3 ADD SWAP1 POP DUP2 DUP2 SUB PUSH1 0x0 DUP4 ADD MSTORE PUSH2 0x23C5 DUP2 PUSH2 0x2389 JUMP JUMPDEST SWAP1 POP SWAP2 SWAP1 POP JUMP JUMPDEST PUSH1 0x0 DUP3 CALLDATALOAD PUSH1 0x1 PUSH2 0x120 SUB DUP4 CALLDATASIZE SUB SUB DUP2 SLT PUSH2 0x23E9 JUMPI PUSH2 0x23E8 PUSH2 0x2322 JUMP JUMPDEST JUMPDEST DUP1 DUP4 ADD SWAP2 POP POP SWAP3 SWAP2 POP POP JUMP JUMPDEST PUSH1 0x0 PUSH1 0xFF DUP3 AND SWAP1 POP SWAP2 SWAP1 POP JUMP JUMPDEST PUSH2 0x240B DUP2 PUSH2 0x23F5 JUMP JUMPDEST DUP2 EQ PUSH2 0x2416 JUMPI PUSH1 0x0 DUP1 REVERT JUMPDEST POP JUMP JUMPDEST PUSH1 0x0 DUP2 CALLDATALOAD SWAP1 POP PUSH2 0x2428 DUP2 PUSH2 0x2402 JUMP JUMPDEST SWAP3 SWAP2 POP POP JUMP JUMPDEST PUSH1 0x0 PUSH1 0x20 DUP3 DUP5 SUB SLT ISZERO PUSH2 0x2444 JUMPI PUSH2 0x2443 PUSH2 0x1F32 JUMP JUMPDEST JUMPDEST PUSH1 0x0 PUSH2 0x2452 DUP5 DUP3 DUP6 ADD PUSH2 0x2419 JUMP JUMPDEST SWAP2 POP POP SWAP3 SWAP2 POP POP JUMP JUMPDEST PUSH32 0x5478206E6F74207375636365737366756C000000000000000000000000000000 PUSH1 0x0 DUP3 ADD MSTORE POP JUMP JUMPDEST PUSH1 0x0 PUSH2 0x2491 PUSH1 0x11 DUP4 PUSH2 0x234F JUMP JUMPDEST SWAP2 POP PUSH2 0x249C DUP3 PUSH2 0x245B JUMP JUMPDEST PUSH1 0x20 DUP3 ADD SWAP1 POP SWAP2 SWAP1 POP JUMP JUMPDEST PUSH1 0x0 PUSH1 0x20 DUP3 ADD SWAP1 POP DUP2 DUP2 SUB PUSH1 0x0 DUP4 ADD MSTORE PUSH2 0x24C0 DUP2 PUSH2 0x2484 JUMP JUMPDEST SWAP1 POP SWAP2 SWAP1 POP JUMP JUMPDEST PUSH1 0x0 PUSH1 0x20 DUP3 DUP5 SUB SLT ISZERO PUSH2 0x24DD JUMPI PUSH2 0x24DC PUSH2 0x1F32 JUMP JUMPDEST JUMPDEST PUSH1 0x0 PUSH2 0x24EB DUP5 DUP3 DUP6 ADD PUSH2 0x20F9 JUMP JUMPDEST SWAP2 POP POP SWAP3 SWAP2 POP POP JUMP JUMPDEST PUSH32 0x57726F6E67207265636569766572000000000000000000000000000000000000 PUSH1 0x0 DUP3 ADD MSTORE POP JUMP JUMPDEST PUSH1 0x0 PUSH2 0x252A PUSH1 0xE DUP4 PUSH2 0x234F JUMP JUMPDEST SWAP2 POP PUSH2 0x2535 DUP3 PUSH2 0x24F4 JUMP JUMPDEST PUSH1 0x20 DUP3 ADD SWAP1 POP SWAP2 SWAP1 POP JUMP JUMPDEST PUSH1 0x0 PUSH1 0x20 DUP3 ADD SWAP1 POP DUP2 DUP2 SUB PUSH1 0x0 DUP4 ADD MSTORE PUSH2 0x2559 DUP2 PUSH2 0x251D JUMP JUMPDEST SWAP1 POP SWAP2 SWAP1 POP JUMP JUMPDEST PUSH32 0x5A65726F2076616C756500000000000000000000000000000000000000000000 PUSH1 0x0 DUP3 ADD MSTORE POP JUMP JUMPDEST PUSH1 0x0 PUSH2 0x2596 PUSH1 0xA DUP4 PUSH2 0x234F JUMP JUMPDEST SWAP2 POP PUSH2 0x25A1 DUP3 PUSH2 0x2560 JUMP JUMPDEST PUSH1 0x20 DUP3 ADD SWAP1 POP SWAP2 SWAP1 POP JUMP JUMPDEST PUSH1 0x0 PUSH1 0x20 DUP3 ADD SWAP1 POP DUP2 DUP2 SUB PUSH1 0x0 DUP4 ADD MSTORE PUSH2 0x25C5 DUP2 PUSH2 0x2589 JUMP JUMPDEST SWAP1 POP SWAP2 SWAP1 POP JUMP JUMPDEST PUSH32 0x526F6F74206E6F742073796E63656420666F72207468697320726F756E640000 PUSH1 0x0 DUP3 ADD MSTORE POP JUMP JUMPDEST PUSH1 0x0 PUSH2 0x2602 PUSH1 0x1E DUP4 PUSH2 0x234F JUMP JUMPDEST SWAP2 POP PUSH2 0x260D DUP3 PUSH2 0x25CC JUMP JUMPDEST PUSH1 0x20 DUP3 ADD SWAP1 POP SWAP2 SWAP1 POP JUMP JUMPDEST PUSH1 0x0 PUSH1 0x20 DUP3 ADD SWAP1 POP DUP2 DUP2 SUB PUSH1 0x0 DUP4 ADD MSTORE PUSH2 0x2631 DUP2 PUSH2 0x25F5 JUMP JUMPDEST SWAP1 POP SWAP2 SWAP1 POP JUMP JUMPDEST PUSH1 0x0 PUSH2 0x2647 PUSH1 0x20 DUP5 ADD DUP5 PUSH2 0x226A JUMP JUMPDEST SWAP1 POP SWAP3 SWAP2 POP POP JUMP JUMPDEST PUSH2 0x2658 DUP2 PUSH2 0x1FA9 JUMP JUMPDEST DUP3 MSTORE POP POP JUMP JUMPDEST PUSH1 0x0 PUSH2 0x266D PUSH1 0x20 DUP5 ADD DUP5 PUSH2 0x1F67 JUMP JUMPDEST SWAP1 POP SWAP3 SWAP2 POP POP JUMP JUMPDEST PUSH2 0x267E DUP2 PUSH2 0x1F3C JUMP JUMPDEST DUP3 MSTORE POP POP JUMP JUMPDEST PUSH1 0x0 DUP1 REVERT JUMPDEST PUSH1 0x0 DUP3 CALLDATALOAD PUSH1 0x1 PUSH1 0xA0 SUB DUP4 CALLDATASIZE SUB SUB DUP2 SLT PUSH2 0x26A5 JUMPI PUSH2 0x26A4 PUSH2 0x2684 JUMP JUMPDEST JUMPDEST DUP3 DUP2 ADD SWAP2 POP POP SWAP3 SWAP2 POP POP JUMP JUMPDEST PUSH1 0x0 PUSH2 0xFFFF DUP3 AND SWAP1 POP SWAP2 SWAP1 POP JUMP JUMPDEST PUSH2 0x26C8 DUP2 PUSH2 0x26B1 JUMP JUMPDEST DUP2 EQ PUSH2 0x26D3 JUMPI PUSH1 0x0 DUP1 REVERT JUMPDEST POP JUMP JUMPDEST PUSH1 0x0 DUP2 CALLDATALOAD SWAP1 POP PUSH2 0x26E5 DUP2 PUSH2 0x26BF JUMP JUMPDEST SWAP3 SWAP2 POP POP JUMP JUMPDEST PUSH1 0x0 PUSH2 0x26FA PUSH1 0x20 DUP5 ADD DUP5 PUSH2 0x26D6 JUMP JUMPDEST SWAP1 POP SWAP3 SWAP2 POP POP JUMP JUMPDEST PUSH2 0x270B DUP2 PUSH2 0x26B1 JUMP JUMPDEST DUP3 MSTORE POP POP JUMP JUMPDEST PUSH2 0x271A DUP2 PUSH2 0x22AC JUMP JUMPDEST DUP2 EQ PUSH2 0x2725 JUMPI PUSH1 0x0 DUP1 REVERT JUMPDEST POP JUMP JUMPDEST PUSH1 0x0 DUP2 CALLDATALOAD SWAP1 POP PUSH2 0x2737 DUP2 PUSH2 0x2711 JUMP JUMPDEST SWAP3 SWAP2 POP POP JUMP JUMPDEST PUSH1 0x0 PUSH2 0x274C PUSH1 0x20 DUP5 ADD DUP5 PUSH2 0x2728 JUMP JUMPDEST SWAP1 POP SWAP3 SWAP2 POP POP JUMP JUMPDEST PUSH2 0x275D DUP2 PUSH2 0x22AC JUMP JUMPDEST DUP3 MSTORE POP POP JUMP JUMPDEST PUSH1 0x0 DUP1 REVERT JUMPDEST PUSH1 0x0 DUP1 REVERT JUMPDEST PUSH1 0x0 DUP1 DUP4 CALLDATALOAD PUSH1 0x1 PUSH1 0x20 SUB DUP5 CALLDATASIZE SUB SUB DUP2 SLT PUSH2 0x278A JUMPI PUSH2 0x2789 PUSH2 0x2684 JUMP JUMPDEST JUMPDEST DUP4 DUP2 ADD SWAP3 POP DUP3 CALLDATALOAD SWAP2 POP PUSH1 0x20 DUP4 ADD SWAP3 POP PUSH8 0xFFFFFFFFFFFFFFFF DUP3 GT ISZERO PUSH2 0x27B2 JUMPI PUSH2 0x27B1 PUSH2 0x2763 JUMP JUMPDEST JUMPDEST PUSH1 0x20 DUP3 MUL CALLDATASIZE SUB DUP4 SGT ISZERO PUSH2 0x27C8 JUMPI PUSH2 0x27C7 PUSH2 0x2768 JUMP JUMPDEST JUMPDEST POP SWAP3 POP SWAP3 SWAP1 POP JUMP JUMPDEST PUSH1 0x0 DUP3 DUP3 MSTORE PUSH1 0x20 DUP3 ADD SWAP1 POP SWAP3 SWAP2 POP POP JUMP JUMPDEST PUSH1 0x0 DUP2 SWAP1 POP SWAP2 SWAP1 POP JUMP JUMPDEST PUSH1 0x0 PUSH4 0xFFFFFFFF DUP3 AND SWAP1 POP SWAP2 SWAP1 POP JUMP JUMPDEST PUSH2 0x2804 DUP2 PUSH2 0x27EB JUMP JUMPDEST DUP3 MSTORE POP POP JUMP JUMPDEST PUSH1 0x0 PUSH2 0x2816 DUP4 DUP4 PUSH2 0x27FB JUMP JUMPDEST PUSH1 0x20 DUP4 ADD SWAP1 POP SWAP3 SWAP2 POP POP JUMP JUMPDEST PUSH2 0x282B DUP2 PUSH2 0x27EB JUMP JUMPDEST DUP2 EQ PUSH2 0x2836 JUMPI PUSH1 0x0 DUP1 REVERT JUMPDEST POP JUMP JUMPDEST PUSH1 0x0 DUP2 CALLDATALOAD SWAP1 POP PUSH2 0x2848 DUP2 PUSH2 0x2822 JUMP JUMPDEST SWAP3 SWAP2 POP POP JUMP JUMPDEST PUSH1 0x0 PUSH2 0x285D PUSH1 0x20 DUP5 ADD DUP5 PUSH2 0x2839 JUMP JUMPDEST SWAP1 POP SWAP3 SWAP2 POP POP JUMP JUMPDEST PUSH1 0x0 PUSH1 0x20 DUP3 ADD SWAP1 POP SWAP2 SWAP1 POP JUMP JUMPDEST PUSH1 0x0 PUSH2 0x287E DUP4 DUP6 PUSH2 0x27D0 JUMP JUMPDEST SWAP4 POP PUSH2 0x2889 DUP3 PUSH2 0x27E1 JUMP JUMPDEST DUP1 PUSH1 0x0 JUMPDEST DUP6 DUP2 LT ISZERO PUSH2 0x28C2 JUMPI PUSH2 0x289F DUP3 DUP5 PUSH2 0x284E JUMP JUMPDEST PUSH2 0x28A9 DUP9 DUP3 PUSH2 0x280A JUMP JUMPDEST SWAP8 POP PUSH2 0x28B4 DUP4 PUSH2 0x2865 JUMP JUMPDEST SWAP3 POP POP PUSH1 0x1 DUP2 ADD SWAP1 POP PUSH2 0x288D JUMP JUMPDEST POP DUP6 SWAP3 POP POP POP SWAP4 SWAP3 POP POP POP JUMP JUMPDEST PUSH1 0x0 PUSH1 0xA0 DUP4 ADD PUSH2 0x28E2 PUSH1 0x0 DUP5 ADD DUP5 PUSH2 0x2638 JUMP JUMPDEST PUSH2 0x28EF PUSH1 0x0 DUP7 ADD DUP3 PUSH2 0x264F JUMP JUMPDEST POP PUSH2 0x28FD PUSH1 0x20 DUP5 ADD DUP5 PUSH2 0x26EB JUMP JUMPDEST PUSH2 0x290A PUSH1 0x20 DUP7 ADD DUP3 PUSH2 0x2702 JUMP JUMPDEST POP PUSH2 0x2918 PUSH1 0x40 DUP5 ADD DUP5 PUSH2 0x273D JUMP JUMPDEST PUSH2 0x2925 PUSH1 0x40 DUP7 ADD DUP3 PUSH2 0x2754 JUMP JUMPDEST POP PUSH2 0x2933 PUSH1 0x60 DUP5 ADD DUP5 PUSH2 0x273D JUMP JUMPDEST PUSH2 0x2940 PUSH1 0x60 DUP7 ADD DUP3 PUSH2 0x2754 JUMP JUMPDEST POP PUSH2 0x294E PUSH1 0x80 DUP5 ADD DUP5 PUSH2 0x276D JUMP JUMPDEST DUP6 DUP4 SUB PUSH1 0x80 DUP8 ADD MSTORE PUSH2 0x2961 DUP4 DUP3 DUP5 PUSH2 0x2872 JUMP JUMPDEST SWAP3 POP POP POP DUP1 SWAP2 POP POP SWAP3 SWAP2 POP POP JUMP JUMPDEST PUSH1 0x0 DUP3 CALLDATALOAD PUSH1 0x1 PUSH2 0x120 SUB DUP4 CALLDATASIZE SUB SUB DUP2 SLT PUSH2 0x298C JUMPI PUSH2 0x298B PUSH2 0x2684 JUMP JUMPDEST JUMPDEST DUP3 DUP2 ADD SWAP2 POP POP SWAP3 SWAP2 POP POP JUMP JUMPDEST PUSH1 0x0 PUSH2 0x29A7 PUSH1 0x20 DUP5 ADD DUP5 PUSH2 0x20F9 JUMP JUMPDEST SWAP1 POP SWAP3 SWAP2 POP POP JUMP JUMPDEST PUSH2 0x29B8 DUP2 PUSH2 0x1EF6 JUMP JUMPDEST DUP3 MSTORE POP POP JUMP JUMPDEST PUSH1 0x0 PUSH2 0x29CD PUSH1 0x20 DUP5 ADD DUP5 PUSH2 0x2125 JUMP JUMPDEST SWAP1 POP SWAP3 SWAP2 POP POP JUMP JUMPDEST PUSH2 0x29DE DUP2 PUSH2 0x1EA2 JUMP JUMPDEST DUP3 MSTORE POP POP JUMP JUMPDEST PUSH1 0x0 DUP1 DUP4 CALLDATALOAD PUSH1 0x1 PUSH1 0x20 SUB DUP5 CALLDATASIZE SUB SUB DUP2 SLT PUSH2 0x2A01 JUMPI PUSH2 0x2A00 PUSH2 0x2684 JUMP JUMPDEST JUMPDEST DUP4 DUP2 ADD SWAP3 POP DUP3 CALLDATALOAD SWAP2 POP PUSH1 0x20 DUP4 ADD SWAP3 POP PUSH8 0xFFFFFFFFFFFFFFFF DUP3 GT ISZERO PUSH2 0x2A29 JUMPI PUSH2 0x2A28 PUSH2 0x2763 JUMP JUMPDEST JUMPDEST PUSH1 0x1 DUP3 MUL CALLDATASIZE SUB DUP4 SGT ISZERO PUSH2 0x2A3F JUMPI PUSH2 0x2A3E PUSH2 0x2768 JUMP JUMPDEST JUMPDEST POP SWAP3 POP SWAP3 SWAP1 POP JUMP JUMPDEST PUSH1 0x0 DUP3 DUP3 MSTORE PUSH1 0x20 DUP3 ADD SWAP1 POP SWAP3 SWAP2 POP POP JUMP JUMPDEST DUP3 DUP2 DUP4 CALLDATACOPY PUSH1 0x0 DUP4 DUP4 ADD MSTORE POP POP POP JUMP JUMPDEST PUSH1 0x0 PUSH2 0x2A73 DUP4 DUP6 PUSH2 0x2A47 JUMP JUMPDEST SWAP4 POP PUSH2 0x2A80 DUP4 DUP6 DUP5 PUSH2 0x2A58 JUMP JUMPDEST PUSH2 0x2A89 DUP4 PUSH2 0x21E7 JUMP JUMPDEST DUP5 ADD SWAP1 POP SWAP4 SWAP3 POP POP POP JUMP JUMPDEST PUSH1 0x0 PUSH2 0x2AA3 PUSH1 0x20 DUP5 ADD DUP5 PUSH2 0x2419 JUMP JUMPDEST SWAP1 POP SWAP3 SWAP2 POP POP JUMP JUMPDEST PUSH2 0x2AB4 DUP2 PUSH2 0x23F5 JUMP JUMPDEST DUP3 MSTORE POP POP JUMP JUMPDEST PUSH1 0x0 DUP1 DUP4 CALLDATALOAD PUSH1 0x1 PUSH1 0x20 SUB DUP5 CALLDATASIZE SUB SUB DUP2 SLT PUSH2 0x2AD7 JUMPI PUSH2 0x2AD6 PUSH2 0x2684 JUMP JUMPDEST JUMPDEST DUP4 DUP2 ADD SWAP3 POP DUP3 CALLDATALOAD SWAP2 POP PUSH1 0x20 DUP4 ADD SWAP3 POP PUSH8 0xFFFFFFFFFFFFFFFF DUP3 GT ISZERO PUSH2 0x2AFF JUMPI PUSH2 0x2AFE PUSH2 0x2763 JUMP JUMPDEST JUMPDEST PUSH1 0x20 DUP3 MUL CALLDATASIZE SUB DUP4 SGT ISZERO PUSH2 0x2B15 JUMPI PUSH2 0x2B14 PUSH2 0x2768 JUMP JUMPDEST JUMPDEST POP SWAP3 POP SWAP3 SWAP1 POP JUMP JUMPDEST PUSH1 0x0 DUP3 DUP3 MSTORE PUSH1 0x20 DUP3 ADD SWAP1 POP SWAP3 SWAP2 POP POP JUMP JUMPDEST PUSH1 0x0 DUP2 SWAP1 POP SWAP2 SWAP1 POP JUMP JUMPDEST PUSH1 0x0 DUP1 DUP4 CALLDATALOAD PUSH1 0x1 PUSH1 0x20 SUB DUP5 CALLDATASIZE SUB SUB DUP2 SLT PUSH2 0x2B55 JUMPI PUSH2 0x2B54 PUSH2 0x2684 JUMP JUMPDEST JUMPDEST DUP4 DUP2 ADD SWAP3 POP DUP3 CALLDATALOAD SWAP2 POP PUSH1 0x20 DUP4 ADD SWAP3 POP PUSH8 0xFFFFFFFFFFFFFFFF DUP3 GT ISZERO PUSH2 0x2B7D JUMPI PUSH2 0x2B7C PUSH2 0x2763 JUMP JUMPDEST JUMPDEST PUSH1 0x20 DUP3 MUL CALLDATASIZE SUB DUP4 SGT ISZERO PUSH2 0x2B93 JUMPI PUSH2 0x2B92 PUSH2 0x2768 JUMP JUMPDEST JUMPDEST POP SWAP3 POP SWAP3 SWAP1 POP JUMP JUMPDEST PUSH1 0x0 DUP3 DUP3 MSTORE PUSH1 0x20 DUP3 ADD SWAP1 POP SWAP3 SWAP2 POP POP JUMP JUMPDEST PUSH1 0x0 DUP1 REVERT JUMPDEST DUP3 DUP2 DUP4 CALLDATACOPY POP POP POP JUMP JUMPDEST PUSH1 0x0 PUSH2 0x2BC6 DUP4 DUP6 PUSH2 0x2B9B JUMP JUMPDEST SWAP4 POP PUSH32 0x7FFFFFFFFFFFFFFFFFFFFFFFFFFFFFFFFFFFFFFFFFFFFFFFFFFFFFFFFFFFFFF DUP4 GT ISZERO PUSH2 0x2BF9 JUMPI PUSH2 0x2BF8 PUSH2 0x2BAC JUMP JUMPDEST JUMPDEST PUSH1 0x20 DUP4 MUL SWAP3 POP PUSH2 0x2C0A DUP4 DUP6 DUP5 PUSH2 0x2BB1 JUMP JUMPDEST DUP3 DUP5 ADD SWAP1 POP SWAP4 SWAP3 POP POP POP JUMP JUMPDEST PUSH1 0x0 PUSH1 0xA0 DUP4 ADD PUSH2 0x2C29 PUSH1 0x0 DUP5 ADD DUP5 PUSH2 0x284E JUMP JUMPDEST PUSH2 0x2C36 PUSH1 0x0 DUP7 ADD DUP3 PUSH2 0x27FB JUMP JUMPDEST POP PUSH2 0x2C44 PUSH1 0x20 DUP5 ADD DUP5 PUSH2 0x2998 JUMP JUMPDEST PUSH2 0x2C51 PUSH1 0x20 DUP7 ADD DUP3 PUSH2 0x29AF JUMP JUMPDEST POP PUSH2 0x2C5F PUSH1 0x40 DUP5 ADD DUP5 PUSH2 0x2B38 JUMP JUMPDEST DUP6 DUP4 SUB PUSH1 0x40 DUP8 ADD MSTORE PUSH2 0x2C72 DUP4 DUP3 DUP5 PUSH2 0x2BBA JUMP JUMPDEST SWAP3 POP POP POP PUSH2 0x2C83 PUSH1 0x60 DUP5 ADD DUP5 PUSH2 0x29E4 JUMP JUMPDEST DUP6 DUP4 SUB PUSH1 0x60 DUP8 ADD MSTORE PUSH2 0x2C96 DUP4 DUP3 DUP5 PUSH2 0x2A67 JUMP JUMPDEST SWAP3 POP POP POP PUSH2 0x2CA7 PUSH1 0x80 DUP5 ADD DUP5 PUSH2 0x273D JUMP JUMPDEST PUSH2 0x2CB4 PUSH1 0x80 DUP7 ADD DUP3 PUSH2 0x2754 JUMP JUMPDEST POP DUP1 SWAP2 POP POP SWAP3 SWAP2 POP POP JUMP JUMPDEST PUSH1 0x0 PUSH2 0x2CCB DUP4 DUP4 PUSH2 0x2C16 JUMP JUMPDEST SWAP1 POP SWAP3 SWAP2 POP POP JUMP JUMPDEST PUSH1 0x0 DUP3 CALLDATALOAD PUSH1 0x1 PUSH1 0xA0 SUB DUP4 CALLDATASIZE SUB SUB DUP2 SLT PUSH2 0x2CEF JUMPI PUSH2 0x2CEE PUSH2 0x2684 JUMP JUMPDEST JUMPDEST DUP3 DUP2 ADD SWAP2 POP POP SWAP3 SWAP2 POP POP JUMP JUMPDEST PUSH1 0x0 PUSH1 0x20 DUP3 ADD SWAP1 POP SWAP2 SWAP1 POP JUMP JUMPDEST PUSH1 0x0 PUSH2 0x2D14 DUP4 DUP6 PUSH2 0x2B1D JUMP JUMPDEST SWAP4 POP DUP4 PUSH1 0x20 DUP5 MUL DUP6 ADD PUSH2 0x2D26 DUP5 PUSH2 0x2B2E JUMP JUMPDEST DUP1 PUSH1 0x0 JUMPDEST DUP8 DUP2 LT ISZERO PUSH2 0x2D6A JUMPI DUP5 DUP5 SUB DUP10 MSTORE PUSH2 0x2D41 DUP3 DUP5 PUSH2 0x2CD3 JUMP JUMPDEST PUSH2 0x2D4B DUP6 DUP3 PUSH2 0x2CBF JUMP JUMPDEST SWAP5 POP PUSH2 0x2D56 DUP4 PUSH2 0x2CFB JUMP JUMPDEST SWAP3 POP PUSH1 0x20 DUP11 ADD SWAP10 POP POP PUSH1 0x1 DUP2 ADD SWAP1 POP PUSH2 0x2D2A JUMP JUMPDEST POP DUP3 SWAP8 POP DUP8 SWAP5 POP POP POP POP POP SWAP4 SWAP3 POP POP POP JUMP JUMPDEST PUSH1 0x0 PUSH2 0x120 DUP4 ADD PUSH2 0x2D90 PUSH1 0x0 DUP5 ADD DUP5 PUSH2 0x265E JUMP JUMPDEST PUSH2 0x2D9D PUSH1 0x0 DUP7 ADD DUP3 PUSH2 0x2675 JUMP JUMPDEST POP PUSH2 0x2DAB PUSH1 0x20 DUP5 ADD DUP5 PUSH2 0x265E JUMP JUMPDEST PUSH2 0x2DB8 PUSH1 0x20 DUP7 ADD DUP3 PUSH2 0x2675 JUMP JUMPDEST POP PUSH2 0x2DC6 PUSH1 0x40 DUP5 ADD DUP5 PUSH2 0x2998 JUMP JUMPDEST PUSH2 0x2DD3 PUSH1 0x40 DUP7 ADD DUP3 PUSH2 0x29AF JUMP JUMPDEST POP PUSH2 0x2DE1 PUSH1 0x60 DUP5 ADD DUP5 PUSH2 0x273D JUMP JUMPDEST PUSH2 0x2DEE PUSH1 0x60 DUP7 ADD DUP3 PUSH2 0x2754 JUMP JUMPDEST POP PUSH2 0x2DFC PUSH1 0x80 DUP5 ADD DUP5 PUSH2 0x2998 JUMP JUMPDEST PUSH2 0x2E09 PUSH1 0x80 DUP7 ADD DUP3 PUSH2 0x29AF JUMP JUMPDEST POP PUSH2 0x2E17 PUSH1 0xA0 DUP5 ADD DUP5 PUSH2 0x29BE JUMP JUMPDEST PUSH2 0x2E24 PUSH1 0xA0 DUP7 ADD DUP3 PUSH2 0x29D5 JUMP JUMPDEST POP PUSH2 0x2E32 PUSH1 0xC0 DUP5 ADD DUP5 PUSH2 0x29E4 JUMP JUMPDEST DUP6 DUP4 SUB PUSH1 0xC0 DUP8 ADD MSTORE PUSH2 0x2E45 DUP4 DUP3 DUP5 PUSH2 0x2A67 JUMP JUMPDEST SWAP3 POP POP POP PUSH2 0x2E56 PUSH1 0xE0 DUP5 ADD DUP5 PUSH2 0x2A94 JUMP JUMPDEST PUSH2 0x2E63 PUSH1 0xE0 DUP7 ADD DUP3 PUSH2 0x2AAB JUMP JUMPDEST POP PUSH2 0x2E72 PUSH2 0x100 DUP5 ADD DUP5 PUSH2 0x2ABA JUMP JUMPDEST DUP6 DUP4 SUB PUSH2 0x100 DUP8 ADD MSTORE PUSH2 0x2E86 DUP4 DUP3 DUP5 PUSH2 0x2D08 JUMP JUMPDEST SWAP3 POP POP POP DUP1 SWAP2 POP POP SWAP3 SWAP2 POP POP JUMP JUMPDEST PUSH1 0x0 PUSH1 0xC0 DUP4 ADD PUSH2 0x2EA7 PUSH1 0x0 DUP5 ADD DUP5 PUSH2 0x2638 JUMP JUMPDEST PUSH2 0x2EB4 PUSH1 0x0 DUP7 ADD DUP3 PUSH2 0x264F JUMP JUMPDEST POP PUSH2 0x2EC2 PUSH1 0x20 DUP5 ADD DUP5 PUSH2 0x2638 JUMP JUMPDEST PUSH2 0x2ECF PUSH1 0x20 DUP7 ADD DUP3 PUSH2 0x264F JUMP JUMPDEST POP PUSH2 0x2EDD PUSH1 0x40 DUP5 ADD DUP5 PUSH2 0x265E JUMP JUMPDEST PUSH2 0x2EEA PUSH1 0x40 DUP7 ADD DUP3 PUSH2 0x2675 JUMP JUMPDEST POP PUSH2 0x2EF8 PUSH1 0x60 DUP5 ADD DUP5 PUSH2 0x265E JUMP JUMPDEST PUSH2 0x2F05 PUSH1 0x60 DUP7 ADD DUP3 PUSH2 0x2675 JUMP JUMPDEST POP PUSH2 0x2F13 PUSH1 0x80 DUP5 ADD DUP5 PUSH2 0x2689 JUMP JUMPDEST DUP5 DUP3 SUB PUSH1 0x80 DUP7 ADD MSTORE PUSH2 0x2F25 DUP3 DUP3 PUSH2 0x28CF JUMP JUMPDEST SWAP2 POP POP PUSH2 0x2F35 PUSH1 0xA0 DUP5 ADD DUP5 PUSH2 0x296F JUMP JUMPDEST DUP5 DUP3 SUB PUSH1 0xA0 DUP7 ADD MSTORE PUSH2 0x2F47 DUP3 DUP3 PUSH2 0x2D7C JUMP JUMPDEST SWAP2 POP POP DUP1 SWAP2 POP POP SWAP3 SWAP2 POP POP JUMP JUMPDEST PUSH1 0x0 PUSH1 0x20 DUP3 ADD SWAP1 POP DUP2 DUP2 SUB PUSH1 0x0 DUP4 ADD MSTORE PUSH2 0x2F6E DUP2 DUP5 PUSH2 0x2E94 JUMP JUMPDEST SWAP1 POP SWAP3 SWAP2 POP POP JUMP JUMPDEST PUSH32 0x496E76616C6964204D65726B6C652070726F6F66000000000000000000000000 PUSH1 0x0 DUP3 ADD MSTORE POP JUMP JUMPDEST PUSH1 0x0 PUSH2 0x2FAC PUSH1 0x14 DUP4 PUSH2 0x234F JUMP JUMPDEST SWAP2 POP PUSH2 0x2FB7 DUP3 PUSH2 0x2F76 JUMP JUMPDEST PUSH1 0x20 DUP3 ADD SWAP1 POP SWAP2 SWAP1 POP JUMP JUMPDEST PUSH1 0x0 PUSH1 0x20 DUP3 ADD SWAP1 POP DUP2 DUP2 SUB PUSH1 0x0 DUP4 ADD MSTORE PUSH2 0x2FDB DUP2 PUSH2 0x2F9F JUMP JUMPDEST SWAP1 POP SWAP2 SWAP1 POP JUMP JUMPDEST PUSH32 0x4E487B7100000000000000000000000000000000000000000000000000000000 PUSH1 0x0 MSTORE PUSH1 0x11 PUSH1 0x4 MSTORE PUSH1 0x24 PUSH1 0x0 REVERT JUMPDEST PUSH1 0x0 PUSH2 0x301C DUP3 PUSH2 0x1EA2 JUMP JUMPDEST SWAP2 POP PUSH2 0x3027 DUP4 PUSH2 0x1EA2 JUMP JUMPDEST SWAP3 POP DUP3 DUP3 ADD SWAP1 POP DUP1 DUP3 GT ISZERO PUSH2 0x303F JUMPI PUSH2 0x303E PUSH2 0x2FE2 JUMP JUMPDEST JUMPDEST SWAP3 SWAP2 POP POP JUMP JUMPDEST PUSH1 0x0 PUSH1 0x40 DUP3 ADD SWAP1 POP PUSH2 0x305A PUSH1 0x0 DUP4 ADD DUP6 PUSH2 0x1EAC JUMP JUMPDEST PUSH2 0x3067 PUSH1 0x20 DUP4 ADD DUP5 PUSH2 0x1FB3 JUMP JUMPDEST SWAP4 SWAP3 POP POP POP JUMP JUMPDEST PUSH32 0x5A65726F20616D6F756E74000000000000000000000000000000000000000000 PUSH1 0x0 DUP3 ADD MSTORE POP JUMP JUMPDEST PUSH1 0x0 PUSH2 0x30A4 PUSH1 0xB DUP4 PUSH2 0x234F JUMP JUMPDEST SWAP2 POP PUSH2 0x30AF DUP3 PUSH2 0x306E JUMP JUMPDEST PUSH1 0x20 DUP3 ADD SWAP1 POP SWAP2 SWAP1 POP JUMP JUMPDEST PUSH1 0x0 PUSH1 0x20 DUP3 ADD SWAP1 POP DUP2 DUP2 SUB PUSH1 0x0 DUP4 ADD MSTORE PUSH2 0x30D3 DUP2 PUSH2 0x3097 JUMP JUMPDEST SWAP1 POP SWAP2 SWAP1 POP JUMP JUMPDEST PUSH32 0x496E73756666696369656E742062616C616E6365000000000000000000000000 PUSH1 0x0 DUP3 ADD MSTORE POP JUMP JUMPDEST PUSH1 0x0 PUSH2 0x3110 PUSH1 0x14 DUP4 PUSH2 0x234F JUMP JUMPDEST SWAP2 POP PUSH2 0x311B DUP3 PUSH2 0x30DA JUMP JUMPDEST PUSH1 0x20 DUP3 ADD SWAP1 POP SWAP2 SWAP1 POP JUMP JUMPDEST PUSH1 0x0 PUSH1 0x20 DUP3 ADD SWAP1 POP DUP2 DUP2 SUB PUSH1 0x0 DUP4 ADD MSTORE PUSH2 0x313F DUP2 PUSH2 0x3103 JUMP JUMPDEST SWAP1 POP SWAP2 SWAP1 POP JUMP JUMPDEST PUSH32 0x5A65726F20726563697069656E74000000000000000000000000000000000000 PUSH1 0x0 DUP3 ADD MSTORE POP JUMP JUMPDEST PUSH1 0x0 PUSH2 0x317C PUSH1 0xE DUP4 PUSH2 0x234F JUMP JUMPDEST SWAP2 POP PUSH2 0x3187 DUP3 PUSH2 0x3146 JUMP JUMPDEST PUSH1 0x20 DUP3 ADD SWAP1 POP SWAP2 SWAP1 POP JUMP JUMPDEST PUSH1 0x0 PUSH1 0x20 DUP3 ADD SWAP1 POP DUP2 DUP2 SUB PUSH1 0x0 DUP4 ADD MSTORE PUSH2 0x31AB DUP2 PUSH2 0x316F JUMP JUMPDEST SWAP1 POP SWAP2 SWAP1 POP JUMP JUMPDEST PUSH1 0x0 PUSH2 0x31BD DUP3 PUSH2 0x1EA2 JUMP JUMPDEST SWAP2 POP PUSH2 0x31C8 DUP4 PUSH2 0x1EA2 JUMP JUMPDEST SWAP3 POP DUP3 DUP3 SUB SWAP1 POP DUP2 DUP2 GT ISZERO PUSH2 0x31E0 JUMPI PUSH2 0x31DF PUSH2 0x2FE2 JUMP JUMPDEST JUMPDEST SWAP3 SWAP2 POP POP JUMP JUMPDEST PUSH1 0x0 PUSH2 0x31F1 DUP3 PUSH2 0x1EA2 JUMP JUMPDEST SWAP2 POP PUSH32 0xFFFFFFFFFFFFFFFFFFFFFFFFFFFFFFFFFFFFFFFFFFFFFFFFFFFFFFFFFFFFFFFF DUP3 SUB PUSH2 0x3223 JUMPI PUSH2 0x3222 PUSH2 0x2FE2 JUMP JUMPDEST JUMPDEST PUSH1 0x1 DUP3 ADD SWAP1 POP SWAP2 SWAP1 POP JUMP JUMPDEST PUSH1 0x0 PUSH1 0x40 DUP3 ADD SWAP1 POP PUSH2 0x3243 PUSH1 0x0 DUP4 ADD DUP6 PUSH2 0x1EAC JUMP JUMPDEST DUP2 DUP2 SUB PUSH1 0x20 DUP4 ADD MSTORE PUSH2 0x3255 DUP2 DUP5 PUSH2 0x21F8 JUMP JUMPDEST SWAP1 POP SWAP4 SWAP3 POP POP POP JUMP JUMPDEST PUSH32 0x556E617574686F72697A65640000000000000000000000000000000000000000 PUSH1 0x0 DUP3 ADD MSTORE POP JUMP JUMPDEST PUSH1 0x0 PUSH2 0x3294 PUSH1 0xC DUP4 PUSH2 0x234F JUMP JUMPDEST SWAP2 POP PUSH2 0x329F DUP3 PUSH2 0x325E JUMP JUMPDEST PUSH1 0x20 DUP3 ADD SWAP1 POP SWAP2 SWAP1 POP JUMP JUMPDEST PUSH1 0x0 PUSH1 0x20 DUP3 ADD SWAP1 POP DUP2 DUP2 SUB PUSH1 0x0 DUP4 ADD MSTORE PUSH2 0x32C3 DUP2 PUSH2 0x3287 JUMP JUMPDEST SWAP1 POP SWAP2 SWAP1 POP JUMP JUMPDEST PUSH32 0x526F6F7420616C72656164792073657400000000000000000000000000000000 PUSH1 0x0 DUP3 ADD MSTORE POP JUMP JUMPDEST PUSH1 0x0 PUSH2 0x3300 PUSH1 0x10 DUP4 PUSH2 0x234F JUMP JUMPDEST SWAP2 POP PUSH2 0x330B DUP3 PUSH2 0x32CA JUMP JUMPDEST PUSH1 0x20 DUP3 ADD SWAP1 POP SWAP2 SWAP1 POP JUMP JUMPDEST PUSH1 0x0 PUSH1 0x20 DUP3 ADD SWAP1 POP DUP2 DUP2 SUB PUSH1 0x0 DUP4 ADD MSTORE PUSH2 0x332F DUP2 PUSH2 0x32F3 JUMP JUMPDEST SWAP1 POP SWAP2 SWAP1 POP JUMP JUMPDEST PUSH32 0x5A65726F20726F6F740000000000000000000000000000000000000000000000 PUSH1 0x0 DUP3 ADD MSTORE POP JUMP JUMPDEST PUSH1 0x0 PUSH2 0x336C PUSH1 0x9 DUP4 PUSH2 0x234F JUMP JUMPDEST SWAP2 POP PUSH2 0x3377 DUP3 PUSH2 0x3336 JUMP JUMPDEST PUSH1 0x20 DUP3 ADD SWAP1 POP SWAP2 SWAP1 POP JUMP JUMPDEST PUSH1 0x0 PUSH1 0x20 DUP3 ADD SWAP1 POP DUP2 DUP2 SUB PUSH1 0x0 DUP4 ADD MSTORE PUSH2 0x339B DUP2 PUSH2 0x335F JUMP JUMPDEST SWAP1 POP SWAP2 SWAP1 POP JUMP JUMPDEST PUSH32 0x4E487B7100000000000000000000000000000000000000000000000000000000 PUSH1 0x0 MSTORE PUSH1 0x32 PUSH1 0x4 MSTORE PUSH1 0x24 PUSH1 0x0 REVERT JUMPDEST PUSH1 0x0 DUP2 SWAP1 POP SWAP2 SWAP1 POP JUMP JUMPDEST PUSH2 0x33EC PUSH2 0x33E7 DUP3 PUSH2 0x1FA9 JUMP JUMPDEST PUSH2 0x33D1 JUMP JUMPDEST DUP3 MSTORE POP POP JUMP JUMPDEST PUSH1 0x0 PUSH2 0x33FE DUP3 DUP6 PUSH2 0x33DB JUMP JUMPDEST PUSH1 0x20 DUP3 ADD SWAP2 POP PUSH2 0x340E DUP3 DUP5 PUSH2 0x33DB JUMP JUMPDEST PUSH1 0x20 DUP3 ADD SWAP2 POP DUP2 SWAP1 POP SWAP4 SWAP3 POP POP POP JUMP JUMPDEST PUSH1 0x0 PUSH2 0x3429 DUP3 PUSH2 0x1EA2 JUMP JUMPDEST SWAP2 POP PUSH2 0x3434 DUP4 PUSH2 0x1EA2 JUMP JUMPDEST SWAP3 POP DUP3 DUP3 MUL PUSH2 0x3442 DUP2 PUSH2 0x1EA2 JUMP JUMPDEST SWAP2 POP DUP3 DUP3 DIV DUP5 EQ DUP4 ISZERO OR PUSH2 0x3459 JUMPI PUSH2 0x3458 PUSH2 0x2FE2 JUMP JUMPDEST JUMPDEST POP SWAP3 SWAP2 POP POP JUMP JUMPDEST PUSH1 0x0 DUP2 SWAP1 POP SWAP3 SWAP2 POP POP JUMP JUMPDEST PUSH1 0x0 PUSH2 0x3476 DUP3 PUSH2 0x21A1 JUMP JUMPDEST PUSH2 0x3480 DUP2 DUP6 PUSH2 0x3460 JUMP JUMPDEST SWAP4 POP PUSH2 0x3490 DUP2 DUP6 PUSH1 0x20 DUP7 ADD PUSH2 0x21BD JUMP JUMPDEST DUP1 DUP5 ADD SWAP2 POP POP SWAP3 SWAP2 POP POP JUMP JUMPDEST PUSH1 0x0 PUSH2 0x34A8 DUP3 DUP5 PUSH2 0x346B JUMP JUMPDEST SWAP2 POP DUP2 SWAP1 POP SWAP3 SWAP2 POP POP JUMP JUMPDEST PUSH32 0x4E487B7100000000000000000000000000000000000000000000000000000000 PUSH1 0x0 MSTORE PUSH1 0x41 PUSH1 0x4 MSTORE PUSH1 0x24 PUSH1 0x0 REVERT JUMPDEST PUSH1 0x0 PUSH2 0x34EE DUP3 DUP5 PUSH2 0x33DB JUMP JUMPDEST PUSH1 0x20 DUP3 ADD SWAP2 POP DUP2 SWAP1 POP SWAP3 SWAP2 POP POP JUMP JUMPDEST PUSH1 0x0 DUP2 PUSH1 0x60 SHL SWAP1 POP SWAP2 SWAP1 POP JUMP JUMPDEST PUSH1 0x0 PUSH2 0x3515 DUP3 PUSH2 0x34FD JUMP JUMPDEST SWAP1 POP SWAP2 SWAP1 POP JUMP JUMPDEST PUSH1 0x0 PUSH2 0x3527 DUP3 PUSH2 0x350A JUMP JUMPDEST SWAP1 POP SWAP2 SWAP1 POP JUMP JUMPDEST PUSH2 0x353F PUSH2 0x353A DUP3 PUSH2 0x1EF6 JUMP JUMPDEST PUSH2 0x351C JUMP JUMPDEST DUP3 MSTORE POP POP JUMP JUMPDEST PUSH1 0x0 PUSH2 0x3551 DUP3 DUP5 PUSH2 0x352E JUMP JUMPDEST PUSH1 0x14 DUP3 ADD SWAP2 POP DUP2 SWAP1 POP SWAP3 SWAP2 POP POP JUMP JUMPDEST PUSH1 0x0 PUSH2 0x356C DUP3 DUP6 PUSH2 0x346B JUMP JUMPDEST SWAP2 POP PUSH2 0x3578 DUP3 DUP5 PUSH2 0x346B JUMP JUMPDEST SWAP2 POP DUP2 SWAP1 POP SWAP4 SWAP3 POP POP POP JUMP JUMPDEST PUSH32 0x4E487B7100000000000000000000000000000000000000000000000000000000 PUSH1 0x0 MSTORE PUSH1 0x21 PUSH1 0x4 MSTORE PUSH1 0x24 PUSH1 0x0 REVERT JUMPDEST PUSH1 0x9 DUP2 LT PUSH2 0x35C4 JUMPI PUSH2 0x35C3 PUSH2 0x3584 JUMP JUMPDEST JUMPDEST POP JUMP JUMPDEST PUSH1 0x0 DUP2 SWAP1 POP PUSH2 0x35D5 DUP3 PUSH2 0x35B3 JUMP JUMPDEST SWAP2 SWAP1 POP JUMP JUMPDEST PUSH1 0x0 PUSH2 0x35E5 DUP3 PUSH2 0x35C7 JUMP JUMPDEST SWAP1 POP SWAP2 SWAP1 POP JUMP JUMPDEST PUSH2 0x35F5 DUP2 PUSH2 0x35DA JUMP JUMPDEST DUP3 MSTORE POP POP JUMP JUMPDEST PUSH1 0x0 PUSH1 0x80 DUP3 ADD SWAP1 POP PUSH2 0x3610 PUSH1 0x0 DUP4 ADD DUP8 PUSH2 0x35EC JUMP JUMPDEST DUP2 DUP2 SUB PUSH1 0x20 DUP4 ADD MSTORE PUSH2 0x3622 DUP2 DUP7 PUSH2 0x21F8 JUMP JUMPDEST SWAP1 POP DUP2 DUP2 SUB PUSH1 0x40 DUP4 ADD MSTORE PUSH2 0x3636 DUP2 DUP6 PUSH2 0x21F8 JUMP JUMPDEST SWAP1 POP DUP2 DUP2 SUB PUSH1 0x60 DUP4 ADD MSTORE PUSH2 0x364A DUP2 DUP5 PUSH2 0x21F8 JUMP JUMPDEST SWAP1 POP SWAP6 SWAP5 POP POP POP POP POP JUMP JUMPDEST PUSH32 0x7369676E3A206661696C65640000000000000000000000000000000000000000 PUSH1 0x0 DUP3 ADD MSTORE POP JUMP JUMPDEST PUSH1 0x0 PUSH2 0x368B PUSH1 0xC DUP4 PUSH2 0x234F JUMP JUMPDEST SWAP2 POP PUSH2 0x3696 DUP3 PUSH2 0x3655 JUMP JUMPDEST PUSH1 0x20 DUP3 ADD SWAP1 POP SWAP2 SWAP1 POP JUMP JUMPDEST PUSH1 0x0 PUSH1 0x20 DUP3 ADD SWAP1 POP DUP2 DUP2 SUB PUSH1 0x0 DUP4 ADD MSTORE PUSH2 0x36BA DUP2 PUSH2 0x367E JUMP JUMPDEST SWAP1 POP SWAP2 SWAP1 POP JUMP JUMPDEST PUSH2 0x36CA DUP2 PUSH2 0x23F5 JUMP JUMPDEST DUP3 MSTORE POP POP JUMP JUMPDEST PUSH1 0x0 PUSH1 0x80 DUP3 ADD SWAP1 POP PUSH2 0x36E5 PUSH1 0x0 DUP4 ADD DUP8 PUSH2 0x1FB3 JUMP JUMPDEST PUSH2 0x36F2 PUSH1 0x20 DUP4 ADD DUP7 PUSH2 0x36C1 JUMP JUMPDEST PUSH2 0x36FF PUSH1 0x40 DUP4 ADD DUP6 PUSH2 0x1FB3 JUMP JUMPDEST PUSH2 0x370C PUSH1 0x60 DUP4 ADD DUP5 PUSH2 0x1FB3 JUMP JUMPDEST SWAP6 SWAP5 POP POP POP POP POP JUMP JUMPDEST PUSH1 0x0 DUP2 SWAP1 POP SWAP2 SWAP1 POP JUMP JUMPDEST PUSH2 0x3730 PUSH2 0x372B DUP3 PUSH2 0x1EA2 JUMP JUMPDEST PUSH2 0x3715 JUMP JUMPDEST DUP3 MSTORE POP POP JUMP JUMPDEST PUSH1 0x0 PUSH2 0x3742 DUP3 DUP5 PUSH2 0x371F JUMP JUMPDEST PUSH1 0x20 DUP3 ADD SWAP2 POP DUP2 SWAP1 POP SWAP3 SWAP2 POP POP JUMP JUMPDEST PUSH1 0x0 PUSH2 0x375C DUP3 PUSH2 0x23F5 JUMP JUMPDEST SWAP2 POP PUSH2 0x3767 DUP4 PUSH2 0x23F5 JUMP JUMPDEST SWAP3 POP DUP3 DUP3 ADD SWAP1 POP PUSH1 0xFF DUP2 GT ISZERO PUSH2 0x3780 JUMPI PUSH2 0x377F PUSH2 0x2FE2 JUMP JUMPDEST JUMPDEST SWAP3 SWAP2 POP POP JUMP JUMPDEST PUSH32 0x4E487B7100000000000000000000000000000000000000000000000000000000 PUSH1 0x0 MSTORE PUSH1 0x12 PUSH1 0x4 MSTORE PUSH1 0x24 PUSH1 0x0 REVERT JUMPDEST PUSH1 0x0 PUSH2 0x37C0 DUP3 PUSH2 0x1EA2 JUMP JUMPDEST SWAP2 POP PUSH2 0x37CB DUP4 PUSH2 0x1EA2 JUMP JUMPDEST SWAP3 POP DUP3 PUSH2 0x37DB JUMPI PUSH2 0x37DA PUSH2 0x3786 JUMP JUMPDEST JUMPDEST DUP3 DUP3 DIV SWAP1 POP SWAP3 SWAP2 POP POP JUMP JUMPDEST PUSH1 0x0 DUP2 PUSH1 0x1 SHR SWAP1 POP SWAP2 SWAP1 POP JUMP JUMPDEST PUSH1 0x0 DUP1 DUP3 SWAP2 POP DUP4 SWAP1 POP JUMPDEST PUSH1 0x1 DUP6 GT ISZERO PUSH2 0x383D JUMPI DUP1 DUP7 DIV DUP2 GT ISZERO PUSH2 0x3819 JUMPI PUSH2 0x3818 PUSH2 0x2FE2 JUMP JUMPDEST JUMPDEST PUSH1 0x1 DUP6 AND ISZERO PUSH2 0x3828 JUMPI DUP1 DUP3 MUL SWAP2 POP JUMPDEST DUP1 DUP2 MUL SWAP1 POP PUSH2 0x3836 DUP6 PUSH2 0x37E6 JUMP JUMPDEST SWAP5 POP PUSH2 0x37FD JUMP JUMPDEST SWAP5 POP SWAP5 SWAP3 POP POP POP JUMP JUMPDEST PUSH1 0x0 DUP3 PUSH2 0x3856 JUMPI PUSH1 0x1 SWAP1 POP PUSH2 0x3912 JUMP JUMPDEST DUP2 PUSH2 0x3864 JUMPI PUSH1 0x0 SWAP1 POP PUSH2 0x3912 JUMP JUMPDEST DUP2 PUSH1 0x1 DUP2 EQ PUSH2 0x387A JUMPI PUSH1 0x2 DUP2 EQ PUSH2 0x3884 JUMPI PUSH2 0x38B3 JUMP JUMPDEST PUSH1 0x1 SWAP2 POP POP PUSH2 0x3912 JUMP JUMPDEST PUSH1 0xFF DUP5 GT ISZERO PUSH2 0x3896 JUMPI PUSH2 0x3895 PUSH2 0x2FE2 JUMP JUMPDEST JUMPDEST DUP4 PUSH1 0x2 EXP SWAP2 POP DUP5 DUP3 GT ISZERO PUSH2 0x38AD JUMPI PUSH2 0x38AC PUSH2 0x2FE2 JUMP JUMPDEST JUMPDEST POP PUSH2 0x3912 JUMP JUMPDEST POP PUSH1 0x20 DUP4 LT PUSH2 0x133 DUP4 LT AND PUSH1 0x4E DUP5 LT PUSH1 0xB DUP5 LT AND OR ISZERO PUSH2 0x38E8 JUMPI DUP3 DUP3 EXP SWAP1 POP DUP4 DUP2 GT ISZERO PUSH2 0x38E3 JUMPI PUSH2 0x38E2 PUSH2 0x2FE2 JUMP JUMPDEST JUMPDEST PUSH2 0x3912 JUMP JUMPDEST PUSH2 0x38F5 DUP5 DUP5 DUP5 PUSH1 0x1 PUSH2 0x37F3 JUMP JUMPDEST SWAP3 POP SWAP1 POP DUP2 DUP5 DIV DUP2 GT ISZERO PUSH2 0x390C JUMPI PUSH2 0x390B PUSH2 0x2FE2 JUMP JUMPDEST JUMPDEST DUP2 DUP2 MUL SWAP1 POP JUMPDEST SWAP4 SWAP3 POP POP POP JUMP JUMPDEST PUSH1 0x0 PUSH2 0x3924 DUP3 PUSH2 0x1EA2 JUMP JUMPDEST SWAP2 POP PUSH2 0x392F DUP4 PUSH2 0x1EA2 JUMP JUMPDEST SWAP3 POP PUSH2 0x395C PUSH32 0xFFFFFFFFFFFFFFFFFFFFFFFFFFFFFFFFFFFFFFFFFFFFFFFFFFFFFFFFFFFFFFFF DUP5 DUP5 PUSH2 0x3846 JUMP JUMPDEST SWAP1 POP SWAP3 SWAP2 POP POP JUMP JUMPDEST PUSH1 0x0 PUSH2 0x396F DUP3 PUSH2 0x1EA2 JUMP JUMPDEST SWAP2 POP PUSH2 0x397A DUP4 PUSH2 0x1EA2 JUMP JUMPDEST SWAP3 POP DUP3 PUSH2 0x398A JUMPI PUSH2 0x3989 PUSH2 0x3786 JUMP JUMPDEST JUMPDEST DUP3 DUP3 MOD SWAP1 POP SWAP3 SWAP2 POP POP JUMP INVALID LOG2 PUSH5 0x6970667358 0x22 SLT KECCAK256 CALLDATACOPY 0x1E 0xAC SWAP8 0xB3 PUSH28 0x369545EF24B333E4813504AAB0C613946C93FB4CF03479761CE56473 PUSH16 0x6C634300081800330000000000000000 "},"methodIdentifiers":{"encumberedWalletAddr()":"554cdf10","encumberedWalletNonce()":"08dcd6fd","getBalance()":"12065fe0","getDepositAddress()":"12b0d400","processed(bytes32)":"c1f0808a","rootRelayer()":"d3894f7e","roots(uint64)":"1e3f0320","syncRoot(uint64,bytes32)":"d29e88d2","verifyAndCredit(bytes32[],(bytes32,bytes32,uint64,uint64,(bytes32,uint16,bool,bool,uint32[]),(uint64,uint64,address,bool,address,uint256,bytes,uint8,(uint32,address,bytes32[],bytes,bool)[])))":"6edc2393","withdraw(address,uint256,uint256,uint64)":"85c0205e","withdrawalChainId()":"372744f5"}}}}}